:020000040800F2
:1000000048280020CD010008D5010008011700088C
:10001000D9010008DB010008DD0100080000000034
:10002000939D939B08999697FE000000DF010008BE
:10003000E1010008D26F0008E3010008251800085C
:10004000E7010008E7010008E7010008E7010008F0
:10005000E7010008E7010008E7010008E7010008E0
:10006000E7010008E7010008E7010008E7010008D0
:10007000E7010008E7010008E7010008E7010008C0
:10008000E7010008E7010008E7010008E7010008B0
:1000900081340008E7010008E7010008E7010008D3
:1000A000E7010008E7010008E7010008E701000890
:1000B000E7010008E7010008E7010008E701000880
:1000C000E7010008E7010008E7010008E701000870
:1000D000E7010008E7010008F51A0008E701000839
:1000E000E7010008E7010008E701000800F002F856
:1000F00000F05AF80AA090E8000C82448344AAF168
:100100000107DA4501D100F04FF8AFF2090EBAE865
:100110000F0013F0010F18BFFB1A43F0010318473B
:10012000047E0000247E00000A444FF0000C10F80A
:10013000013B13F0070408BF10F8014B1D1108BF65
:1001400010F8015B641E05D010F8016B641E01F805
:10015000016BF9D113F0080F1EBF10F8014BAD1C55
:100160000C1B09D16D1E58BF01F801CBFAD505E073
:1001700014F8016B01F8016B6D1EF9D59142D6D3CD
:10018000704700000023002400250026103A28BFF5
:1001900078C1FBD8520728BF30C148BF0B607047F9
:1001A0001FB51FBD10B510BD00F08EFA1146FFF748
:1001B000F7FF04F011FC00F0ACFA03B4FFF7F2FF14
:1001C00003BC00F0B3FA00008546084709488047A1
:1001D00009480047FEE7FEE7FEE7FEE7FEE7FEE729
:1001E000FEE7FEE7FEE7FEE704480549054A064B41
:1001F00070470000C1180008ED00000848220020E8
:10020000482800204824002048240020B2F1200380
:100210000AD5C2F1200320FA02F001FA03F321FA11
:1002200002F140EA0300704721FA03F04FF00001A9
:10023000704740EA010310B59B070FD1042A0DD384
:1002400010C808C9121F9C42F8D020BA19BA8842B7
:1002500001D9012010BD4FF0FF3010BD1AB1D307F6
:1002600003D0521C07E0002010BD10F8013B11F82C
:10027000014B1B1B07D110F8013B11F8014B1B1B55
:1002800001D1921EF1D1184610BD10B5431C02E0F9
:1002900010F8011B71B18107FAD14FF0013202C889
:1002A0008C1A8C4314EAC211F9D0C01A0A0603D082
:1002B000C01E10BDC01A10BD0A0401D0801E10BDA2
:1002C0000902FCD0401E10BD40EA010370B59B0737
:1002D0002ED14FF00136042A2AD308C810C99D1B1D
:1002E0009D43121F15EAC61517D0D8B2E1B2401AC5
:1002F00050EA056110D198B2A1B2401A50EA054106
:100300000AD123F07F4024F07F41401A50EA0521B2
:1003100002D1180EA0EB146070BDA342DBD018BA56
:1003200021BA884201D9012070BD4FF0FF3070BD65
:100330000AB9002070BD10F8013B11F8014B63B100
:10034000A3420AD1521E08D010F8013B11F8014B0C
:100350001BB1A34201D1521EEDD1181B70BD421E2C
:1003600012F8013F002BFBD111F8013B002B02F8E2
:10037000013BF9D17047032A40F2568010F0030C7C
:1003800000F0158011F8013BBCF1020F624498BFE8
:1003900011F801CB00F8013B38BF11F8013BA2F185
:1003A000040298BF00F801CB38BF00F8013B11F000
:1003B000030300F0B080121FC0F03680A1EB0301F0
:1003C000022BD1F800C000F0118000F21E804FEA2D
:1003D0001C2351F804CF121F43EA0C6340F8043B7E
:1003E000BFF4F5AF01F1010100F01EB84FEA1C4364
:1003F00051F804CF121F43EA0C4340F8043BBFF40A
:10040000F5AF01F1020100F00FB84FEA1C6351F89B
:1004100004CF121F43EA0C2340F8043BBFF4F5AFAE
:1004200001F10301AFF30080D20724BF11F8013BB3
:1004300011F801CB48BF11F8012B24BF00F8013B94
:1004400000F801CB48BF00F8012B7047431A28BFC2
:100450009A427FF690AF032A1044114440F249803B
:1004600010F0030F1EBF11F8013D521E00F8013DB0
:1004700010F0030F7FF4F6AF11F0030300F0FA80E1
:10048000121FC0F03680A1EB0301022BD1F800C08F
:10049000C0F0118000F21E804FEA0C4351F804CDE9
:1004A000121F43EA1C4340F8043DBFF4F5AF01F1CD
:1004B000020100F01EB84FEA0C6351F804CD121F80
:1004C00043EA1C2340F8043DBFF4F5AF01F10101FC
:1004D00000F00FB84FEA0C2351F804CD121F43EA85
:1004E0001C6340F8043DBFF4F5AF01F10301AFF325
:1004F0000080D20724BF11F8013D11F801CD48BF9B
:1005000011F8012C24BF00F8013D00F801CD48BFCF
:1005100000F8012C704710B5203AC0F00B80B1E80C
:100520001850203AA0E81850B1E81850A0E8185028
:10053000BFF4F5AF5FEA027C24BFB1E81850A0E831
:10054000185044BF18C918C0BDE810405FEA827C4B
:1005500024BF51F8043B40F8043B08BF7047D20762
:1005600028BF31F8023B48BF11F8012B28BF20F803
:10057000023B48BF00F8012B704702F0FF0343EA3B
:10058000032242EA024200F002B84FF000020429BE
:10059000C0F0128010F0030C00F01B80CCF1040CB2
:1005A000BCF1020F18BF00F8012BA8BF20F8022BE6
:1005B000A1EB0C0100F00DB85FEAC17C24BF00F88C
:1005C000012B00F8012B48BF00F8012B70474FF0BA
:1005D000000200B5134694469646203922BFA0E893
:1005E0000C50A0E80C50B1F12001BFF4F7AF09079F
:1005F00028BFA0E80C5048BF0CC05DF804EB890090
:1006000028BF40F8042B08BF704748BF20F8022BD2
:1006100011F0804F18BF00F8012B70474278017825
:100620008378C07841EA022141EA034141EA00604F
:1006300070474FEA102208704A704FEA10428A70E1
:100640004FEA1062CA707047704770477047431A8C
:1006500028BF9A427FF65FAF104410F0030F114499
:100660001EBF11F8013D521E00F8013D10F0030FAE
:100670007FF4F6AF103AC0F00A8010B531E9185097
:10068000103A20E91850BFF4F9AFBDE81040530705
:1006900024BF31E9081020E9081044BF51F8043D97
:1006A00040F8043D12F0030F08BF7047D20728BF7F
:1006B00031F8023D48BF11F8012C28BF20F8023D57
:1006C00048BF00F8012C7047754600F02BF8AE4685
:1006D00005006946534620F00700854618B020B54E
:1006E000FFF782FDBDE820404FF000064FF0000705
:1006F0004FF000084FF0000B21F00701AC46ACE8CA
:10070000C009ACE8C009ACE8C009ACE8C0098D4636
:10071000704710B50446AFF300802046BDE8104096
:10072000FFF74BBD00487047E82100200149182021
:10073000ABBEFEE7260002007047000001078A0EEC
:1007400007490A44D2F8001C000602D548F6CF70CB
:1007500001E04CF68F700140C2F8001C70470000A9
:10076000005000400207930E0C4A30B51344D3F8F2
:10077000002C000648F68F7402EA040048F2800557
:1007800082EA010202D502F0300101E002F4405198
:1007900008432843C3F8000C30BD0000005000405F
:1007A00030B585B00546002400F03CF90120002159
:1007B00003900091CDE9011504A9684600F092F874
:1007C00000B1012400F0E2F805B0204630BD000081
:1007D00006490020C8610648016941F00401016131
:1007E000016941F04001016170470000881B002051
:1007F00000200240064A0021D16106490A6942F000
:1008000002020A614861086940F0400008617047CF
:10081000881B002000200240044B0022DA61044AB9
:10082000136943F00103136101807047881B0020A6
:10083000002002400E49C868C2060E4803D5C269AE
:1008400042F00202C261CA68520703D5C26942F08F
:100850000102C261CA69D20707D0C26942F004022C
:10086000C261C86920F00100C8611420C8607047E7
:1008700000200240881B002070B5044600F0CEF92D
:100880000546114E09E0601C07D024B100F0C6F9FE
:10089000401BA04201D9032070BDF068C007F2D10F
:1008A000F068800601D52020F060F068C00605D40D
:1008B000F069C00702D1F068400703D5FFF7BAFF1F
:1008C000012070BD002070BD0020024031B500F055
:1008D000A5F9044600F0A2F90099001B8842F9D35B
:1008E00038BD00002DE9F047054626480F46012691
:1008F000017E01290FD00121814601762868DFF8A9
:1009000088804CF25034022808D0A2462046FFF7D7
:10091000B3FFA8B131E00220BDE8F0872046FFF721
:10092000ABFF08BB0120FFF753FF2046FFF7A4FFF2
:10093000D8F81010064621F00401C8F810101CE089
:100940004FF0FF303860AC6811E02046FFF752FFEF
:100950005046FFF791FFD8F81010060021F0020171
:10096000C8F8101001D03C6007E004F58064D5E9B8
:10097000020100EB8120A042E7D8002189F818107D
:100980003046C9E7881B0020002002400348016967
:1009900041F080010161002070470000002002400A
:1009A0002DE9F05F05461D4888460024017E164665
:1009B0001F46012909D00121814601764CF2503AA7
:1009C0005046FFF759FF18B123E00220BDE8F09F21
:1009D000012D02D0022D00D00425D346DFF840A01F
:1009E00015E0220130463946FFF710FC81B208EBD2
:1009F0004400FFF711FF5846FFF73EFFDAF81020DA
:100A000022F00102CAF8102018B9641CE4B2AC420A
:100A1000E7D3002289F81820D8E70000881B0020BF
:100A20000020024005480169090605D504494160D6
:100A300004494160002070470120704700200240B7
:100A400023016745AB89EFCD2DE9F84FDFF8A09181
:100A5000002309F1040A0AF1040B1C464FF00F08A9
:100A60000BF1040E01270A68A7403A40BA4272D13E
:100A7000DFF880C14D68A5EB0C0665452BD00DDC79
:100A8000032D34D005DC35B3012D19D0022D2FD123
:100A90001BE0112D16D0122D2AD119E0B6F5881FB2
:100AA00019D006DCB6F5803F15D0B6F5801F1FD1F2
:100AB00011E0B6F5001F0ED0B6F5041F18D10AE0FC
:100AC000CB6815E0CB681B1D12E0CB6808330FE044
:100AD000CB680C330CE08B682BB1012B4FF0080373
:100AE00003D0476104E0042302E0076100E0002333
:100AF000FF2A01D8064601E000F104064FEA84050A
:100B000001D9A5F12005376808FA05FC27EA0C078A
:100B100003FA05F547EA050737604D68ED0060D533
:100B2000354DAE6946F00106AE61AD6924F00306AD
:100B300005F001050095314D7719BE68A5072D0F09
:100B400008FA05FC26EA0C06DFF8B4C0604503D1BC
:100B50004FF0000C17E044E0DFF8A8C0604502D178
:100B60004FF0010C0FE0DFF8A0C0604502D14FF05C
:100B7000020C08E0DFF894C0604502D14FF0030C8E
:100B800001E04FF0040C0CFA05FC4CEA060CC7F827
:100B900008C04D68D9F80060ED034D4601D51643F5
:100BA00000E096432E604D68DAF80060AD035546CC
:100BB00001D5164300E096432E604D68DBF80060D7
:100BC000ED025D4601D5164300E096432E604D6868
:100BD000DEF80060AD02754601D5164300E096438D
:100BE0002E60641C102CFFF43DAFBDE8F88F0000B0
:100BF00000040140000011100010024000000140FC
:100C000000080140000C01400010014000140140A8
:100C10000AB1016170470904FBE70000EFF310809F
:100C200010F0010F72B608480068406A074B4FEA9F
:100C300090021868A2EB0002C2F30D021044186083
:100C400000D162B670470000481B0020B4020020AB
:100C5000074810B5016841F010010160032000F061
:100C60005DF80F2000F006F800F056F8002010BDE7
:100C70000020024010B588B005A9684600F020F9B0
:100C80000398B0F5806F08D0B0F5A06F35D0B0F5FF
:100C9000C06F34D0B0F5E06F33D001201A494FF067
:100CA000804200240968B1FBF0F04FF47A61B0FB98
:100CB000F1F11648491E02604FF6FF72C0E90324A5
:100CC000C0E9011444611248C16941F00101C161E8
:100CD000C06900F0010006900C4800F012FC0028EA
:100CE00009D10C480460094800F027FC002802D113
:100CF000064800F03FFC08B010BD0220CEE70420FB
:100D0000CCE70820CAE70000B8020020481B0020FA
:100D100000100240B402002070470000064A00F0B4
:100D2000070110684FF6FF03184040EA012003490D
:100D300008431060704700000CED00E00000FA0569
:100D40002DE9F047DFF8688104460E46D8F8000028
:100D500000F00700B0420CD2D8F8001021F00701D3
:100D60003143C8F80010D8F8000000F00700B04286
:100D700073D120784F4F800705D57868A16820F09F
:100D8000F000084378602078C00755D060680122E1
:100D900001280CD0022828D0022393FAA3F1B1FA3B
:100DA00081F141F02001490904D0396803E04FF492
:100DB0000033F2E7796A93FAA3F3B3FA83F303F00B
:100DC0001F039A40114248D0796821F00301014382
:100DD0007960FFF723FF0546606841F288310128FA
:100DE0000CD00228894615D022E04FF00073D4E7DA
:100DF000FFF714FF411B494501D916E08946786881
:100E0000C0F381000128F3D116E0FFF707FF411B73
:100E100049450AD87868C0F381000228F5D10BE073
:100E2000FFF7FCFE411B494502D90320BDE8F087CE
:100E3000786810F00C0FF3D1D8F80010404601F09C
:100E40000701B1420BD9016821F00701314301606C
:100E5000006800F00700B04201D00120E6E72078EA
:100E6000400705D57868E16820F4E06008437860C1
:100E70002078000706D57868216920F4605040EAA0
:100E8000C100786000F03CF87968F02292FAA2F292
:100E900001F0F001B2FA82F2D140074A515CC84039
:100EA000064908600F20FFF7E5FE0020BEE70000BE
:100EB0000020024000100240F8740008B802002030
:100EC0000F2202600C4A536803F003034360536827
:100ED00003F0F0038360536803F4E063C360526877
:100EE0004FF4E06303EAD20202610448006800F0B4
:100EF0000700086070470000001002400020024018
:100F000010B519A085B00FC88DE80F001AA01B4BB3
:100F10000068049059681A4801F00C02042A1DD098
:100F2000082A1BD14FF4701494FAA4F401F470123F
:100F3000B4FA84F4E240C9031DF8022010D55968C0
:100F40004FF4003393FAA3F301F40031B3FA83F3BF
:100F5000D94004AB595CB0FBF1F0504305B010BD73
:100F600008485043FAE70000020304050607080991
:100F70000A0B0C0D0E0F10100102000000100240B1
:100F800000127A0000093D002DE9F84F0446007870
:100F9000FE4EC0074FF001057FD070684FF4003857
:100FA000C0F38100012807D07068C0F381000228D7
:100FB0001BD17068C00318D598FAA8F0B0FA80F079
:100FC00040F02000400901D0306800E0706A98FAD3
:100FD000A8F1B1FA81F101F01F0105FA01F108420F
:100FE0005BD06068002879D057E06068B0F5803F3A
:100FF0000BD010B1B0F5A02F11D0306820F48030A4
:101000003060306820F4802002E0306840F48030A6
:101010003060606818B3FFF701FE074609E03068EA
:1010200040F480203060F0E7FFF7F8FDC01B642833
:1010300070D898FAA8F0B0FA80F040F0200040098B
:1010400001D0306800E0706A98FAA8F1B1FA81F135
:1010500001F01F0105FA01F10842E5D01DE0FFF79C
:10106000DDFD074604E0FFF7D9FDC01B6428DFD88B
:1010700098FAA8F0B0FA80F040F02000400901D0C2
:10108000306800E0706A98FAA8F1B1FA81F101F0D5
:101090001F0105FA01F10842E5D12078DFF8F0825E
:1010A00080074FF0000A4FF002075AD570684FF0E2
:1010B000F80B10F00C0F07D07068C0F38100022805
:1010C0001CD17068C00319D497FAA7F0B0FA80F069
:1010D00040F02000400902D0306801E08AE0706AE8
:1010E00097FAA7F1B1FA81F101F01F0105FA01F1B8
:1010F00008422BD0206901287CD127E0206988B3E1
:1011000095FAA5F0B0FA80F048F82050FFF786FD78
:10111000814606E04DE1FFF781FDA0EB09000228C2
:1011200086D897FAA7F0B0FA80F040F02000400986
:1011300001D0306800E0706A97FAA7F1B1FA81F146
:1011400001F01F0105FA01F10842E4D030689BFA72
:10115000ABF220F0F8016069B2FA82F290400143EC
:10116000316025E0FFE795FAA5F1B1FA81F148F881
:1011700021A0FFF753FD814605E0FFF74FFDA0EBEF
:1011800009000228CCD897FAA7F0B0FA80F040F016
:101190002000400901D0306800E0706A97FAA7F19A
:1011A000B1FA81F101F01F0105FA01F10842E4D121
:1011B000207800076DD5A069B8B395FAA5F0B0FA0C
:1011C00080F008EB8000C0F88054FFF727FD8146CF
:1011D00005E0FFF723FDA0EB09000228A0D897FA4D
:1011E000A7F0B0FA80F040F06000B5EB501F02D1DC
:1011F00030680CE063E197FAA7F0B0FA80F040F0B5
:101200006000B7EB501F01D1306A00E0706A97FAB6
:10121000A7F1B1FA81F101F01F0105FA01F21042C4
:10122000D7D00120FFF752FB33E0FFE795FAA5F195
:10123000B1FA81F108EB8101C1F880A4FFF7EEFC5F
:10124000814605E0FFF7EAFCA0EB0900022899D8E7
:1012500097FAA7F0B0FA80F040F06000B5EB501FAD
:1012600001D130680BE097FAA7F0B0FA80F040F0B7
:101270006000B7EB501F01D1306A00E0706A97FA46
:10128000A7F1B1FA81F101F01F0105FA01F2104254
:10129000D8D12078400763D5F06940F08050F061E4
:1012A000F069DFF8F0B000F080500090DBF800103B
:1012B00041F48071CBF80010FFF7B0FC814605E0E7
:1012C000FFF7ACFCA0EB0900642872D8DBF8000043
:1012D000C005F5D5E06801280AD008B1052813D06B
:1012E000306A20F001003062306A20F0040002E031
:1012F000306A40F001003062E06841F2883B80B320
:10130000FFF78CFC81460AE0306A40F0040030624E
:10131000EEE7FFF783FCA0EB0901594549D897FA9E
:10132000A7F0B0FA80F040F04000B5EB501F01D1BB
:1013300030680BE097FAA7F0B0FA80F040F0400078
:10134000B7EB501F01D1306A00E0706A97FAA7F13D
:10135000B1FA81F101F01F0205FA02F10842D8D07A
:1013600033E0FFE7FFF75AFC814605E0FFF756FC44
:10137000A0EB090159451CD897FAA7F0B0FA80F004
:1013800040F04000B5EB501F08D105E000100240CE
:10139000000042420070004030680CE097FAA7F06D
:1013A000B0FA80F040F04000B7EB501F02D1306A35
:1013B00001E08AE0706A97FAA7F1B1FA81F101F0D1
:1013C0001F0205FA02F10842D0D1E06998B37168B2
:1013D000C1F38101022972D002284FF080714FF0D1
:1013E000007B50460AD091FAA1F1B1FA81F148F898
:1013F0002100FFF713FC04465F4669E08A4691FA34
:10140000A1F1B1FA81F1C14648F82100FFF706FCCD
:10141000A84607465D4604E0FFF700FCC01B022813
:1014200053D895FAA5F0B0FA80F040F020004009BA
:1014300002D0306801E060E0706A95FAA5F1B1FA77
:1014400081F101F01F0208FA02F10842E4D1206A9A
:10145000B0F5803F05D17068A16820F400300843E2
:101460007060D4E908010843716821F474110843DD
:1014700070609AFAAAF0B0FA80F0474649F82080E6
:10148000FFF7CCFB044604E0FFF7C8FB001B022873
:101490001BD895FAA5F0B0FA80F040F02000400982
:1014A00001D0306800E0706A95FAA5F1B1FA81F1D7
:1014B00001F01F0107FA01F10842E5D01DE01EE02E
:1014C000FFF7ACFB001B022802D90320BDE8F88F10
:1014D00097FAA7F0B0FA80F040F02000400901D060
:1014E000306800E0706A97FAA7F1B1FA81F101F073
:1014F0001F0105FA01F10842E2D10020E6E70120D0
:10150000E4E710B50446022084F839002068016A37
:1015100041F21112114207D1016A9210114203D116
:10152000016821F001010160204600F021F800204F
:1015300084F8390084F8380010BD10B5040003D0D9
:1015400094F8390010B107E0012010BD002084F8A4
:101550003800204600F00DF8022084F83900211DE3
:10156000206800F0E1F9012084F83900002010BD66
:1015700070477047022180F8391001680A6842F00C
:1015800001020A60012180F839100020704770B50F
:10159000044690F838000D4601280DD0012684F845
:1015A0003860022084F8390042B1042A18D0082A91
:1015B0002AD00C2A4DD139E0022070BD206800F0FD
:1015C000F1F92068816941F0080181612068816931
:1015D00021F004018161206881692A69114311E0C9
:1015E000206800F00BFA2068816941F40061816194
:1015F0002068816921F480618161206881692A699C
:1016000041EA0221816124E0206800F025FA206887
:10161000C16941F00801C1612068C16921F004017C
:10162000C1612068C1692A69114311E0206800F096
:101630003FFA2068C16941F40061C1612068C16955
:1016400021F48061C1612068C1692A6941EA0221EF
:10165000C16184F83960002084F8380070BD10B58D
:101660000446022084F839002068016A41F2111210
:10167000114207D1016A9210114203D1016821F091
:1016800001010160204600F021F8002084F83900B3
:1016900084F8380010BD10B5040003D094F8390068
:1016A00010B107E0012010BD002084F8380020466A
:1016B00000F00DF8022084F83900211D206800F0A8
:1016C00033F9012084F83900002010BD70477047BD
:1016D00010B504460068012200F058F90749206857
:1016E000884203D1416C41F40041416420680168A3
:1016F00041F001010160002010BD0000002C0140FC
:10170000EFF308840EF00F000D2801D1EFF30984E8
:10171000A08B04F12005800500D52D1D5FEACE6069
:1017200000D44835704602F05DF8EFF3098002F00E
:1017300059F8EFF3088002F055F8EFF3148002F047
:1017400051F8284602F04EF8606902F04BF8A069A3
:1017500002F048F8E06902F045F81248006802F02B
:1017600041F81048001F006802F03CF80D48001DC9
:10177000006802F037F80B481030006802F032F8C9
:1017800008480830006802F02DF806480C30006860
:1017900002F028F84A2204A1002001F0C5FE00F062
:1017A000B3F8FEE72CED00E02866696C65290000BF
:1017B0000020704700F01F02012191404009800085
:1017C00000F1E020C0F80011704700002DE9F04161
:1017D00017460D4680460026FFF724F9A80706D0D5
:1017E00000206E220DA101F09FFE00240DE00120DB
:1017F000F7E757F8242008EB840100230220FFF7C5
:10180000CFF808B1012603E0641CB4EB950FF0D3C8
:10181000FFF7BCF83046BDE8F08100002866696C2F
:101820006529000010B50B4CE16849B1206938B159
:101830002268B2FBF0F300FB132008B900208847B0
:101840002068401C2060A068002802D0A068401ECC
:10185000A06010BDDC020020144A10B55068144B83
:1018600010F00C01134803D0042901D0082901D03D
:10187000036012E05168536801F470114FF00204E4
:1018800013F4803F04EB914102D053689B0301D5D0
:10189000094B00E0064B594301605168074AC1F308
:1018A0000311515C0268CA40026010BD0010024082
:1018B00000127A00B802002000093D00F874000808
:1018C0000D48016841F00101016041680B4A114077
:1018D000416001680A4A11400160016821F48021D9
:1018E0000160416821F4FE0141604FF41F018160F5
:1018F0000449C00308607047001002400000FFF870
:10190000FFFFF6FE08ED00E0BFF34F8F04480168CB
:10191000044A01F4E06111430160BFF34F8FFEE719
:101920000CED00E00400FA05F0B50268144C154D0A
:10193000154E4FF08047A04205D0B84203D0A842D0
:1019400001D0B04203D122F070034A681A43A0428A
:1019500005D0B84203D0A84201D0B04203D122F44E
:101960004073CA681A4302608A68C2620A68826267
:10197000A04201D10969016301214161F0BD00006C
:10198000002C0140000400400008004010B5012375
:10199000046A8B409C430462036A8A4013430362D7
:1019A00010BD000030B5026A22F001020262036A33
:1019B0004268846924F073050C682C4323F0020507
:1019C0008B682B430C4DA84206D123F00805CB6849
:1019D00043EA050323F0040307D14D6922F4407262
:1019E00045EA02058A6942EA050242608461496863
:1019F0004163036230BD0000002C014030B5026A33
:101A000022F010020262026A436884690D6824F4BD
:101A1000E64444EA05248D6822F0200242EA0512D9
:101A20000C4DA84206D1CD6822F0800242EA051290
:101A300022F0400207D14D6923F4406343EA850355
:101A40008D6943EA8503436084614968816302626A
:101A500030BD0000002C014030B5026A22F48072D3
:101A60000262036A4268C46923F4007324F07305B8
:101A70000C682C438D6843EA05230C4DA84206D11F
:101A8000CD6823F4006343EA052323F4806307D180
:101A90004D6922F4405242EA05128D6942EA05126C
:101AA0004260C4614968C163036230BD002C0140DB
:101AB00030B5026A22F480520262036A4268C46945
:101AC0000D6824F4E64444EA05248D6823F40053A9
:101AD00043EA0533064DA84204D14D6922F4804201
:101AE00042EA85124260C46149680164036230BD04
:101AF000002C014070B515480468154DA00612D59C
:101B00002868C6B2134801F06FFD132804D9314686
:101B1000104801F0BDFD06E005D14FF013020EA103
:101B20000C4801F0E5FD200607D5104801F06DFDD9
:101B300020B10E4801F07CFD286070BD04480830DB
:101B400001680B4A1140016070BD00000044004074
:101B500004440040B81D00203C4441504C696E6B69
:101B60003A4F766572666C6F773E0A00A81B0020BC
:101B70007FFFFFEF00B50346FEF7E0FD43F23001C3
:101B800018465DF804EBFEF7EDBD0000F0B5827875
:101B9000224D4179047902F00F0344EA012116062F
:101BA0006F682C8802F00F0207EB021204D5491C63
:101BB00021F00101146011E094603E2909D91F3120
:101BC00021F01F014FF0FF3404EB411444F40044B2
:101BD00003E0491C21F001014C02D4602A880A4428
:101BE0002A80C07810F0030006D0012807D0022810
:101BF00008D003280AD107E04FF4007106E04FF443
:101C0000806103E0002101E04FF4C061044A194300
:101C100002EB8300C0F8001CF0BD0000C8020020E9
:101C200000500040002802D10149B02008807047D0
:101C3000C80200200949CA1350B1012008600020E1
:101C400008600B1D18604FF4E0500860044803E082
:101C5000032008600248001F02607047405C00409B
:101C60001408014010B50B4C0B48A2880078824242
:101C700000D902461AB9074900201439087180209A
:101C8000216801F0C7FB216801442160A188081A7E
:101C9000A08010BD080300200B75000810B5064C8D
:101CA0000020A288216801F033F8216801442160F6
:101CB000A188081AA08010BD0803002070470021E9
:101CC000FEF750BD43F22001FEF74CBD2DE9F04771
:101CD0006E4F0446A7F1080580074FF00009A5F1F3
:101CE000140622D501F060FB3878C009FFF7E6FF43
:101CF000F888A8803878C0F3411121B101295AD061
:101D000002296FD165E07978DFF884810C2969D2E6
:101D1000DFE801F0060C6813681827682B31384695
:101D200001F0EEF81FE0FFF79DFF67E0002005E0FF
:101D300001F04AFBD8F8000039E0012001F020F959
:101D4000C0B3F5E710F01F0F4CD1B878012140F077
:101D50008000307000F07F0001F018FB01F034FBD0
:101D60004CE001F003F828B3DDE710F01F0F39D184
:101D700046481B3812E001F053F9D8B101F024FBBA
:101D8000444813E000F01F0001282BD1707888B17F
:101D90003879B178884225D23F4908442860C2E7A3
:101DA00001F004FA30B101F00FFB3C48006828B3A1
:101DB000804723E016E010F01F0013D0012811D156
:101DC00000F074F8D0B900F073F8B8B900F06CF80E
:101DD00007E010F01F0F05D100F09EF870B900F079
:101DE0009DF858B93878000603D4F88808B1002067
:101DF00000E0802001F0D4FAA5F80490600721D516
:101E0000387800061CD4A888E0B1FFF747FFA888FF
:101E1000C0B93878C0F3411161B101290AD110F07D
:101E20001F0007D0012805D100F03CF850B900F0A0
:101E300037F838B9802001F0B3FAA5F8049001E032
:101E400001F0C8FA200712D53878000606D5A88810
:101E5000317908430BD0FFF705FF08E03078010621
:101E600005D500F07F003070002101F08FFA600688
:101E700002D50020FFF77EFE200604D5BDE8F0471E
:101E80008020FFF777BEBDE8F08700001003002038
:101E90007075000868750008C60200206C7500089F
:101EA00000207047002070470020704700207047D6
:101EB00010B51548154A01791278914222D1014690
:101EC0004278C8788B788C7943EA0020CB79FE2A57
:101ED00044EA032109D0FF2A14D198B991B900F03E
:101EE0005DFE78B101F070FA0AE058B9012909D114
:101EF00000F038FB30B1074905480860FFF7B2FE33
:101F0000012010BD002010BD10030020C5020020DC
:101F10009020002008030020002070470020704718
:101F20002DE9F041EFF3108010F0010F72B6DFF8E9
:101F3000E8804FF00002D8F81040C8F8102000D117
:101F400062B6600507D501F0CBF904F0DFF933483C
:101F5000006800B18047200505D501F045FA3048FA
:101F6000006800B18047E00405D501F049FA2D482A
:101F7000006800B18047A00503D52B48006800B178
:101F800080472A4D600403D5296809B1022088479B
:101F9000274FA0042BD5296849B3012026E0EFF391
:101FA000108010F0010F72B622484FF0070250F86F
:101FB000210001F10101B1FBF2F602FB1611C8F894
:101FC000081000D162B686B2050C280604D557F871
:101FD000261009B108208847280408D557F826108C
:101FE00029B1280501D5022000E0042088472004FB
:101FF0000FD5EFF3108000F0010272B6D8E902109D
:10200000814201D1012000E0002002B962B600281F
:10201000C5D0BDE8F0810000C8020020147500089A
:10202000187500081C750008207500082475000844
:102030002875000810210020064810B5C16941F438
:102040000001C1611420FFF7B5FB03494FF40040C4
:10205000086010BD001002401008014070B500F08B
:102060000FF900282AD016480224164E0470447036
:1020700003203463307014480546FEF7CFFA022877
:1020800008D9114920461F39FEF7D3FA29462046C0
:10209000FEF7CFFA0D4822460949007840F080004B
:1020A00001F0B8F92846FEF7B9FA316B401A294613
:1020B000FEF7BFFA044901200839087370BD00001B
:1020C000D020002018030020E02100200C7500081B
:1020D000114910B50878022808D0032810D0042828
:1020E00012D0052801D10020087010BD0B48C07B1C
:1020F000282801D0A828F8D1BDE8104000F076BA11
:10210000BDE8104000F088BD0548007840F0800030
:1021100000F09CFDF4E7000018030020B921002026
:102120000C7500081F4A10B51178B1B301290ED003
:102130001D48052900781BD0072929D000F086FD0D
:102140001A4902200873BDE8104000F065BD174829
:102150001F38C07B2A2803D02F2805D0AA2820D1D9
:10216000BDE8104000F020BBBDE8104000F0ACBA64
:10217000012181400E480068014201D0012000E0A9
:102180000020BDE810404FF488620AA101F0CCB9EC
:1021900000201070106B1F2803D1BDE8104000F024
:1021A000DBB810BD180300200D750008D8210020F1
:1021B000000300202866696C6529000010B5134CE7
:1021C0006068E06008B1012010BD1148FEF726FAF2
:1021D000A0B10F480838007B000604D50D480078F0
:1021E00040F0800008E00A481F30FEF717FA216B24
:1021F000884203D00848007800F028FD04490120F7
:102200001731087300F008FD002010BD18030020EE
:10221000C12100200C7500080D750008134810B589
:10222000007900F08F01080605D501F00F004FF48A
:102230008032824001E001228A400D48007840F05F
:1022400080048C4210D10B48006810420CD00A4820
:10225000FEF7E4F90949884206D12046BDE810405E
:102260000D22054901F0D6B810BD00001003002072
:102270000C75000800030020D8210020555342535C
:1022800070B50B48FEF7CAF9094C0225173440B166
:10229000A4F11F00007B000608D40648007800F077
:1022A000D5FC257300F0B8FC002070BD012070BD86
:1022B000C12100200D75000870B51148FEF7AEF978
:1022C000104C216B884202D82063032000E00420D8
:1022D00020700D480D49226B007840F0800001F01D
:1022E00099F807481F300546FEF798F9216B401A08
:1022F0002946FEF79EF9024900201731087370BD88
:10230000C1210020180300200C750008D0200020F7
:10231000064810B5028807480549007800F0F8FC27
:1023200005490863BDE81040FFF7FCBE12750008C0
:10233000D02000200D7500081803002010B50446B9
:10234000400702D50020FFF7E3FF200703D5BDE8D3
:102350001040FFF7BDBE10BD2DE9F05F7A4E326B25
:102360001F2A01D2134600E01F230020774D784931
:1023700002E00C5C2C54401C9842FAD3DFF8D88160
:102380000127DFF8D0A198F800001F2A40F0800B49
:1023900069D16E48FEF742F97049884263D1281D21
:1023A000FEF73CF9694C1F34211DFEF742F9A4F1F8
:1023B0001700FEF733F904F10801FEF73AF9687BDC
:1023C00018B9A87B08B1102801D9277389E0E87BE8
:1023D0004FF002092A283ED022DC1A2850D00FDC08
:1023E0000428F2D006DCE8B30328EED1BDE8F05FA4
:1023F00000F092BB1228E8D1BDE8F05F00F0BAB857
:10240000232845D007DC1B2836D01E28DDD1BDE8A7
:10241000F05F00F0DDB825283ED02828D5D147E070
:102420009E2841D00FDC5528CFD004DC2F2853D074
:102430003528CAD103E05A2826D09128C5D1BDE855
:10244000F05F00F033BCA1282AD0A3285CD0A828D4
:102450002ED0AA28B9D100F09BFA002806D0287BFC
:10246000000601E004E053E049D43770BDE8F09F76
:10247000BDE8F05F00F022BCBDE8F05F00F0FCBBFF
:10248000BDE8F05F00F054BABDE8F05F00F01CBAA0
:10249000BDE8F05F00F002BBBDE8F05F00F0D6BA27
:1024A000BDE8F05FFFF7DABDBDE8F05F00F088BB84
:1024B00000F06EFA0028D9D0287B000605D586F8F2
:1024C0000090BDE8F05F00F091B89AF8000000F0CD
:1024D000BDFB84F80C9004E0287C800705D4002024
:1024E0002073BDE8F05F00F097BB00F051FA0028C0
:1024F000BCD0287B000602D437703762B6E798F864
:10250000000040F08000E2E7584600F09FFB5CE7E7
:102510004446584600F09AFB2078114C00F00F0119
:102520004FF48030884021685546084320609AF86F
:10253000000000F08BFB28788740206807430620C6
:102540002760307092E7000018030020B9210020B6
:10255000D02000200D7500080C750008555342432B
:102560000403002002490020087001207047000089
:102570009020002010B5FFF783FE002820D0114BDB
:10258000002080211870597002219970D970202480
:102590001C7158719871D8710B48016808200A782D
:1025A00012B11A54491C00E01C54401CC0B224282B
:1025B000F5D3064924200863BDE81040FFF77CBE30
:1025C00010BD0000D0200020C00200201803002011
:1025D0000548C07CC107044800F11F0000D001215C
:1025E000017300F019BB0000B92100202DE9F04172
:1025F000304D314FDFF8C480A969686A00268842EF
:102600000AD33878002440F0800000F01FFB88F8DF
:102610000C6000F001FB08E02A492948097830F8ED
:102620001140E86A844200D30446FFF7C7FD00B9B1
:102630000024A86A68B374B1A96AE8692246014413
:10264000387840F0800000F0E5FEA86A2044A862D7
:10265000E86A001BE862D5E90410AA6A4143914286
:1026600003D1AE62696A08446862144808300746BC
:10267000FDF7D4FF001B3946FDF7DBFF002C06D029
:10268000E86A002803D10320287088F80C60BDE8B0
:10269000F081002CDFD0E96A28690144491EB1FBB2
:1026A000F0F26869824200D90246E969686A03F07B
:1026B000E5FDC1E7180300200C750008D8210020B3
:1026C0000E750008F70200202DE9F041324EDFF8C8
:1026D000CC800025B169706A884208D330483563E0
:1026E000007800F0B3FA88F80C5000F095FAFFF784
:1026F00065FD20B1306B10B3B06A10B10FE03563E7
:102700001DE0F16A30690144491EB1FBF0F27069C5
:10271000824200D90246F169706A03F0AFFD0020E1
:10272000204A336BB16A08E0F7690C183C5D175C0E
:10273000BC4201D0356202E0401C9842F4D3346BB5
:10274000B06A0119B162F06A071BF762D6E904208A
:1027500042438A4203D1B562716A084470620F48ED
:1027600008300546FDF75AFF001B2946FDF761FFBB
:10277000002C0ED017B1307805280AD1306A30B15C
:10278000002088F80C00BDE8F04100F045BA0120B7
:10279000F7E7BDE8F081000018030020D8210020F1
:1027A0000D750008D02000202DE9F041DFF80081F0
:1027B000404F0026D8F81810D8F82400884208D3D3
:1027C0003D48C8F83060007800F040FA3E7300F0F1
:1027D00023FAFFF7F3FC08B9C8F83060D8F83010D6
:1027E000D8F828000844D8F81010884206D9BDE867
:1027F000F041FF2231A1002000F096BE00203149B7
:1028000007E0D8F82830D8F81C400A5C0344401C84
:10281000E254D8F830209042F3D3D8F828001100C1
:102820000844C8F82800D8F82C20A2EB0102C8F808
:102830002C2022D0454692B988B129690844401E0F
:10284000B0FBF1F46869844200D904462246E96984
:10285000686A03F02DFDAE62686A20440CE0D5E999
:1028600004125143814208D1E969686A03F020FDEE
:10287000AE626969686A084468620E4808300546B5
:10288000FDF7CCFED8F830402946001BFDF7D1FEFD
:10289000002C0BD0D8F82C0018B198F800000528AF
:1028A00004D13E73BDE8F04100F0B6B9BDE8F08157
:1028B00018030020D82100200D7500082866696CD7
:1028C00065290000D020002070B5FFF7D9FC002852
:1028D00026D0FFF773FC002822D0124800210622E0
:1028E0000170114B427081701A7A0824D201C270B3
:1028F000017141718171C1710C481C630546FDF77E
:102900008DFE082808D9094920461F39FDF791FE98
:1029100029462046FDF78DFEBDE87040FFF7CCBC90
:1029200070BD0000D020002018030020E02100200E
:1029300070B5FFF7A5FC002822D0FFF73FFC002868
:102940001ED010480321002201700F494270042458
:102950000B7ADB018370C2700C480C630546FDF7EF
:102960005DFE042808D9094920461F39FDF761FE9C
:1029700029462046FDF75DFEBDE87040FFF79CBC90
:1029800070BD0000D020002018030020E0210020AE
:102990002DE9F0412948FDF741FE284D00BA113DCF
:1029A00020F0FF04287D264E04430020C6E909409C
:1029B000E87B2F280AD004DC28280BD02A281CD139
:1029C00004E0A82810D0AA2817D109E0FFF7F6FBE9
:1029D00000282FD0E87DA97D41EA002044BA0CE010
:1029E000FFF7ECFB002825D01448001DFDF716FE6C
:1029F00000BA20F0FF04287E0443306944430F48A6
:102A0000F4620938FDF70AFE0C4F01260E3768B153
:102A1000A04211D0287B000604D50A48007840F077
:102A2000800001E00848007800F010F93E7300F0E3
:102A3000F3F80020BDE8F0810120FBE7CA21002067
:102A4000180300200C7500080D75000810B5FFF77D
:102A500017FC00281CD0FFF7B1FB002818D00D4A46
:102A60000D489169491E0B0E03700B0C43700B0A45
:102A70008370C17011690B0E03710B0C43710B0A4B
:102A80008371C17108201063BDE81040FFF714BCCA
:102A900010BD000018030020D020002070B5FFF703
:102AA000EFFB002830D0FFF789FB00282CD0174817
:102AB0000021174A0170417081700821C17091692D
:102AC0000C240B0E03710B0C43710B0A8371C17143
:102AD0000221017211690B0C43720B0A8372C172DD
:102AE0000C4814630546FDF799FD0C2808D90949DF
:102AF00020461F39FDF79DFD29462046FDF799FD2B
:102B0000BDE87040FFF7D8BB70BD0000D0200020AA
:102B100018030020E021002010B5FFF7B1FB0028CA
:102B200035D01B4870211B4B017000214170DC68BF
:102B30005A6832EA040406D00624847028240473F8
:102B40004173DA6008E0DAB1134A127BE2B1052280
:102B50008270202202734173C170017141718171D1
:102B60000A22C271017241728172C1728173C17392
:102B70000174417412201863BDE81040FFF79CBB3C
:102B8000022282703A22E5E781700173E3E710BD0B
:102B9000D020002018030020D8210020054910B5BE
:102BA000002008600449FDF744FD0449072008702F
:102BB000012010BD04030020D821002018030020AC
:102BC00070B5FFF75DFB00281DD00F4820220021C3
:102BD000027041700D4CC1770320226320700C48B5
:102BE0000949007840F0800000F014FC09480546CF
:102BF000FDF714FD216B401A2946FDF71AFD054922
:102C000001200839087370BDD0200020180300206F
:102C10000C750008E021002010B508490848FDF7B0
:102C200008FD08480D220549007840F0800000F0BA
:102C3000F1FB05490520087010BD0000D8210020D7
:102C4000555342530C7500081803002010B5044674
:102C500000F0A6FB200605D504F00F014FF48030EC
:102C6000884001E00120A04002490A681043086042
:102C700010BD0000000300200A4810B5817C00F15F
:102C80001F0429B101202073BDE81040FFF7C4BF25
:102C9000C07C054900F00100486003F007FB0020FC
:102CA000F1E70000B92100201803002002490020AC
:102CB0000873FFF7B1BF0000D821002010B51048FD
:102CC000FDF7ACFC0E4C173478B1A4F11F00007B6B
:102CD000000604D50B48007840F0800001E00A4867
:102CE0000078FFF7B3FF012004E0FFF767FA002840
:102CF00005D000202073BDE81040FFF78DBF10BD48
:102D0000C12100200C7500080D75000870470000F7
:102D100070B5134B064600F00F005B68114C03EBD7
:102D200000108368808904EB4304C0F309059542D1
:102D300000D9154600236A1C07E034F8040B01F89B
:102D4000010B000A01F8010B5B1CB3EB520FF4D32B
:102D50004FF440513046FDF705FD284670BD000098
:102D6000C802002000600040FFF758BA2DE9FC417E
:102D7000574BA3F11C051878A3F1080410F01F00AD
:102D800002D001287BD18AE05249D878524E0A7885
:102D90004F49524F1C390628C97810D006DC01284B
:102DA00009D0022814D0032869D14FE007282DD07C
:102DB0000F2864D164E04A48206012206DE0002AA8
:102DC0005DD019B1474820600A2066E04648FAE71E
:102DD0000AB9012979D0022021B10097787000202A
:102DE0009B780CE000967070F9E700990A782AB198
:102DF000CA788E7846EA022211440091401C834230
:102E0000F3D100980178D1B3206042E0BAB3072033
:102E100021B10096707000209B780CE000977870CC
:102E2000F9E700990A782AB1CA788E7846EA022230
:102E300011440091401C8342F3D100980178F1B114
:102E40002060C278817841EA022026E0274800907D
:102E50009878032801D0002008E001F003FD0BE082
:102E600000990A780AB111440091401C9978814276
:102E7000F6D10098017811B1206000780DE024E0CF
:102E80001B48007800281ED01A4800902060017866
:102E9000D9B1C178827842EA0120019005E001A908
:102EA000684600F02BF800280DD0A18801988142D7
:102EB00008D9114980B2A0800978491E084201D181
:102EC000012028710120BDE8FC810020FBE7000003
:102ED0001003002009750008C81F0020C40200204C
:102EE0007475000887750008867500088A750008E3
:102EF0000A750008887500080B75000800207047E7
:102F000070B51D481C4C0078A4F1080410F01F0097
:102F10000AD0194AA4F11405184B697812790128CE
:102F200006D0022826D109E01348163820601FE099
:102F300001B3A87882421DD2002015E002F08F0074
:102F4000020605D500F00F064FF48032B24001E0D2
:102F50000122824009B900070CD1A868104209D0AB
:102F6000E868104000D001201870000A58702360F3
:102F7000012070BD002070BD1003002090200020B3
:102F800070B5264B024619461878498810F01F0084
:102F9000A3F11C0604D0012829D0022827D111E072
:102FA000012924D132B1012000F032FAF08840F03A
:102FB000020005E0002000F02BFAF08820F002006B
:102FC000F08029E0187900F08F04200605D504F080
:102FD0000F004FF48035854001E00125A540707851
:102FE00028B1200703D0B068284200D009B10020E2
:102FF00070BD2AB1204600F0D3F9F06828430AE0FA
:103000003069284208D12046FEF7B4FD2046FFF77C
:10301000ABFEF068A843F060012070BD10030020F3
:103020002DE9F05F5B480026017811F01F0F70D189
:10303000584F80781C3FB1464FF0010A4FF4803B57
:1030400000287CD0544801783846C07809B9012856
:103050005FD008B1514C6EE0514C6CE060780228B2
:1030600005D0042848D0052848D0072861D1494810
:103070006179807881423AD1787020794A49B87074
:103080000020484A098802E002F80090401C88426B
:10309000FAD30125B8460AFA05F0D8F80810084214
:1030A00002D02846FEF70BFED8F808100BFA05F000
:1030B000084203D045F08000FEF701FE6D1C102D84
:1030C000E9D34FF00110C8E902090120C8F81090B7
:1030D000FEF7A8FDE0794006B8F8060002D540F0FA
:1030E000010001E020F00100A8F8060021E0E078EE
:1030F000A17841EA00201DE0E6781AE0CEB9A07878
:1031000000F08F05280606D505F00F010BFA01F037
:1031100003E03AE013E00AFA05F0B96801432046FB
:10312000B960FEF733FD2846FEF7CCFD284600F0D7
:103130002BF920780444207800288FD120E04D46D8
:1031400087F8019001245E46B9680AFA04F0084243
:1031500002D02046FEF7B3FDB96806FA04F0084233
:1031600003D044F08000FEF7AAFD641C102CEBD3C2
:103170004FF00110C7E9020500203D61FEF752FD46
:10318000044879788078884202D00020BDE8F09F1A
:103190000120FBE71003002009750008C40200208D
:1031A000C81F0020C6020020BC0200202DE9F84FF5
:1031B000464800273E460078BA4600F01F00B94650
:1031C00001287DD141491C394878002877D000205A
:1031D00000903F4802780846C0780AB9012872D0AA
:1031E0008B4608B13B4C66E03B4C64E060780228BB
:1031F00005D004280DD005281DD0072859D16179A4
:103200009BF80100814254D0E078A17841EA002087
:1032100050E02E48A778E67801794FF00009B942CE
:1032200047D18078B04244D1012000902B4810F85B
:1032300007A0C6553DE025490879B84239D1A078A4
:1032400000F08F085FEA086005D508F00F004FF422
:103250008035854002E0012505FA08F58878B042FE
:1032600015D1DBF8081020462943CBF80810DBF80D
:103270000C10A943CBF80C10FEF788FC4046FEF773
:1032800021FD404600F080F849EA050911E0564565
:103290000FD119EA050F0CD1DBF808104046A943FD
:1032A000CBF80810DBF80C10A943CBF80C10FEF794
:1032B00006FD207804442078002897D1009800E08B
:1032C00001E0BDE8F88F0020F9E7000010030020BE
:1032D00009750008C4020020C81F0020C602002093
:1032E0004FF0E0214FF480100022C1F880011E4809
:1032F00002601E48006818B14FF40050410001E020
:103300000020014608431A490968002901D04FF4FA
:10331000007140EA010002D04FF4807101E04FF0EB
:10332000000140EA0100134940F41C4008601348C2
:1033300011494FF03003026048684FF0700203609B
:1033400082604FF0B0020A8048F2FF71C1600C4900
:103350004FF4485008600B494FF0800008604FF070
:103360001400FEF727BA0000445C004024750008F2
:1033700020750008405C0040C8020020505C0040FE
:10338000005C00404C5C0040FDF7D8B9002903D137
:10339000024940F080000860704700004C5C00402B
:1033A00041F21001FDF7DEB9082202490020FFF7C3
:1033B000AFBC00001003002002484FF40071806889
:1033C00001F005BCF401002000221146802000F02D
:1033D00021B800000248034902780020FFF798BC9A
:1033E0000B750008902000200448016841F0080196
:1033F0000160016841F0040101607047405C0040D9
:103400000248016821F0080101607047405C0040FB
:1034100070470000F0B5174F154606467A6800F071
:103420000F0002EB0012144B126803EB420400235E
:103430006A1C08E091F801C011F802EB5B1C4EEA2F
:103440000C2C44F804CBB3EB520FF3D3796801EBA7
:1034500000114D60094901EB8000D0F8000CC0F369
:103460000110012803D030213046FDF77BF92846B2
:10347000F0BD0000C8020020006000400050004085
:103480002DE9F047244A1068244F20F01F013B69C2
:103490001943396100F4FE41C9431160DFF880909F
:1034A000000448F2800632D59046D8F800000104A6
:1034B0002DD510F00F0009EB8005D5F8004C07D191
:1034C000210405D5210503D479688989890515D09A
:1034D00064F31F4002F074F9200406D544EA0600A4
:1034E00040F68F710840C5F8000C2006DDD5344346
:1034F00048F60F700440C5F8004CD6E72106EDD51C
:10350000C4F30E0161F31F4002F05AF9E6E7BDE88B
:10351000F047FFF751BF0000445C0040C8020020A4
:1035200000500040002070472DE9F04116460F463C
:1035300000281AD1EFF3108000F0010572B60023C5
:103540001A461946184600F071F9040003D13146B5
:10355000384600F0C9F905B962B6002C05D1EFF381
:103560000380C00601D103F07FF9BDE8F0810000BF
:1035700010B528220D490E48FCF7CDFF03F038FAAC
:103580000C4803F02FFA03F093F80B490B4A0C4B4D
:1035900008604FF40071B0FBF1F01160094901229D
:1035A0001A60086009490848086010BD34710008B5
:1035B000E00F0020053D00084C03002028030020F8
:1035C0002C03002030030020E00D002034030020F5
:1035D000044841788078814201D001207047002062
:1035E000704700008402002030B50546EFF31080DC
:1035F00000F0010472B6284600F007F8A968081A1E
:10360000401E002C00D162B630BDEFF3108101F0F6
:10361000010372B6D0E900128A4201D3501A02E0C7
:1036200080681044401A002B00D162B67047000039
:1036300070B50446EFF3108000F0010572B6D4E9CE
:103640000001884201D0012000E0002043220EA1A9
:10365000FFF76AFFE16820680E5C401C2060A168EB
:1036600088420CD302D14FF0010001E04FF000007E
:103670004FF0480204A1FFF757FF0020206005B972
:1036800062B6304670BD00002866696C652900008E
:1036900070B50446EFF3108000F0010572B6626861
:1036A000E06881546068401C6060A16888420CD367
:1036B00002D14FF0010001E04FF000004FF0310265
:1036C00009A1FFF731FF00206060D4E900018842C2
:1036D00001D0012000E00020362203A1FFF724FFE3
:1036E000002D00D162B670BD2866696C65290000A6
:1036F0002DE9F04114460E460746FFF775FF844258
:1037000000D220460546002404E0315D3846FFF72C
:10371000BFFF641CAC42F8D32846BDE8F08100F03E
:10372000D5BB00F0D3BB00207047012070470020BC
:10373000704700002DE9F0418D212748FCF725FF57
:103740008D252648FCF76AFF254F244C224EB842AF
:1037500013D16079217941EA00258D2D01D22A46C5
:1037600001E04FF08D0201D84FF08D051B491A483A
:10377000FCF701FE002086F847008D211748FCF772
:1037800004FF16493846FCF754FF2571280A60717A
:1037900041223546F11DE01DFCF7EDFD95F849008D
:1037A00015F8481F41EA002004F8480F000A60702D
:1037B000A878A070E878E0708200074907484C318B
:1037C0004C30FCF7D8FD95F8440084F84400BDE87F
:1037D000F04100F0C3B800002C210020004F002071
:1037E000646C766B10B5094C94F84B10102901D31A
:1037F000002010BD04EB81014C31FCF71AFF14F8D6
:103800004B0F401CC0B2207010BD0000004F0020C4
:1038100010B5054C4121E01DFCF7B7FE002104F86E
:10382000481F6170E17010BD004F00202DE9F04786
:103830001A4F81461D4616468846F81DFCF725FDA1
:10384000441CB9F1000002D04146FCF79EFE002066
:1038500006B1308005B12870F87900281CD04445A5
:1038600002D8F91D224604E0A4EB0800C119424623
:10387000C91DB9F1000F06D097F8490097F84830F4
:1038800043EA0020308016B14846FCF774FD15B1BC
:1038900097F84A0028700120BDE8F087004F00200B
:1038A000014890F88C007047004F0020054991F8BE
:1038B0004B202AB101F14C02026091F84B00704795
:1038C00000207047004F002002488079002800D077
:1038D00001207047004F002002488079002800D066
:1038E000012070472C2100202DE9F0418846074631
:1038F000FCF7CBFC124D441C41263146E81DFCF779
:1039000044FE412C02D83946224602E0413CE119EE
:1039100032462C46E81DFCF72EFD84F848804FEA1D
:10392000182084F8490000F099F808B1012003E05C
:1039300000F096F800B1022084F84A00BDE8F0815A
:10394000004F0020014981F88C007047004F002093
:103950000149887170470000004F00207047704790
:10396000704770472DE9F0410F4606464FF0FF348F
:103970000025DFF83C8012E0705D082101F034FD85
:1039800084EA006408204146002C02DA81EA4404FB
:1039900000E06400401E10F0FF00F5D16D1CBD4238
:1039A000EADB2021204601F01FFDC043BDE8F08185
:1039B000B71DC1042DE9F0410E4617462021C04332
:1039C00001F012FD04460025DFF83C8012E0705D36
:1039D000082101F009FD84EA006408204146002C1A
:1039E00002DA81EA440400E06400401E10F0FF00A7
:1039F000F5D16D1CBD42EADB2021204601F0F4FC2C
:103A0000C043BDE8F0810000B71DC10470B5144685
:103A10000D460646B2F5806F07D24FF4EF720AA149
:103A20000020FFF781FD022070BD00F02DFC08B1E1
:103A3000102070BD2A462146304600F033FD002894
:103A4000F7D01F2070BD00002866696C6529000052
:103A5000C10600F00F0000D4093070470120704704
:103A60000020704710B500231A4600F051FA0028D4
:103A700000D0012010BD10B502F03CFD012800D09F
:103A8000002010BD2DE9F041164E144C144D307835
:103A9000012806D04FF49C7213A10020FFF744FDCB
:103AA00009E0B078022748B14FF49F720EA10020C0
:103AB000FFF73AFD37700220BDE8F081204600F0A4
:103AC00017F810B137702120F6E704F58064AC4296
:103AD000F4D30120B0700020EEE7000000C0000821
:103AE00000FC0108600200202866696C652900005E
:103AF0002DE9F0412A4E04463078012806D04FF4D3
:103B0000807228A10020FFF70FFD19E04FF48068B4
:103B10004046B4FBF0F108FB1141022511B14FF40E
:103B2000847208E0F17871B1D6E902121144A14221
:103B300009D040F20F121BA10020FFF7F5FC3570F1
:103B40000220BDE8F0811949B4F1006F01D38C4225
:103B500023D30121F170164FC6E902481548BC4233
:103B600001D3844201D322200CE0FFF779FF01004A
:103B70004FF0250006D039468C4203D142463846E4
:103B8000FFF744FF252803D00028DAD03570D8E7A6
:103B9000204600F079FB0028D3D035702020D0E7F4
:103BA000600200202866696C6529000000BC0008DE
:103BB00000C0000800FC01084FF48060704700005E
:103BC00010B5272804D2064951F82000002805D155
:103BD000ED2204A10020FFF7A7FC04A010BD000007
:103BE000587000082866696C652900000000000014
:103BF00001460120272901D20148405C704700009E
:103C0000A80100202DE9F04789460446804600E0DF
:103C1000641C2078402802D00028F9D163E0607845
:103C2000622847D012DC522853D008DC422841D009
:103C3000442848D0482840D04D2817D133E0542894
:103C40003ED0552832D0562810D13FE0722840D0BF
:103C500006DC642837D068282FD06D2806D122E0F2
:103C600074282DD0752821D076282FD020A5204665
:103C7000FCF70BFB07462846FCF707FB0646A01996
:103C8000C11908EB0902891E91422BD2BA1EA11C50
:103C9000FCF7DCFB324629462046FCF76CFB20781B
:103CA0000028B6D11FE000F0D1FD01E000F0D6FD04
:103CB0000546DCE700F074FDFAE700F0A3FDF7E746
:103CC00000F0C8FDF4E700F099FDF1E700F0CEFD4B
:103CD000EEE7094890F82A0010B1074D2A35C6E7EB
:103CE000064DC4E73C44A4EB0800BDE8F0870000A3
:103CF0004552524F52000000D26F00088C7E0008DF
:103D0000704700002DE9F0411E4615460C46074657
:103D100002F01CFF2C4890F8201003290FD0022C31
:103D20000FD004B3012C0AD10168A94207D190F841
:103D30002210A9B300214A1E016082608161BDE8A2
:103D4000F0810068A842FAD1304602F08DFC0446AA
:103D5000304602F08DFC0646384601F0C7FD0346AA
:103D60002246314617E0384601F0C0FD0328E6D070
:103D7000304602F077FC8007E1D4384601F0B6FD0A
:103D80000746304602F070FC0446304602F070FCF4
:103D900001463B4622462846BDE8F04101F018BFE7
:103DA00028220A490848FCF7B6FB01F003FE084840
:103DB0008178012903D14178022900D18170BDE8C1
:103DC000F04101F0FFBD0000E00F00203471000859
:103DD000840200202DE9F0411D4E0446174696F856
:103DE00022008846550260B92946404601F050FD40
:103DF000032802D0214601F0AFFE96F822000028E9
:103E00000FD07068A0420CD8F068A0420BD008D93F
:103E10003069401C00D134613069A04200D20446B0
:103E20003461BDE8F081F0692A461044F061E01980
:103E3000F06096F8230020B1BDE8F041002001F0C9
:103E400001BF41462046BDE8F04101F041BE0000FF
:103E5000E00F0020F0B518A185B009680491027840
:103E6000002104AB5C5C944224D0491C0329F9D3A3
:103E700012A1002291E878006F46815C8DE87800FD
:103E8000A1F1610CBCF1190F14D9202901D2052927
:103E900010D14FF0000C17F80CE08E450AD00CF151
:103EA000010CBCF1100FF6D3521C0B2AE5D30120F4
:103EB00005B0F0BD0020FBE7E5002000222A2B2CF6
:103EC0002E2F3A3B3C3D3E3F5B5C5D7C70B50D4D1B
:103ED00000202C7874B100212970A97809B100F074
:103EE000ADFA022C05D06978032902D0002800D150
:103EF000242070BD4FF4A27203A10020FFF714FB31
:103F0000022070BD300200202866696C652900001F
:103F1000FEB51C460546302901D3012000E00020F3
:103F2000422215A1FFF700FB0C2205F12001684693
:103F3000FCF721FA124E0CB900203071114901989A
:103F400088420BD110490098884201D10220FEBD61
:103F50000D49FC3988420CD10120FEBD284602F0F3
:103F600065FA18B11CB90120307100E00CB10320D2
:103F7000FEBD0020FEBD00002866696C65290000BA
:103F800030020020089996978F9E939B2DE9FF5F42
:103F90004FF00004DDF838905FEA030893460746C7
:103FA000254613D05FEA090010D00020C8F80000B1
:103FB0000646C9F80000FFF751FDDFF8CCA088B134
:103FC0003248022F04D0032F0AD042E06C2254E082
:103FD000BBF1000F04D00199814201D01B2439E0CC
:103FE000064612E0FFF73CFD90B3012F02D0032FED
:103FF0000ED02EE04FF00061BBF1000F04D001980D
:10400000884201D01A2425E00E46DAF8005021E05B
:104010001F48FCF703FBD8B100F10C0506E005F1E1
:104020000800FCF7FBFA01280DD014352846FCF7F0
:10403000F5FA0028F3D1281DFCF7F0FA0028EED19C
:104040001448056806E02846FCF7E8FA0646F7E754
:10405000FFE71C24FFF769FB08B9012F04D02CB13E
:10406000204604B0BDE8F09F1C24F9E725B1C8F84C
:104070000060C9F80050F3E7AE2207A10020FFF767
:1040800053FA0220EDE700003071000800C000087C
:10409000E26F0008087100082866696C6529000055
:1040A0002DE9F0411C490646002548789046012834
:1040B00004D0022804D003282CD103E0174D22E0BD
:1040C000174D20E0087928B31648FCF7A7FA08B383
:1040D00000F10C040CE0B74209D8201DFCF79EFA51
:1040E000B04204D3201DFCF799FA05460AE01434C7
:1040F0002046FCF793FA0700EDD1201DFCF78EFA5D
:104100000028E8D135B106EB0800A84202D301200F
:10411000BDE8F0810020FBE73002002000BC000871
:1041200000FC0108E26F000810B50C4C207830B19B
:10413000BD220BA10020FFF7F7F9022010BDFF22DE
:1041400030210948FCF719FA012020700020607026
:10415000A060E0602061A070E07010BD300200201F
:104160002866696C65290000640500202DE9FE4F72
:10417000414F0646894638781546012807D0D22295
:104180003EA10020FFF7D0F90220BDE8FE8FF878AD
:104190004FF0010A18B9FE603E6187F803A0B878B5
:1041A0004FF00308002853D139698E4201D1012014
:1041B00000E000202944396130B3B868C0F1300410
:1041C000AC4200D914462F49224608444946FCF720
:1041D000D2F8B8682D1B2044A1442644B86030288A
:1041E0002CD302D14FF0010001E04FF000004FF05E
:1041F000F40222A1FFF798F9D7E90212012321481E
:10420000FFF786FE787001E087F8018001A8009032
:1042100002AB01227878F968FFF7B8FEF0B9B878F8
:1042200040F20D1280F0010014A1FFF77DF9019812
:1042300000F0BCF890B987F802A001E0B87880B12E
:10424000D7E902200F4900F02BF838B9B87840B10F
:104250002A464946304600F023F810B187F800801E
:1042600093E72A4649463046FFF71AFF00288CD0CC
:1042700002203870132088E7300200202866696C1D
:10428000652900006405002010B5EFF3108101F0EE
:10429000010472B6FCF784FA002C00D162B610BD9E
:1042A0002DE9F0473D4E05460024707817468846B4
:1042B000012807D07C223AA10020FFF735F902201F
:1042C000BDE8F087F0784FF0020A50B9284601F0B7
:1042D000B3F9040002D086F801A05CE00120F07080
:1042E0007561B068B5FBF0F100FB11516A1A716994
:1042F000B1FBF0F300FB1310081A824204D02846E9
:1043000000F0DCF80400E6D13069B5FBF0F100FB09
:1043100011516A1A7169B1FBF0F300FB1310081A0E
:10432000824204D0284601F087F90400D3D1B14677
:104330004E46D6E901010844A84207D8284600F0B5
:10434000BDF8040002D089F801A024E00FB3D6E93B
:1043500003010844A84204D8284601F06DF904007E
:10436000F1D17068B168B146281A0E1AB74200D26E
:104370003E460D49324608444146FBF7FCFF36B144
:10438000002089F802003544B044BF1BD0E701206B
:10439000F7E7C9F81450204692E7000044020020D5
:1043A0002866696C652900009405002070B51F4DD2
:1043B0000446687808B1482226E024B3606810B348
:1043C000A06800B3E068F0B12069E0B16069D0B1E5
:1043D000A069C0B1E069B0B1FF224FF48061144818
:1043E000FCF7CBF80126AE700020E8706860A8608A
:1043F000E8602861C5E9050420688047040008D109
:10440000287838B110E04E220AA10020FFF78CF87E
:10441000022070BDA86900698047040004D0A86923
:1044200040688047204670BD6E70FBE74402002064
:10443000940500202866696C6529000070B5154C4C
:104440000025607810B1012807D00AE0CD2212A122
:104450000020FFF769F8022070BD002000F02EF860
:104460000546A069406880470646FF224FF48061F8
:104470000B48FCF782F80120A0700021E170616018
:10448000A160E1602161616161700EB1304670BD73
:10449000284670BD440200202866696C652900002A
:1044A0009405002010B5EFF3108303F0010472B6F9
:1044B000FDF78CF9002C00D162B610BD70B50E4E20
:1044C00005460024B07840B9B0690C498368D6E944
:1044D0000102984704460120B070FF220748B168E6
:1044E000FCF74BF8B068B5FBF0F100FB1150281A4F
:1044F0007060204670BD000044020020940500203A
:1045000010B50648FCF78AF828B100F5CE70FCF724
:1045100085F8002801D101480C3810BDE26F000871
:1045200010B50948FCF77AF830B190F8A11190F86D
:10453000A02152EA012005D103481038C1788278C1
:1045400042EA012010BD0000E26F0008034601228C
:104550000149002018470000081000200020704783
:104560000248006840F30000401C7047080C0140FE
:104570002DE9F043544885B0816941F0040181611F
:10458000816901F004010491816941F008018161B0
:10459000816901F008010491816941F01001816194
:1045A000816901F010010491816941F0200181616C
:1045B000816901F020010491816941F0010181616B
:1045C000816901F00101049140494A6822F0E062EA
:1045D00042F000724A60816941F0040181618069A2
:1045E0004FF4004600F004000490394806600124AE
:1045F000DFF8DC90CDE900640325A9F110096946D4
:1046000048460395FCF720FA0122570239464846EE
:10461000FCF7FEFACDE90074694648460395FCF7BD
:1046200013FADFF8B080012240214046FCF7F0FA8F
:104630004020CDE90004694603954046FCF704FAA2
:10464000012239464846FCF7E3FACDE90074694691
:1046500048460395FCF7F8F9012239464846FCF72D
:10466000D7FACDE90074694648460395FCF7ECF9A2
:10467000012211464046FCF7CBFA1120CDE900405B
:10468000694640460294FCF7DFF900223146404675
:10469000FCF7BEFACDE90064694640460395FCF795
:1046A000D3F9200200900220019003956946484604
:1046B000FCF7CAF900F0A6FA07480490401E0490DF
:1046C000FCD105B0BDE8F0830010024000000140BD
:1046D00010080140000C014040420F0028B10022A8
:1046E0004FF400710248FCF793BA0122F8E700008A
:1046F0000008014028B100224FF400710248FCF785
:1047000087BA0122F8E700000008014028B1002222
:104710004FF400710248FCF77BBA0122F8E7000071
:1047200000080140092800D927303030C0B2704756
:1047300010B513490020086012490860124908604A
:10474000124908604BF6FC314FF00060FFF70AF9A0
:104750000B4908600E490F48FFF704F90949086042
:104760004FF480610C48FFF7FDF8074908604FF4EB
:1047700080610A48FFF7F6F80449086010BD0000A0
:10478000D4010020D8010020DC010020E00100203D
:10479000FC3B010000C0000800BC000800FC010850
:1047A00000487047E40100200120C106064A096A5A
:1047B000914200D000204FF00061044A496A9142C2
:1047C00000D0002070470000939D939B0899969716
:1047D00000B5FFF7E9FF08B9002000BD4FF0006009
:1047E000806AFAE70148006870470000D4010020A1
:1047F0000148006870470000D80100200048704759
:10480000F003002000487047AE0300200120064955
:10481000064A096A914200D000200349044A496AC5
:10482000914200D00020704700C000088F9E939BEB
:104830000899969700B5FFF7E9FF08B9002000BD79
:104840000148806AFBE7000000C00008004870478C
:10485000A103002000487047CF03002000487047A4
:104860007003002000487047F9030020004870479B
:10487000EE01002010B5FFF75BFF054800F04AFD90
:1048800000F026FE00F07CFF00F04EFF10BD00009F
:104890005003002010B5124C207830B1632211A1D2
:1048A0000020FEF741FE022010BD002211461046F6
:1048B000FCF77EFF08B11D2010BD00206070A070C5
:1048C000E070A060E060207120616061A0614FF441
:1048D00080610648FBF759FE01202070002010BDC2
:1048E000600200202866696C652900009409002098
:1048F0002DE9F05FDFF8CCA00446304F9AF80000B5
:104900002F4D90468B46012808D04FF4BD722EA142
:104910000020FEF709FE0220BDE8F09FBC4201D353
:10492000AC4201D32220F7E7FFF79AF8A8B32E1B79
:10493000301F4146404501D90A4600E0321F594622
:10494000DAF81800FFF736F88146CAF81800204850
:10495000844208D21F49E01B084442465946FBF7EF
:104960000AFD0020D8E704EB0800A84223D10BEB96
:10497000060010F8015C001FFBF750FE65F31F6096
:104980005546814501D02620C6E75A464146204675
:10499000FFF788FD10B11F20BEE70CE04FF48062E6
:1049A0000C493846FFF732F80446FFF7C1FE0120F4
:1049B00068702046B0E72520AEE7000000C0000880
:1049C00000FC0108600200202866696C652900006F
:1049D00000C400089409002000F030FDFFF7C8FD76
:1049E000FEF7A8FEFFF7BCFDF8B9FFF7B7FDE0B989
:1049F00013480446FBF712FEB8B10C30FBF70EFE6D
:104A000001F014FD88B1FEF767FF70B92046FBF78F
:104A100005FE0C300446FBF701FE0A4908602046FB
:104A2000FBF7FCFD03C8FBF7CFFB00F0C0F800224A
:104A30001146054800F0D6F800F0BEF8FEE7000089
:104A4000E26F000808ED00E05D4A0008024901221B
:104A50000A70487070470000F40100200125FEF73D
:104A60003BFF10B1642000F09DF800F0B9F8434F0F
:104A7000B8600020FFF73EFE0020FFF72FFE28461B
:104A8000FFF744FEFFF7F6FE01F0D4FB012001F032
:104A900005FF002001F0CCFB4FF0000887F80380F1
:104AA0000120C7F80C80B87001460B2443464246EB
:104AB000334800F09CF8032100F09EF84FF0FF39D6
:104AC00040F2032A4A460021504600F087F886B299
:104AD000B00501D5FDF724FAF0072FD05A2001F0D8
:104AE000F5FEF878012806D1F86810B1401EF8608C
:104AF00001D187F80380B878F0B101280ED00328DF
:104B000014D004281AD1F878C0B90CB1641E15D19C
:104B1000002001F08DFB87F802800FE00CB1641ECD
:104B20000CD1012001F084FB032003E001F078FBAD
:104B300020B10220B87001E0FCF7E6FEB007C1D555
:104B400038780028BED07878012808D0022806D00E
:104B5000012587F800802846FFF7D8FDB2E7012D30
:104B600001D0012500E00025002DF4D00128F2D16C
:104B700087F8008087F80180EDE70000F40100204D
:104B80009D5A0008FFF7D0BA10B5044640F2011153
:104B9000FBF7FBFC00F03CFC00202070BDE810405F
:104BA000FFF7C2BA10B500F061FF002010BD10B5CC
:104BB00000F02CFF002010BD10B500F04DFF0020CC
:104BC00010BD00207047002070470020704710B5CE
:104BD0000C46084600F0FCFE204610BD00F002BF67
:104BE0000120704710B500F031FF012010BD10B555
:104BF00000F026FF012010BD10B5084600F000FFB0
:104C0000002010BD70B58EB00CA907A8FCF758F9AC
:104C10000B98B0F5005F05D0B0F5205F23D0B0F55C
:104C2000405F22D001202549274D00240968B1FBAF
:104C3000F0F02349B0FBF1F62248C5E90004761EE6
:104C4000C5E903642148AC606C61816941F400618D
:104C50008161806900F400600D902846FCF7FFFC3C
:104C600028B1532223E00220DDE70420DBE71648C9
:104C7000FCF711FD08B1592219E07020CDE90004BC
:104C80000294039404940594002269460E48069405
:104C9000FCF77DFC08B1662209E0296870084863CA
:104CA00000210948FCF714FD002804D06D2208A15A
:104CB0000020FEF739FC0EB070BD0000B8020020E5
:104CC00000127A00002C01400C1B00200010024052
:104CD0002866696C652900002DE9F84F8A460C9C0E
:104CE000054600EB0A08874E00202060F078DFF8C8
:104CF00018921F46934600281CD00020F07099F8A7
:104D0000002009F104011846FBF735FB99F8000073
:104D10002168074408442060706899F80220010C5B
:104D200099F80130090443EA0220014399F8000090
:104D300008447060DEE028780A2827D00D28FCD0CF
:104D40003A281BD03178002978D0FEF781FE00F098
:104D50000F02707819F800301A4309F80020401C3F
:104D6000C2B2727099F800000090401D824264D374
:104D7000654A0021084613785B1D0EE02521624834
:104D8000FBF703FC002030707070B070B1E012F8D7
:104D900000C0401C6144C9B2C0B28342F7D809B117
:104DA00004204CE0B078002847D10120B07099F879
:104DB000021099F8012042EA012149BA89F801104C
:104DC000090A89F8021099F8030030B1012836D099
:104DD00002284AD0042830D161E04B49252201F154
:104DE0002500FBF7C8FA706899F8022099F801309D
:104DF000010C090443EA02221143814203D001203D
:104E0000F07002201BE009F104013846009AFBF71C
:104E1000B2FA99F8000021680744084420607068DD
:104E200099F80220010C99F80130090443EA0220A4
:104E3000014399F800000844706056E04CE0814658
:104E400021680A98FF22411A3846FBF796FB206832
:104E50007168091A0B980160A8EB0501AAEB010122
:104E60004846CBF80010BDE8F88F21680A98FF2269
:104E7000411A3846FBF781FB20687168091A0B98C4
:104E80000160A8EB0501AAEB0101CBF8001099F82D
:104E9000041099F80500090341EA001019E021689F
:104EA0000A98FF22411A3846FBF767FB20687168B1
:104EB000091A0B980160A8EB0501AAEB0101CBF8D8
:104EC000001099F8051099F8042042EA012040BA30
:104ED000000470600220C6E7717825290FD2FEF722
:104EE000B7FD7278010109F80210307838B100205E
:104EF00030706D1C45457FF41EAF00209FE70120F8
:104F0000F6E700007C020020940D00202DE9F05F00
:104F1000DFF800810446DFF8F89098F800001546A5
:104F20008B46012805D0A3223BA10020FEF7FCFA06
:104F30003FE04FF48060B4FBF0F300FB1343014605
:104F400002260BB1AC222EE00A46954204D3B5FBF3
:104F5000F0F302FB135008B1B32224E0B4FBF1F0EC
:104F600002FB10402844884201D9BA221BE098F87D
:104F7000020078B998F8030050B1D8F808008442CC
:104F800004D3D8F80C100844A04203D8C8220AE081
:104F9000C22208E098F8040070B1D8E9040108447E
:104FA000A04209D0D0221CA10020FEF7BDFA88F84B
:104FB00000600220BDE8F09F19486719844202D2C0
:104FC000B7F1006F17D84FF0010A88F804A02A46FD
:104FD00059462046C8E90445FFF78AFC252804D035
:104FE0000028E7D088F80060E4E75A4629462046C2
:104FF000FFF758FA18B188F800601F20DAE74F452C
:1050000003D3FFF795FB88F801A00020D2E700004A
:1050100000FC0108600200202866696C6529000018
:1050200000BC00084FF480607047000070B5144663
:105030000E46054620444FF48061B1EB402F07D265
:1050400040F265220AA10020FEF76EFA002070BD32
:105050004FF400713046FBF798FA35B90648074916
:10506000006942013046FBF786F9600270BD00001E
:105070002866696C652900009C0200200C1700203E
:1050800010B50B464FF4007408B1002010BD224645
:1050900002491846FBF76FF9204610BD4C1400205A
:1050A0002DE9F8430C4600210E46009110B1002076
:1050B000BDE8F883DFF8C88098F80000012845D0E3
:1050C000022845D0002720462EA101F065F90546AB
:1050D00060192FA101F060F9054460192E4901F013
:1050E0005BF9054460192DA101F056F905446019DA
:1050F0002BA101F051F905446019B8F8021001F034
:1051000054F90544601925A101F046F9054477B129
:10511000601925A101F040F905446019394601F0F4
:105120003BF9054460191DA101F036F905446846B4
:10513000FEF7BCFB070021D00098F8B160191DA153
:1051400001F02AF905444FF4007811E01CA7BAE7F2
:105150001EA7B8E7009850F82610761CF6B2601922
:1051600001F0F2F8054460190CA101F015F90544AD
:10517000BE4203D205F10A004045EBD3284697E72B
:10518000940200204173736572740D0A00000000E0
:1051900046696C653A200000081200200D0A0000E4
:1051A0004C696E653A200000536F757263653A2052
:1051B0000000000048657864756D70730D0A00008A
:1051C000426F6F746C6F6164657200004170706C47
:1051D00069636174696F6E000A4608B10020704708
:1051E0004FF40071104600F0EBBD00002DE9F047D0
:1051F0000D46044601F04AFB0646FEF7E1FC074671
:105200003046FEF7F5FC064614B10020BDE8F087F5
:1052100028461B4901F0C0F804462819394601F018
:10522000BBF80444281917A101F0B6F81449044446
:105230002819C91F01F0B0F8044400274FF00108F5
:10524000DFF8449013E0B8F1000F04D128190FA142
:1052500001F0A2F80444F00707D059F827102819E4
:1052600001F09AF804444FF0000876087F1C0EB154
:10527000052FE8D3281903A101F08EF82044C5E7D3
:10528000637100080D0A0000747200082C200000F1
:1052900070B50C4608B1002070BD4FF4007529466A
:1052A0002046FBF772F90748FAF7EFFF0246054977
:1052B0002046FBF760F829462046BDE87040FEF71F
:1052C000A1BC00006B7100082DE9F041084D0646B5
:1052D0000F462846FAF7D9FF044616B10020BDE86C
:1052E000F081024629463846FBF745F82046F6E7A6
:1052F000207E000810B50B464FF4007408B1002062
:1053000010BD224602491846FBF735F8204610BD6D
:105310004C12002006490B68091D0A68091D09681E
:105320000360C0E901214FF0A531C1607047000062
:10533000E8F7FF1F10B5084654022146FBF725F990
:10534000204610BD70B5244D4FF0FF346878A97821
:10535000884201D0012000E000204FF4FD721FA11F
:10536000FEF7E2F86878022803D0C0B101281AD00D
:1053700022E01C484FF4FA7490F82000E0B10128B4
:105380000AD0022818D0032816D04FF4037213A1B4
:105390000020FEF7C9F80FE044F620640CE0A8787E
:1053A000022808D008E0A878022801D018B103E04C
:1053B00040F6C41400E00024601C05D14FF40772CD
:1053C00006A1FEF7B1F80024A868A04201D9012087
:1053D00070BD002070BD0000840200202866696C4A
:1053E00065290000E00F002070B50346002002464A
:1053F000012609E0DC0704D08D1A6D1E06FA05F4BB
:1054000020435B08521CD2B28A42F3D370BD000025
:1054100010B525210748FBF7B8F8064825212530A7
:10542000FBF7B3F8044800214160017041708170BE
:10543000C17010BD940D00207C02002030B58FB0EB
:1054400014210AA8FBF7C3F828216846FBF7BFF828
:10545000FCF702FAFBF7FCFB01250024CDE90A5416
:1054600029460AA8FBF76CFC20B1412216A10020B6
:10547000FEF75AF84FF48030CDE90050022502942F
:10548000CDE907504FF4E01009906846FBF77CFD2A
:1054900020B14D220CA10020FEF746F80F20CDE9E7
:1054A0000A054FF48060CDE90C4002210AA80E9451
:1054B000FBF746FC002804D0582203A10020FEF789
:1054C00033F80FB030BD00002866696C6529000014
:1054D0002DE9F04100250024FFF722F806460521BA
:1054E0004C48FBF774F821214B48FBF74EF821217B
:1054F0004A48FBF74AF809214948FBF768F80521B3
:105500004448FBF764F800BF00BF0AE0454A52F880
:105510002510414A101900F017FF2044C4B2681C3E
:10552000C5B2042DF2DB00222146601CC4B23A4809
:105530004254002400250AE03B4A52F82510374A1D
:10554000101900F001FF2044C4B2681CC5B2042D3C
:10555000F2DB00222046611CCCB230490A54002400
:105560002F4908193149096800F0EEFE2044C4B201
:105570002046611CCCB22A4900220A54FEF7C0FF23
:105580000746042239462348FAF7F5FE2149002050
:1055900008710024300BFFF7C5F801462448224665
:1055A000641C8154C6F30320FFF7BCF80146204871
:1055B0002246641C8154C6F30310FFF7B3F801467A
:1055C0001B482246641C815406F00F00FFF7AAF81E
:1055D000014617482246641C815400222146641C5F
:1055E00042540024134830222146641C4254322283
:1055F0002146641C425435222146641C4254342204
:105600002146641C425400222146641C4254BDE8D9
:10561000F0810000E4010020AE030020CF03002051
:10562000F00300205003002060030020D001002080
:10563000E9010020EE0100202DE9F041364E074639
:10564000B0694169384688470546B069816938467E
:105650008847044635B12CB14FF4806845450AD8D7
:10566000012009E040F235122CA10020FDF75CFF7B
:105670000220BDE8F08100204FF49D7227A1FDF7C4
:1056800053FFB8FBF5F105FB118048B1002040F253
:105690003B1222A1FDF748FFAC4203D3012002E0F8
:1056A0000120F4E700204FF49E721CA1FDF73CFF9F
:1056B000B4FBF5F005FB1040C0B1002040F23D12F4
:1056C00016A1FDF731FFB7FBF4F004FB1070381A98
:1056D000C6E903047060444500D34446B460B16930
:1056E000096A29B1884704000AD101E00120E5E7F1
:1056F000307850B1B069C168F0688847040004D0C0
:10570000B069406880472046B3E7FF220548B1688A
:10571000FAF733FF0020ACE7440200202866696CEA
:10572000652900009405002070B50025002400269E
:105730001148FAF7AAFDC6B2022000EB4600C2B239
:105740000E482146641C425403222146641C4254E4
:1057500000BF0EE00848611C425D2046CCB20749FC
:105760000A5400222046611CCCB204490A54681C29
:10577000C5B2B542EEDB70BD70030020F903002016
:1057800010B531210948FAF722FF09490748FAF70D
:10579000E6FD08490548FAF7E2FD07490348FAF72C
:1057A000DEFD06490148FAF7DAFD10BD700300205E
:1057B000E4010020E9010020AE030020F0030020F6
:1057C00010B5EFF3108111F0010F72B6084C094BC0
:1057D000D96844F821004FF0070001F10101B1FB45
:1057E000F0F400FB1410D86000D162B610BD0000C8
:1057F00010210020C802002010B5094C207840B1CB
:1058000000F05EF86068C168064888470021217092
:1058100010BDC12204A10020FDF786FE022010BDAC
:1058200004020020600400202866696C65290000DD
:1058300070B5134C0546207808B1862202E0022D8F
:1058400006D38C220FA10020FDF76EFE022070BD52
:10585000FFF7C6F9A0604FF482710C48FAF7B7FE63
:105860000120207006480C3000EB05106060416894
:10587000064888470028EAD00321217070BD000047
:10588000040200202866696C65290000600400207D
:105890002DE9F041094D0E460746002405EB0410A2
:1058A000314602683846904710B12046BDE8F08185
:1058B000641CE4B2022CF1D30320F7E710020020AD
:1058C00010B5FFF78DF906498968884201D101209A
:1058D00000E00020BDE81040632202A1FDF724BED5
:1058E000040200202866696C6529000010B500F1EB
:1058F000080103220C4607A0FAF7E6FC002806D0B0
:105900000322214604A0FAF7DFFC08B1032010BDF2
:10591000012010BD42494E004845580070B5154D54
:1059200006460C462878012806D0A52212A10020A0
:10593000FDF7FAFD022070BDFFF7C2FF686822463E
:10594000314683680E4898470446132806D0142C25
:1059500006D02CB103202870204670BD0220FAE743
:105960002878012800D00020B32203A1FDF7DCFD38
:10597000F2E70000040200202866696C6529000037
:105980006004002010B5FFF72BF9074949688842E9
:1059900001D1012000E00020BDE810404FF4B572B5
:1059A00002A1FDF7C1BD0000840200202866696CD9
:1059B0006529000002480021C068FFF702B9000015
:1059C000840200200148C068FFF7FFB8840200206D
:1059D00072B603494A6802434A6062B670470000E3
:1059E000DC020020054903464A681342FCD048689F
:1059F00072B64A6882434A6062B67047DC02002091
:105A00000149086170470000DC02002009490020BC
:105A1000086048608860C860086148614FF0E02114
:105A2000054A4A61054BF02283F8142D886107204E
:105A300008617047DC0200207EFC0A000FE000E0F5
:105A40000149C86070470000DC020020014948613C
:105A500070470000DC02002003484169002901D0A2
:105A60000020084770470000DC02002002498860DF
:105A700088680028FCD17047DC02002002480078CA
:105A8000012800D00020704760020020884203D324
:105A9000904201D8012070470020704710B50B4C90
:105AA0000221A068FFF793F860680321B0FBF1F2D0
:105AB00001FB1201401C6060002905D1A068BDE80F
:105AC00010400121FFF783B810BD0000F401002051
:105AD0002DE9F0411E4C15460E4694F8230038B1CE
