:020000040800F2
:10C00000703400201DC3000825C30008DDEA0008C5
:10C0100029C300082BC300082DC30008000000003E
:10C020008F9E939B08999697FE00000031C20008EE
:10C0300031C3000816900108B9C2000809C30008FE
:10C0400037C3000837C3000837C3000837C30008E8
:10C0500037C3000837C3000837C3000837C30008D8
:10C0600037C3000837C3000837C3000837C30008C8
:10C0700037C3000837C3000837C3000837C30008B8
:10C0800037C3000837C3000837C3000837C30008A8
:10C09000DD27010837C3000837C3000837C300088D
:10C0A00037C3000837C3000837C3000837C3000888
:10C0B00037C3000837C3000837C3000837C3000878
:10C0C00037C3000837C3000837C3000837C3000868
:10C0D00037C3000837C300085901010837C30008F7
:10C0E00037C3000837C3000837C3000800F002F860
:10C0F00000F05AF80AA090E8000C82448344AAF1A8
:10C100000107DA4501D100F04FF8AFF2090EBAE8A5
:10C110000F0013F0010F18BFFB1A43F0010318477B
:10C1200040E4000060E400000A444FF0000C10F806
:10C13000013B13F0070408BF10F8014B1D1108BFA5
:10C1400010F8015B641E05D010F8016B641E01F845
:10C15000016BF9D113F0080F1EBF10F8014BAD1C95
:10C160000C1B09D16D1E58BF01F801CBFAD505E0B3
:10C1700014F8016B01F8016B6D1EF9D59142D6D30D
:10C18000704700000023002400250026103A28BF35
:10C1900078C1FBD8520728BF30C148BF0B60704739
:10C1A0001FB51FBD10B510BD00F03AFB1146FFF7DB
:10C1B000F7FF08F03DF900F058FB03B4FFF7F2FF7A
:10C1C00003BC00F05BFB000080F309887047EFF3CD
:10C1D00009807047684680F3098804480078C007E2
:10C1E00014BF0220032080F3148870476899010867
:10C1F000DFF818C0EFF305831B0618BF6047EFF3A5
:10C200001483DB0708BF604700DF704761530108F4
:10C21000DFF818C0EFF305831B0618BF6047EFF384
:10C220001483DB0708BF604700DF70476D550108C6
:10C23000EFF30980816911F8021C39BB90E80F10F7
:10C24000E047EFF3098C194B93E80600914218D0B0
:10C2500059B10CB44FF0010381F821302CE9F00FF3
:10C26000C1F824C009F016FC0CBC1A60D2F824C036
:10C27000BCE8F00F92F821308CF309881BB192F8DA
:10C280002000CCF800006FF0020E704710B5084A8D
:10C290001268914209D8074C54F8214090E80F10D9
:10C2A000A047EFF3098C8CE80F0010BDB404002008
:10C2B0008CC800088CC8000809F0D8FA114B93E824
:10C2C000060091421BD00CB44FF0000381F82130DE
:10C2D000EFF3098C2CE9F00FC1F824C009F0DAFB68
:10C2E0000CBC1A60D2F824C0BCE8F00F8CF30988AB
:10C2F00092F821301BB192F82030CCF800306FF06A
:10C30000020E7047B404002009F086FCD6E7000056
:10C3100008F0E2FA09F080FCD0E700000948804705
:10C3200009480047FEE7FEE7FEE7FEE7FEE7FEE717
:10C33000FEE7FEE7FEE7FEE704480549054A064B2F
:10C3400070470000B5FD0008EDC00008702E002009
:10C35000703400207030002070300020004870479A
:10C360000C2E0020B2F120030AD5C2F1200320FADE
:10C3700002F001FA03F321FA02F140EA03007047E8
:10C3800021FA03F04FF00001704740EA010310B5B5
:10C390009B070FD1042A0DD310C808C9121F9C4255
:10C3A000F8D020BA19BA884201D9012010BD4FF047
:10C3B000FF3010BD1AB1D30703D0521C07E0002094
:10C3C00010BD10F8013B11F8014B1B1B07D110F8F1
:10C3D000013B11F8014B1B1B01D1921EF1D11846F4
:10C3E00010BD10B5431C02E010F8011B71B18107AC
:10C3F000FAD14FF0013202C88C1A8C4314EAC211F0
:10C40000F9D0C01A0A0603D0C01E10BDC01A10BD54
:10C410000A0401D0801E10BD0902FCD0401E10BDD0
:10C4200040EA010370B59B072ED14FF00136042A74
:10C430002AD308C810C99D1B9D43121F15EAC615B3
:10C4400017D0D8B2E1B2401A50EA056110D198B2C3
:10C45000A1B2401A50EA05410AD123F07F4024F0EE
:10C460007F41401A50EA052102D1180EA0EB14605A
:10C4700070BDA342DBD018BA21BA884201D901208D
:10C4800070BD4FF0FF3070BD0AB9002070BD10F8CC
:10C49000013B11F8014B63B1A3420AD1521E08D0EF
:10C4A00010F8013B11F8014B1BB1A34201D1521E00
:10C4B000EDD1181B70BD421E12F8013F002BFBD1BD
:10C4C00011F8013B002B02F8013BF9D17047032A18
:10C4D00040F2568010F0030C00F0158011F8013B7B
:10C4E000BCF1020F624498BF11F801CB00F8013B88
:10C4F00038BF11F8013BA2F1040298BF00F801CB4C
:10C5000038BF00F8013B11F0030300F0B080121FA8
:10C51000C0F03680A1EB0301022BD1F800C000F07F
:10C52000118000F21E804FEA1C2351F804CF121F25
:10C5300043EA0C6340F8043BBFF4F5AF01F101019D
:10C5400000F01EB84FEA1C4351F804CF121F43EA13
:10C550000C4340F8043BBFF4F5AF01F1020100F0D9
:10C560000FB84FEA1C6351F804CF121F43EA0C23A3
:10C5700040F8043BBFF4F5AF01F10301AFF30080D5
:10C58000D20724BF11F8013B11F801CB48BF11F8C5
:10C59000012B24BF00F8013B00F801CB48BF00F895
:10C5A000012B7047431A28BF9A427FF690AF032AA7
:10C5B0001044114440F2498010F0030F1EBF11F8DF
:10C5C000013D521E00F8013D10F0030F7FF4F6AF5D
:10C5D00011F0030300F0FA80121FC0F03680A1EBC7
:10C5E0000301022BD1F800C0C0F0118000F21E80C0
:10C5F0004FEA0C4351F804CD121F43EA1C4340F8A4
:10C60000043DBFF4F5AF01F1020100F01EB84FEA9E
:10C610000C6351F804CD121F43EA1C2340F8043D7B
:10C62000BFF4F5AF01F1010100F00FB84FEA0C23A0
:10C6300051F804CD121F43EA1C6340F8043DBFF4D7
:10C64000F5AF01F10301AFF30080D20724BF11F869
:10C65000013D11F801CD48BF11F8012C24BF00F8AD
:10C66000013D00F801CD48BF00F8012C704710B51E
:10C67000203AC0F00B80B1E81850203AA0E81850DA
:10C68000B1E81850A0E81850BFF4F5AF5FEA027C9B
:10C6900024BFB1E81850A0E8185044BF18C918C00A
:10C6A000BDE810405FEA827C24BF51F8043B40F8AB
:10C6B000043B08BF7047D20728BF31F8023B48BF90
:10C6C00011F8012B28BF20F8023B48BF00F8012BCE
:10C6D000704702F0FF0343EA032242EA024200F0FD
:10C6E00002B84FF000020429C0F0128010F0030CD1
:10C6F00000F01B80CCF1040CBCF1020F18BF00F855
:10C70000012BA8BF20F8022BA1EB0C0100F00DB803
:10C710005FEAC17C24BF00F8012B00F8012B48BF61
:10C7200000F8012B70474FF0000200B51346944605
:10C730009646203922BFA0E80C50A0E80C50B1F179
:10C740002001BFF4F7AF090728BFA0E80C5048BF8D
:10C750000CC05DF804EB890028BF40F8042B08BF2B
:10C76000704748BF20F8022B11F0804F18BF00F827
:10C77000012B7047427801788378C07841EA022122
:10C7800041EA034141EA006070474FEA1022087015
:10C790004A704FEA10428A704FEA1062CA707047BE
:10C7A000704770477047431A28BF9A427FF65FAFC1
:10C7B000104410F0030F11441EBF11F8013D521E2A
:10C7C00000F8013D10F0030F7FF4F6AF103AC0F00F
:10C7D0000A8010B531E91850103A20E91850BFF41A
:10C7E000F9AFBDE81040530724BF31E9081020E934
:10C7F000081044BF51F8043D40F8043D12F0030F07
:10C8000008BF7047D20728BF31F8023D48BF11F872
:10C81000012C28BF20F8023D48BF00F8012C7047CA
:10C820007546FFF79BFDAE4605006946534620F06E
:10C830000700854618B020B5FFF77EFDBDE8204013
:10C840004FF000064FF000074FF000084FF0000BCC
:10C8500021F00701AC46ACE8C009ACE8C009ACE87F
:10C86000C009ACE8C0098D46704710B50446AFF367
:10C8700000802046BDE81040FFF79FBC014918200A
:10C88000ABBEFEE72600020070470000000000007B
:10C890002DE9F04704788A4604B90124244A244D3E
:10C8A00001262248571410354FF48048012C08D037
:10C8B000022C14D000248AF800404FF00110BDE88B
:10C8C000F08706700D219146104608F0F3F92F60AD
:10C8D0000E21484608F0EEF9C5F800801BE0022161
:10C8E00001700D219146104608F0E4F92F600E21E9
:10C8F000484608F0DFF9C5F800800E4F072138469A
:10C9000008F0D8F90B498020103108600122052178
:10C91000384608F07DF901220C21484608F078F9E4
:10C920000021484608F0F8F92E60C4E7E805002029
:10C93000000C0140000801402DE9F04102787F2AF7
:10C9400003D0BDE8F04100F087BA01F8012B44782C
:10C9500001F8014B861C0D464FF0021708E02946EE
:10C96000304600F079FA074406EB104680B20544E1
:10C97000641EF4D23846BDE8F08170B500240D463F
:10C9800006282BD006DC052828D2DFE800F0272770
:10C99000270C0F00F02816D0FD281FD0FE281AD033
:10C9A000FF281BD111E007F0CBFB01E007F0D0FB23
:10C9B0000646FFF716FD401CC4B222463146284603
:10C9C000FFF785FD0AE0132006E0402028700020D4
:10C9D0004870022402E0042008700124204670BD43
:10C9E0002DE9F04F87B00446059000208E1CCDE95C
:10C9F0000101C2490870C24A14F8011B0546D175ED
:10CA0000927D824691426FD214F8011B5FEA0109C0
:10CA10006AD014F801BB5FEACB7101D00B2100E0B2
:10CA20000A2188465FEA8B7171D5BAF1000F3AD0BE
:10CA3000B348454547890FD15FEACB600CD46946BE
:10CA4000584602F0BDFA02281CD17F1E03D3AB4921
:10CA500009780029F3D0FFE00A2D03D00A252846E3
:10CA600002F0CEF8DFF894A269460E2002F0A8FA90
:10CA7000022805D17F1E03D39AF800100029F3D0B5
:10CA80004FF0000A0128E6D1009906F8011B009931
:10CA9000090A06F8011B0099090C06F8021B009907
:10CAA000090E06F8011C5FEACB6152D5E7782046F3
:10CAB000FFF760FE67F31F60914F0490241DB88953
:10CAC00003904046454502D0054602F099F88C484F
:10CAD000DFF8288247890021584602F071FA0228BF
:10CAE00003D0012807D107E0DEE07F1E03D398F8CA
:10CAF00000100029EFD0AFE08148478969465846C9
:10CB000002F05EFA022803D0012818D107E040E0C5
:10CB10007F1E14D398F800100029EFD00FE0784959
:10CB2000009A09691140049A914208D00399491E5C
:10CB30000391491C03D098F800100029DCD07049FB
:10CB4000009A09691140049A91426ED040F0100099
:10CB50006BE0BAF1000F72D14046454502D0054660
:10CB600002F04EF86648DFF8948147890021584664
:10CB700002F026FA022802D001286DD106E07F1EBD
:10CB80006AD398F800100029F0D065E04FF0010A50
:10CB900055E0BAF1000F29D00A2D03D00A25284606
:10CBA00002F02EF85648478969460E2002F008FA2E
:10CBB000022802D001284FD107E07F1E791C4BD0FC
:10CBC0004E4909780029EFD046E0009806F8010B9D
:10CBD00000984FF0000A000A06F8010B0098000CBC
:10CBE00006F8020B0098000E06F8010CE7782046C4
:10CBF000FFF7C0FD67F31F60241D00905FEA8B61A3
:10CC000003D53F490861012019E04046454502D05F
:10CC1000054601F0F5FF3A48DFF8E08047896946AC
:10CC2000584602F0CDF9022802D0012814D106E0BE
:10CC30007F1E11D398F800100029F0D00CE0019964
:10CC4000491C01912D49097831B9A9F101015FEA27
:10CC500001097FF4DEAE0CE0B9F1000F09D014F841
:10CC6000011B8A0701D5C90600D5241DA9F10109B8
:10CC7000F2E7012834D10A2D02D00A2001F0C0FFCA
:10CC80001F481E4FBAF1000F45891ED069460E207D
:10CC900002F096F9022802D0012821D105E06D1E8C
:10CCA0001ED339780029F1D01AE0009906F8011B4B
:10CCB0000099090A06F8011B0099090C06F8021BE5
:10CCC0000099090E06F8011C0AE000210E2002F06E
:10CCD00077F9022804D16D1E02D339780029F4D0E7
:10CCE000DDE901121170029948700298311A059815
:10CCF00007B0201A41EA0040BDE8F08F0000002094
:10CD0000E80500202DE9F84F00258946CE1C504942
:10CD1000024628460D704F4F12F8011BF975BB7D76
:10CD2000994227D2517812F8023B53EA012421D0CC
:10CD300012F801AB90465FEACA7001D00B2000E008
:10CD40000A20834601F05CFF5FEA8A705ED54148A5
:10CD5000DFF8FC8047890021504602F031F90228B3
:10CD600002D0012868D131E07F1E65D398F8001009
:10CD70000029F0D060E03CB9BBF10A0F02D00A20D4
:10CD800001F03EFF4FF00E0A32484789694650468F
:10CD900002F016F9022802D001284DD106E07F1ECC
:10CDA0004AD398F800100029F0D045E0009906F821
:10CDB000011B0099090A06F8011B0099090C06F8E5
:10CDC000021B0099090E06F8011C6D1C641ED2D2CC
:10CDD00032E0404698F80370FFF7CCFC67F31F6021
:10CDE00000901C4808F1040847896946504602F043
:10CDF000E7F8022802D001281ED106E07F1E1BD3CF
:10CE0000134909780029F0D016E06D1C641EE0D2A9
:10CE1000BBF10A0F02D00A2001F0F2FE0D480C4FC0
:10CE2000448900210E2002F0CBF8022804D1641EB0
:10CE300002D339780029F4D089F800502A0A89F8F9
:10CE4000012089F80200A6EB0900BDE8F88F000078
:10CE500000000020E80500202DE9F0470278A2F14B
:10CE600080031F2B03D800F05FF9BDE8F08701F8BD
:10CE7000012B0F4610F8016B0025FF23A249A34A9E
:10CE80004FF00114172E74D2DFE806F00C142D3188
:10CE9000DEF0EE73ED465873737373735C61657403
:10CEA0007EA1C5000078791CFFF767FD387000F19E
:10CEB0000210DAE70278402422B1012A0AD03B703E
:10CEC0000C4615E14078C00701D0914809E0904830
:10CED000001D06E04078C00701D08E4801E08D4873
:10CEE000001D046028E03946FFF7D2FC2DE0884C95
:10CEF0001570103C00220D21204607F089FE00220B
:10CF00000E21204607F084FE00220C21204607F067
:10CF10007FFE3D700124EBE0427800787F4B40EAD1
:10CF200002227D480068B0FBF3F00323801CB0FBB5
:10CF3000F3F05043401EFDD13D70C1E77D703D7060
:10CF40000224D5E0394600F00DFC0446D0E0394615
:10CF500000F0DAFBF9E710F8014B0CB94FF48074DC
:10CF60000146204602F0C6FEE41DE0083D700404C0
:10CF70004EE0C4E0007800F00301491C1175C0F3D5
:10CF8000800050753D70B3E007F8015B01252C4629
:10CF900010F8018B15E010F8016B814601463A4606
:10CFA000304601F0BBFF16F03F0000D14020C01D0D
:10CFB000C1080D446D1C09EB0100320601D50F4478
:10CFC0000C44B8F10108E6D265F31F4490E010F874
:10CFD000014B002194750B460BE002EB030C10F89B
:10CFE000016B8CF8186002EB430C5B1CACF8201052
:10CFF0003144A342F1D3002006E013181B7EC91A66
:10D0000002EB4003401C1986A042F6D33D70240475
:10D0100004F101146CE01178022913D10078D07565
:10D02000917D88420ED20E2001F0EAFD01F00CFF46
:10D030003D707870010AB970010CF970000E3871FA
:10D04000374C55E03B7053E001781172817843789A
:10D05000344C43EA012151810179C37843EA01202C
:10D0600090813D7044E046E020E0FFE712783946C9
:10D07000012A15D0022A16D00446401C10F8012BB4
:10D0800042B110F8013B9E0701D5DB0600D5001D1B
:10D09000521EF6D1001B0D7000047D70801C54E7F9
:10D0A00000F01CF951E7FFF79BFC4EE704461078AF
:10D0B000394601280BD002280DD00D704D70BD707F
:10D0C0000320E17889070AD540F4802410E0204647
:10D0D00000F086FAF5E72046FFF714FEF1E7A178A5
:10D0E000627842EA01214FF4802202EB814404433A
:10D0F00004F10110B9E6394600F0FCFB25E707F81A
:10D10000013C2046B1E6000001000200E8050020D5
:10D11000100C014010080140D402002040420F00D2
:10D1200005000100010005002DE9FE4F027801F81D
:10D13000012B0D4610F8011B4FF00114671C8039BC
:10D1400006464FF0000A4FF001084FF002190D2972
:10D1500074D2DFE801F00717223841737373495620
:10D160006065690006F0ECFF0646FFF73AF9C4B2C5
:10D170002C70681C22463146FFF7A9F904F580346B
:10D18000A41C5BE00724684603F002FA22466946C5
:10D190002846FFF79CF92B4C50E0684603F0F8F95D
:10D1A0000422314602A8CDF808A0FFF790F90298B2
:10D1B0000090684603F00CFA002003F087FA85F827
:10D1C0000080214C3AE03E21681C0AF0D9FA00F5B3
:10D1D00080342870A41C31E03778701C39460AF07E
:10D1E00071FB85F8008025E085F80080307828B153
:10D1F000012803D085F800A04C461FE007F082FA12
:10D20000FAE785F8008005F003FD10B902200AF066
:10D2100057F83C4612E0307808F0FAFF2870EBE748
:10D2200008F0C4FF2870F4E73778701C394609F01D
:10D2300091F8287004EB074404F101142046BDE87E
:10D24000FE8F0000090001000200050038B52148EA
:10D25000816941F004018161816901F0040100915B
:10D26000816941F008018161816901F00801009143
:10D27000816941F010018161816901F01001009123
:10D28000816941F0200181618069134D00F0200027
:10D2900000900D21284607F00DFD0F4C6814103446
:10D2A00020600E21284607F005FD4FF480402060E5
:10D2B00001220C21284607F0ABFC0021284607F08C
:10D2C0002BFD012020600621284607F0F3FC4020BA
:10D2D000206038BD00100240000C01402DE9F04FE5
:10D2E00087B0044605900020DFF8ECA2CDE90101EB
:10D2F0008D1C8AF8000003906678A41C8046002EDE
:10D300007ED014F8019B5FEA89717AD5B8F1000FDD
:10D3100031D0B248478909F0110001280CD1694683
:10D32000484602F0D1F9022814D17F1E03D39AF89F
:10D3300000100029F3D0FFE069460E2002F0C4F986
:10D34000022805D17F1E03D39AF800100029F3D0DC
:10D350004FF000080128EED1009905F8011B009953
:10D36000090A05F8011B0099090C05F8021B009930
:10D37000090E05F8011C5FEAC9614ED5E778204621
:10D38000FFF7F8F967F31F6004909448241DB0F884
:10D390000CB05FEAC97011D0904847890021484617
:10D3A00002F092F9022802D0012806D106E07F1E81
:10D3B00003D39AF800100029F0D0BDE087484789D0
:10D3C0006946484602F080F9022802D0012815D1AA
:10D3D00006E07F1E12D39AF800100029F0D00DE06D
:10D3E0007E49009A09691140049A914206D0BBF126
:10D3F000010B03D39AF800100029DFD0774901E030
:10D40000BAE046E00969009A1140049A914201D0BD
:10D4100040F01000012817D139E070494F895FEAC8
:10D42000C97115D0B8F1000F31D10021484602F082
:10D430004BF9022802D001287ED106E07F1E7BD363
:10D440009AF800100029F0D076E04FF001081EE0B5
:10D450006946484602F038F9022802D001286BD10B
:10D4600006E07F1E68D39AF800100029F0D063E030
:10D47000009905F8011B0099090A05F8011B00999C
:10D48000090C05F8021B0099090E05F8011C002182
:10D4900047E0B8F1000F22D05048478969460E2076
:10D4A00002F012F9022802D0012845D106E07F1EC1
:10D4B00042D39AF800100029F0D03DE0009805F81A
:10D4C000010B00984FF00008000A05F8010B0098C6
:10D4D000000C05F8020B0098000E05F8010CE77827
:10D4E0002046FFF747F967F31F60241D00905FEAAD
:10D4F000896103D539490861012013E0374847891C
:10D500006946484602F0E0F8022802D0012813D10B
:10D5100006E07F1E10D39AF800100029F0D00BE02F
:10D52000012103910199491C01919AF8001019B940
:10D53000761E7FF4E6AE09E046B114F8011B8A07B7
:10D5400001D5C90600D5241D761EF5E7012834D182
:10D55000B8F1000F21D021485746468969460E2070
:10D5600002F0B2F8022802D0012826D105E0761E8A
:10D5700023D339780029F1D01FE0009905F8011B69
:10D580000099090A05F8011B0099090C05F8021B0E
:10D590000099090E05F8011C0FE0039969B10F48C5
:10D5A0005746468900210E2002F08EF8022804D149
:10D5B000761E02D339780029F4D0DDE9011211700A
:10D5C000029948700298291A059807B0201A41EA72
:10D5D0000040BDE8F08F000000000020E8050020BA
:10D5E0002DE9F84F0025DFF818B1024628468A4693
:10D5F000CE1C8BF8005091785378D21C53EA01244A
:10D6000073D012F8019B90465FEA89715DD55FEA9D
:10D61000C9713AD03B4847890021484602F054F886
:10D62000022802D0012860D12FE07F1E5DD39BF835
:10D6300000100029F0D058E024B95FEAC97001D089
:10D640004FF00E092F48D84647896946484602F0F0
:10D650003BF8022802D0012847D106E07F1E44D3C0
:10D6600098F800100029F0D03FE0009906F8011B5F
:10D670000099090A06F8011B0099090C06F8021B1B
:10D680000099090E06F8011C6D1C641ED4D22CE012
:10D69000404698F80370FFF76DF867F31F6000903D
:10D6A000184808F1040847896946484602F00CF812
:10D6B000022802D0012818D106E07F1E15D39BF85E
:10D6C00000100029F0D010E06D1C641EE0D20D485F
:10D6D0005F46448900210E2001F0F6FF022804D1A4
:10D6E000641E02D339780029F4D08AF800502A0A3F
:10D6F0008AF801208AF80200A6EB0A00BDE8F88F3C
:10D7000000000020E805002070B50C46C578FFF742
:10D7100031F865F31F60104D48B110490023104ADD
:10D720000968B0EB910F05D3012050700FE0FF2086
:10D7300020700EE000EB5101491EB1FBF0F0537078
:10D74000022803D90321B0FBF1F000E00120506072
:10D750002370284670BD000001000400D4020020A0
:10D76000E80500202DE9F04710F8015B8A4610F823
:10D77000014BC778FEF7FEFF67F31F60494F06466F
:10D78000E00707F1040807D0E8074FF4005101D083
:10D79000396001E0C8F80010A00707D5A9074FF4C9
:10D7A000804001D5386001E0C8F80000600709D565
:10D7B000A808C1074FF0800001D03B4901E03A4979
:10D7C000091D086020060CD54FEAD51908F024FB86
:10D7D0005FEAC9714FF0010001D0386001E0C8F87C
:10D7E0000000DFF8C0C0304FACF1040C083FACF1D2
:10D7F00004010023DEB32D48864200D906464FF0CF
:10D80000E02293612A48DFF8AC800068B0FBF8F0B2
:10D810007043506105201061E00705D0DCF800007E
:10D82000C0F34030A8421CD1A00705D50868C0F35A
:10D830000030B0EB550F14D1600705D53868C0F340
:10D84000C010B0EB950F0CD1A00602D5B3EB551F5D
:10D8500007D120060AD5086800F00100B0EBD51FFB
:10D8600004D01069C0F300400028D5D01361DCF863
:10D870000000C0F340320868C0F3003042EA4002C2
:10D880003868C0F3C01042EA80023868C0F3401024
:10D8900042EAC002086842EAC0108AF8000006485E
:10D8A000BDE8F087100C014010080140C0C62D00F3
:10D8B000D402002040420F00010006000A48002167
:10D8C0000A4A017041701268094BB2FBF3F2921ED2
:10D8D00042600172642242818181012201610275EC
:10D8E00041758175FFF7B2BCE8050020D402002025
:10D8F00080969800F8B5164A0D4600271178012940
:10D9000003D0FF23022912D10BE00679401CFEF759
:10D9100031FF66F31F6000906946002001F0D4FEDD
:10D9200012E004460078D075917D884201D32B70B7
:10D930000BE0082001F064F92679601CFEF71AFF5D
:10D9400066F31F6001F08EFD2F700248F8BD0000E5
:10D95000E80500200100050070B50446D0F8080174
:10D960001D460E4600282AD0402A00DD4022401ED7
:10D97000C4F80801D4F8100104EB8010FEF7A7FDED
:10D98000D4F8100104EB80113046FEF7D5FFD4F82F
:10D99000101104EB4101A1F80001D4F8100104EBCF
:10D9A0008010286094F81001401C00F00300C4F8B7
:10D9B0001001D4F80C01401CC4F80C01012070BD0A
:10D9C000D0F80C31E3B15B1EC0F80C31D0F8143143
:10D9D00000EB83130B60D0F8141100EB4101B1F898
:10D9E0000011116090F81411491C01F00301C0F8F6
:10D9F0001411D0F80811491CC0F808110120704713
:10DA0000002070470022C0F810210421C0F8142122
:10DA1000C0E942127047000001078A0E07490A4414
:10DA2000D2F8001C000602D548F6CF7001E04CF693
:10DA30008F700140C2F8001C704700000050004089
:10DA40000207930E0C4A30B51344D3F8002C00069D
:10DA500048F68F7402EA040048F2800582EA010267
:10DA600002D502F0300101E002F44051084328439E
:10DA7000C3F8000C30BD00000050004030B585B048
:10DA80000546002400F03CF901200021039000919C
:10DA9000CDE9011504A9684600F092F800B101240F
:10DAA00000F0E2F805B0204630BD00000649002035
:10DAB000C8610648016941F004010161016941F052
:10DAC0004001016170470000601E002000200240FC
:10DAD000064A0021D16106490A6942F002020A6140
:10DAE0004861086940F0400008617047601E0020EE
:10DAF00000200240044B0022DA61044A136943F01B
:10DB00000103136101807047601E00200020024065
:10DB10000E49C868C2060E4803D5C26942F0020227
:10DB2000C261CA68520703D5C26942F00102C261EC
:10DB3000CA69D20707D0C26942F00402C261C8694B
:10DB400020F00100C8611420C86070470020024026
:10DB5000601E002070B5044600F0CEF90546114E57
:10DB600009E0601C07D024B100F0C6F9401BA042B8
:10DB700001D9032070BDF068C007F2D1F0688006BB
:10DB800001D52020F060F068C00605D4F069C00718
:10DB900002D1F068400703D5FFF7BAFF012070BD3E
:10DBA000002070BD0020024031B500F0A5F9044608
:10DBB00000F0A2F90099001B8842F9D338BD00009B
:10DBC0002DE9F047054626480F460126017E01292A
:10DBD0000FD00121814601762868DFF888804CF259
:10DBE0005034022808D0A2462046FFF7B3FFA8B160
:10DBF00031E00220BDE8F0872046FFF7ABFF08BB0D
:10DC00000120FFF753FF2046FFF7A4FFD8F81010BC
:10DC1000064621F00401C8F810101CE04FF0FF3058
:10DC20003860AC6811E02046FFF752FF5046FFF71E
:10DC300091FFD8F81010060021F00201C8F810106A
:10DC400001D03C6007E004F58064D5E9020100EBF7
:10DC50008120A042E7D8002189F818103046C9E792
:10DC6000601E0020002002400348016941F080014D
:10DC70000161002070470000002002402DE9F05FA4
:10DC800005461D4888460024017E16461F46012988
:10DC900009D00121814601764CF2503A5046FFF7F7
:10DCA00059FF18B123E00220BDE8F09F012D02D0FA
:10DCB000022D00D00425D346DFF840A015E0220154
:10DCC00030463946FEF74EFB81B208EB4400FFF7C1
:10DCD00011FF5846FFF73EFFDAF8102022F001024C
:10DCE000CAF8102018B9641CE4B2AC42E7D3002291
:10DCF00089F81820D8E70000601E002000200240AC
:10DD000005480169090605D5044941600449416097
:10DD10000020704701207047002002402301674522
:10DD2000AB89EFCD2DE9F84FDFF8A091002309F181
:10DD3000040A0AF1040B1C464FF00F080BF1040E05
:10DD400001270A68A7403A40BA4272D1DFF880C181
:10DD50004D68A5EB0C0665452BD00DDC032D34D0AA
:10DD600005DC35B3012D19D0022D2FD11BE0112D6B
:10DD700016D0122D2AD119E0B6F5881F19D006DC6D
:10DD8000B6F5803F15D0B6F5801F1FD111E0B6F56E
:10DD9000001F0ED0B6F5041F18D10AE0CB6815E0BD
:10DDA000CB681B1D12E0CB6808330FE0CB680C3347
:10DDB0000CE08B682BB1012B4FF0080303D04761B7
:10DDC00004E0042302E0076100E00023FF2A01D8F9
:10DDD000064601E000F104064FEA840501D9A5F1E9
:10DDE0002005376808FA05FC27EA0C0703FA05F551
:10DDF00047EA050737604D68ED0060D5354DAE69DF
:10DE000046F00106AE61AD6924F0030605F0010598
:10DE10000095314D7719BE68A5072D0F08FA05FC4E
:10DE200026EA0C06DFF8B4C0604503D14FF0000CC1
:10DE300017E044E0DFF8A8C0604502D14FF0010CC4
:10DE40000FE0DFF8A0C0604502D14FF0020C08E0FF
:10DE5000DFF894C0604502D14FF0030C01E04FF0B1
:10DE6000040C0CFA05FC4CEA060CC7F808C04D6817
:10DE7000D9F80060ED034D4601D5164300E0964306
:10DE80002E604D68DAF80060AD03554601D51643A3
:10DE900000E096432E604D68DBF80060ED025D46C1
:10DEA00001D5164300E096432E604D68DEF8006011
:10DEB000AD02754601D5164300E096432E60641C02
:10DEC000102CFFF43DAFBDE8F88F000000040140C6
:10DED0000000111000100240000001400008014045
:10DEE000000C014000100140001401400AB1016122
:10DEF00070470904FBE70000EFF3108010F0010FFA
:10DF000072B608480068406A074B4FEA90021868EA
:10DF1000A2EB0002C2F30D021044186000D162B6F9
:10DF200070470000201E0020D0020020074810B5D6
:10DF3000016841F010010160032000F05DF80F203E
:10DF400000F006F800F056F8002010BD0020024056
:10DF500010B588B005A9684600F020F90398B0F51F
:10DF6000806F08D0B0F5A06F35D0B0F5C06F34D059
:10DF7000B0F5E06F33D001201A494FF08042002401
:10DF80000968B1FBF0F04FF47A61B0FBF1F116488B
:10DF9000491E02604FF6FF72C0E90324C0E9011474
:10DFA00044611248C16941F00101C161C06900F0DA
:10DFB000010006900C4800F042FC002809D10C48F2
:10DFC0000460094800F057FC002802D1064800F020
:10DFD0006FFC08B010BD0220CEE70420CCE708207B
:10DFE000CAE70000D4020020201E002000100240DA
:10DFF000D002002070470000064A00F007011068B8
:10E000004FF6FF03184040EA01200349084310601F
:10E01000704700000CED00E00000FA052DE9F04724
:10E02000DFF8688104460E46D8F8000000F00700CB
:10E03000B0420CD2D8F8001021F007013143C8F8E3
:10E040000010D8F8000000F00700B04273D120782B
:10E050004F4F800705D57868A16820F0F00008438D
:10E0600078602078C00755D06068012201280CD064
:10E07000022828D0022393FAA3F1B1FA81F141F0EA
:10E080002001490904D0396803E04FF40033F2E776
:10E09000796A93FAA3F3B3FA83F303F01F039A4068
:10E0A000114248D0796821F0030101437960FFF7FC
:10E0B00023FF0546606841F2883101280CD0022810
:10E0C000894615D022E04FF00073D4E7FFF714FF24
:10E0D000411B494501D916E089467868C0F38100A3
:10E0E0000128F3D116E0FFF707FF411B49450AD885
:10E0F0007868C0F381000228F5D10BE0FFF7FCFE41
:10E10000411B494502D90320BDE8F087786810F02B
:10E110000C0FF3D1D8F80010404601F00701B142CE
:10E120000BD9016821F0070131430160006800F05C
:10E130000700B04201D00120E6E72078400705D56E
:10E140007868E16820F4E060084378602078000790
:10E1500006D57868216920F4605040EAC1007860F3
:10E1600000F06CF87968F02292FAA2F201F0F00166
:10E17000B2FA82F2D140074A515CC84006490860B1
:10E180000F20FFF7E5FE0020BEE700000020024060
:10E1900000100240EC960108D40200200F22026019
:10E1A0000C4A536803F003034360536803F0F00321
:10E1B0008360536803F4E063C36052684FF4E06324
:10E1C00003EAD20202610448006800F00700086018
:10E1D0007047000000100240002002400848094932
:10E1E000006849684FF4E06292FAA2F201F4E0613B
:10E1F000B2FA82F2D140044A515CC8407047000034
:10E20000D402002000100240FC9601080848094989
:10E21000006849684FF4605292FAA2F201F460512A
:10E22000B2FA82F2D140044A515CC8407047000003
:10E23000D402002000100240FC96010810B519A07D
:10E2400085B00FC88DE80F001AA01B4B0068049022
:10E2500059681A4801F00C02042A1DD0082A1BD163
:10E260004FF4701494FAA4F401F47012B4FA84F424
:10E27000E240C9031DF8022010D559684FF400335D
:10E2800093FAA3F301F40031B3FA83F3D94004AB5A
:10E29000595CB0FBF1F0504305B010BD0848504345
:10E2A000FAE7000002030405060708090A0B0C0D33
:10E2B0000E0F1010010200000010024000127A0040
:10E2C00000093D002DE9F84F04460078FE4EC007D6
:10E2D0004FF001057FD070684FF40038C0F3810023
:10E2E000012807D07068C0F3810002281BD1706834
:10E2F000C00318D598FAA8F0B0FA80F040F02000DA
:10E30000400901D0306800E0706A98FAA8F1B1FACB
:10E3100081F101F01F0105FA01F108425BD060684C
:10E32000002879D057E06068B0F5803F0BD010B17D
:10E33000B0F5A02F11D0306820F480303060306804
:10E3400020F4802002E0306840F480303060606863
:10E3500018B3FFF7D1FD074609E0306840F480208C
:10E360003060F0E7FFF7C8FDC01B642870D898FA4A
:10E37000A8F0B0FA80F040F02000400901D03068E9
:10E3800000E0706A98FAA8F1B1FA81F101F01F017A
:10E3900005FA01F10842E5D01DE0FFF7ADFD0746A3
:10E3A00004E0FFF7A9FDC01B6428DFD898FAA8F0A5
:10E3B000B0FA80F040F02000400901D0306800E061
:10E3C000706A98FAA8F1B1FA81F101F01F0105FA1B
:10E3D00001F10842E5D12078DFF8F08280074FF0A4
:10E3E000000A4FF002075AD570684FF0F80B10F092
:10E3F0000C0F07D07068C0F3810002281CD1706830
:10E40000C00319D497FAA7F0B0FA80F040F02000CA
:10E41000400902D0306801E08AE0706A97FAA7F1FB
:10E42000B1FA81F101F01F0105FA01F108422BD088
:10E43000206901287CD127E0206988B395FAA5F0EE
:10E44000B0FA80F048F82050FFF756FD814606E00C
:10E450004DE1FFF751FDA0EB0900022886D897FA9D
:10E46000A7F0B0FA80F040F02000400901D03068F9
:10E4700000E0706A97FAA7F1B1FA81F101F01F018B
:10E4800005FA01F10842E4D030689BFAABF220F0C3
:10E49000F8016069B2FA82F290400143316025E0F0
:10E4A000FFE795FAA5F1B1FA81F148F821A0FFF74D
:10E4B00023FD814605E0FFF71FFDA0EB09000228C0
:10E4C000CCD897FAA7F0B0FA80F040F020004009CD
:10E4D00001D0306800E0706A97FAA7F1B1FA81F1D3
:10E4E00001F01F0105FA01F10842E4D1207800078C
:10E4F0006DD5A069B8B395FAA5F0B0FA80F008EB35
:10E500008000C0F88054FFF7F7FC814605E0FFF774
:10E51000F3FCA0EB09000228A0D897FAA7F0B0FA04
:10E5200080F040F06000B5EB501F02D130680CE085
:10E5300063E197FAA7F0B0FA80F040F06000B7EB23
:10E54000501F01D1306A00E0706A97FAA7F1B1FA62
:10E5500081F101F01F0105FA01F21042D7D001202C
:10E56000FFF722FB33E0FFE795FAA5F1B1FA81F15D
:10E5700008EB8101C1F880A4FFF7BEFC814605E0ED
:10E58000FFF7BAFCA0EB0900022899D897FAA7F088
:10E59000B0FA80F040F06000B5EB501F01D1306858
:10E5A0000BE097FAA7F0B0FA80F040F06000B7EB0C
:10E5B000501F01D1306A00E0706A97FAA7F1B1FAF2
:10E5C00081F101F01F0105FA01F21042D8D1207843
:10E5D000400763D5F06940F08050F061F069DFF8E2
:10E5E000F0B000F080500090DBF8001041F4807132
:10E5F000CBF80010FFF780FC814605E0FFF77CFCBC
:10E60000A0EB0900642872D8DBF80000C005F5D53E
:10E61000E06801280AD008B1052813D0306A20F03C
:10E6200001003062306A20F0040002E0306A40F0FD
:10E6300001003062E06841F2883B80B3FFF75CFC88
:10E6400081460AE0306A40F004003062EEE7FFF7EE
:10E6500053FCA0EB0901594549D897FAA7F0B0FA45
:10E6600080F040F04000B5EB501F01D130680BE066
:10E6700097FAA7F0B0FA80F040F04000B7EB501FD7
:10E6800001D1306A00E0706A97FAA7F1B1FA81F11E
:10E6900001F01F0205FA02F10842D8D033E0FFE78B
:10E6A000FFF72AFC814605E0FFF726FCA0EB0901F5
:10E6B00059451CD897FAA7F0B0FA80F040F0400016
:10E6C000B5EB501F08D105E00010024000004242A7
:10E6D0000070004030680CE097FAA7F0B0FA80F0C4
:10E6E00040F04000B7EB501F02D1306A01E08AE0F1
:10E6F000706A97FAA7F1B1FA81F101F01F0205FAE9
:10E7000002F10842D0D1E06998B37168C1F3810188
:10E71000022972D002284FF080714FF0007B5046E2
:10E720000AD091FAA1F1B1FA81F148F82100FFF77E
:10E73000E3FB04465F4669E08A4691FAA1F1B1FA2B
:10E7400081F1C14648F82100FFF7D6FBA8460746ED
:10E750005D4604E0FFF7D0FBC01B022853D895FAB2
:10E76000A5F0B0FA80F040F02000400902D03068F7
:10E7700001E060E0706A95FAA5F1B1FA81F101F06B
:10E780001F0208FA02F10842E4D1206AB0F5803F86
:10E7900005D17068A16820F4003008437060D4E9A6
:10E7A00008010843716821F47411084370609AFAF3
:10E7B000AAF0B0FA80F0474649F82080FFF79CFBAA
:10E7C000044604E0FFF798FB001B02281BD895FACB
:10E7D000A5F0B0FA80F040F02000400901D0306888
:10E7E00000E0706A95FAA5F1B1FA81F101F01F011C
:10E7F00007FA01F10842E5D01DE01EE0FFF77CFBBF
:10E80000001B022802D90320BDE8F88F97FAA7F071
:10E81000B0FA80F040F02000400901D0306800E0FC
:10E82000706A97FAA7F1B1FA81F101F01F0105FAB8
:10E8300001F10842E2D10020E6E70120E4E710B54B
:10E840000446022084F839002068016A41F211125E
:10E85000114207D1016A9210114203D1016821F0DF
:10E8600001010160204600F021F8002084F8390001
:10E8700084F8380010BD10B5040003D094F83900B6
:10E8800010B107E0012010BD002084F838002046B8
:10E8900000F00DF8022084F83900211D206801F0F5
:10E8A000BDFA012084F83900002010BD7047704780
:10E8B000022180F8391001680A6842F001020A60FA
:10E8C000012180F839100020704770B5044690F897
:10E8D00038000D4601280DD0012684F8386002204A
:10E8E00084F8390042B1042A18D0082A2AD00C2A08
:10E8F0004DD139E0022070BD206801F0CDFA2068CA
:10E90000816941F0080181612068816921F0040179
:10E910008161206881692A69114311E0206801F052
:10E92000E7FA2068816941F40061816120688169AA
:10E9300021F480618161206881692A6941EA0221AC
:10E94000816124E0206801F001FB2068C16941F089
:10E950000801C1612068C16921F00401C16120681A
:10E96000C1692A69114311E0206801F01BFB20688E
:10E97000C16941F40061C1612068C16921F480610D
:10E98000C1612068C1692A6941EA0221C16184F834
:10E990003960002084F8380070BD10B504460220AC
:10E9A00084F839002068016A41F21112114207D13E
:10E9B000016A9210114203D1016821F00101016046
:10E9C000204600F021F8002084F8390084F838004F
:10E9D00010BD10B5040003D094F8390010B107E061
:10E9E000012010BD002084F83800204600F00DF80A
:10E9F000022084F83900211D206801F00FFA01205F
:10EA000084F83900002010BD7047704710B50446E7
:10EA10000068012201F034FA07492068884203D1D6
:10EA2000416C41F4004141642068016841F00101FA
:10EA30000160002010BD0000002C014070B50400F2
:10EA400018D0022084F839002068C16821F40051F0
:10EA5000C16020680025C5602068056120684561A7
:10EA6000204600F038F8E56384F8395084F83850CF
:10EA7000002070BD012070BD70B5040004D094F872
:10EA80003900002510B106E0012070BD84F838502F
:10EA9000204600F021F8022084F839002068C1687F
:10EAA00021F40051C160204601F09EFA20680169FE
:10EAB00021F4904101612068416921F02A014161FE
:10EAC0002068C16841F40051C160E563012084F809
:10EAD0003900002070BD704770470000EFF30884D4
:10EAE0000EF00F000D2801D1EFF30984A08B04F183
:10EAF0002005800500D52D1D5FEACE6000D4483585
:10EB0000704604F0F5F8EFF3098004F0F1F8EFF344
:10EB1000088004F0EDF8EFF3148004F0E9F82846DB
:10EB200004F0E6F8606904F0E3F8A06904F0E0F8A6
:10EB3000E06904F0DDF81248006804F0D9F81048E4
:10EB4000001F006804F0D4F80D48001D006804F0B0
:10EB5000CFF80B481030006804F0CAF808480830B5
:10EB6000006804F0C5F806480C30006804F0C0F8EE
:10EB70004A2204A1002003F0C7FE01F03FF9FEE79E
:10EB80002CED00E02E2E5C2E2E5C2E2E5C736F750D
:10EB90007263655C6461706C696E6B5C4861726421
:10EBA0004661756C745F48616E646C65722E6300BB
:10EBB000002070471CB507F019FE00281CD09E20CD
:10EBC0008DF80000E7208DF801006946102001F063
:10EBD00091F8012407F00AFE00280DD000208DF8DE
:10EBE00000006946082001F085F801A9002007F01F
:10EBF00091FD012801D104B11CBD00201CBD000005
:10EC00000349497809B100F005B800F063B8000085
:10EC1000E80500202DE9F0432B4C4FF48047276096
:10EC20006314251D2B6023602B6023602F602B60F5
:10EC300023602B602360254E80223260244991F8A6
:10EC400017C001EB4C09B9F8201019B12B602360F3
:10EC5000491EFBD11E49DFF87480183108F1040801
:10EC60001CF8011009E05FEAC07C01D0326001E0CD
:10EC7000C8F800202B6023604008491EF3D1B9F882
:10EC8000301079B1C00701D0326001E0C8F800202F
:10EC90002B602360326001E02B602360491EFBD1B2
:10ECA000276006E02760C00701D0326001E0C8F8A5
:10ECB00000202B6023602B6023602F602B6023607B
:10ECC0003260BDE8F0830000100C014010080140E4
:10ECD000E80500202DE9F047584D4FF48048C5F86D
:10ECE000008005F1040C6F14CCF80070544B596887
:10ECF0000A46521EFDD12F600A46521EFDD1CCF8A5
:10ED000000700A46521EFDD12F600A46521EFDD1E8
:10ED1000CCF80080CCF800700A46521EFDD12F605E
:10ED20000A46521EFDD1CCF800700A46521EFDD193
:10ED30002F600A46521EFDD1424E80243460DA7D97
:10ED400003EB420A9146BAF8203053B1CCF8007078
:10ED50000A46521EFDD12F600A46521EFDD15B1E8F
:10ED6000F4D1374B183319F80330DFF8D89009F194
:10ED700004090FE0C20701D0346001E0C9F8004087
:10ED8000CCF800700A46521EFDD12F600A46521E72
:10ED9000FDD140085B1EEDD1BAF830203AB3C00770
:10EDA00001D0346001E0C9F80040CCF8007008469A
:10EDB000401EFDD12F600846401EFDD1346008E0A2
:10EDC000CCF800700846401EFDD12F600846401E5A
:10EDD000FDD1521EF4D1C5F80080CCF80070084671
:10EDE000401EFDD12F600846401EFDD110E0C5F841
:10EDF0000080C00701D0346001E0C9F80040CCF8C1
:10EE000000700846401EFDD12F600846401EFDD10F
:10EE1000CCF800700846401EFDD12F600846401E09
:10EE2000FDD1CCF80080CCF800700846401EFDD122
:10EE30002F60491EFDD13460BDE8F087100C014001
:10EE4000E805002010080140F0B5314C4FF4804631
:10EE500026606314251D2B602E4A51680846401E0B
:10EE6000FDD123600846401EFDD12E602B60084670
:10EE7000401EFDD123600846401EFDD12B60084690
:10EE8000401EFDD123600846401EFDD1D27D4AB10F
:10EE90002B600846401EFDD123600846401EFDD170
:10EEA000521EF5D10027DFF870C01F222B600846E4
:10EEB000401EFDD1DCF800002360C0F3401E084670
:10EEC000401EFDD147EACE704708521EEED12660A3
:10EED0002B600846401EFDD1DCF800002360C0F323
:10EEE00040120846401EFDD147EAC2702B600A4618
:10EEF000521EFDD123600A46521EFDD12E602B60AA
:10EF00000A46521EFDD12360491EFDD1F0BD00000E
:10EF1000100C0140E8050020080801402DE9F04FE1
:10EF2000814610F03F0000D14020DFF888B0DFF8C4
:10EF300088E05FEA49644FF480434FF0800AABF108
:10EF400004084FF4005C01D5444600E05C462360B1
:10EF50002BE0002611F8015B08231EE0EC07544665
:10EF600001D0164F01E0154F3F1D3C60CBF800C0AB
:10EF7000DEF8044027467F1EFDD1104F083F3F6852
:10EF8000C8F800C0C7F34017641EFDD174086D08AF
:10EF9000401E44EAC7165B1E01D00028DED1DE40C9
:10EFA0005FEA096301D502F8016B0028D1D1BDE801
:10EFB000F08F0000140C0140E8050020100801400B
:10EFC000034A52780AB100F005B800F0CDB800004D
:10EFD000E80500202DE9F04F604E4FF480438B464A
:10EFE00033605D10371D3D6035603B603D603560CE
:10EFF0003D6035605A49C97D19B13D603560491E93
:10F00000FBD1584C4108C907A4F1040C4FF0800211
:10F0100002D0CCF8002000E022603D60DFF844918F
:10F02000A9F10C09D9F800103560C1F3401149006D
:10F030004FEA90085FEAC87802D0CCF8002000E0E0
:10F0400022603D60D9F800803560C8F3401841EA7D
:10F0500008014FEAD0085FEAC87802D0CCF8002057
:10F0600000E022603D60D9F80080CE46C8F3401829
:10F07000356041EA8809B9F1010F01D0336059E0E8
:10F08000DFF8DC80810798F8160098F81780A0EB6D
:10F09000080A2BD500211F20F0463D60D8F800401B
:10F0A0003560640941EAC4714908401EF5D1BAF1DE
:10F0B000010014D03D60D8F80040C4F3401400E0D3
:10F0C0003D603560401EFBD133603D60356041EAF4
:10F0D000C470BBF1000F2FD0CBF800002CE03360E0
:10F0E0003D60D8F80000C0F34014EFE7DBF8000003
:10F0F0001F215FEAC07802D0CCF8002000E0226037
:10F100003D6035604008491EF3D1BAF101010AD0D3
:10F11000C00702D0CCF8002000E022603D603560DE
:10F12000491EFBD1AAE73360C00702D0CCF800200B
:10F1300000E022603D6035603D6035603B603D60D1
:10F140003560CCF800200648007A01E03D6035606B
:10F15000401EFBD24846BDE8F08F0000100C014075
:10F16000E8050020140801402DE9FC4FDFF8E8C253
:10F170004FF480468E46CCF800600CF10408731002
:10F18000C8F80030B54C61680A46521EFDD1CCF873
:10F1900000300A46521EFDD1C8F80060C8F80030A1
:10F1A0000A46521EFDD1CCF800300A46521EFDD14F
:10F1B000C8F800300A46521EFDD1CCF800300A468D
:10F1C000521EFDD1E47D5CB1C8F800300A46521EE3
:10F1D000FDD1CCF800300A46521EFDD1641EF3D199
:10F1E0009F4F4208D207A7F104054FF0800401D0D9
:10F1F0002C6000E03C60C246C8F800300A46521E4F
:10F20000FDD1DFF85CB2ABF10C0BDBF80020CCF8E1
:10F210000030C2F340128846B8F10108FCD1520018
:10F220004FEA90085FEAC87801D02C6000E03C60AB
:10F23000CAF800308846B8F10108FCD1DBF800803C
:10F24000DFF814C2C8F340189946CCF800300B46DA
:10F250005B1EFDD1C30842EA0802DB0701D02C6027
:10F2600000E03C60CC46CAF800900B465B1EFDD126
:10F27000DBF80030E146C3F34018774BC3F800C019
:10F280008C46BCF1010CFCD142EA88020192012AB1
:10F290000AD01E604A46CAF800900846401EFDD1BA
:10F2A0001A60491EFDD1AEE06C4A5FEA807C907D19
:10F2B000D27DA0EB0200009055D500271F22CC463E
:10F2C000CAF800C00846401EFDD1DBF80000C3F8B4
:10F2D00000C0C0F340180846401EFDD147EAC87080
:10F2E0004708521EECD10098401E020025D0CAF8F3
:10F2F00000C00846401EFDD1DBF80000C3F800C086
:10F30000C0F340180846401EFDD1521E0AD0CAF86C
:10F3100000C00846401EFDD1C3F800C00846401E8C
:10F32000FDD1F2E71E60CAF800C00846401EFDD1BC
:10F33000C3F800C0491EFDD10DE01E60CAF800C030
:10F340000846401EFDD1DBF80000C3F800C0C0F342
:10F350004018491EFDD147EAC870BEF1000F52D0D7
:10F36000CEF800004FE0DEF800001F22D4465FEA2E
:10F37000C07801D02C6000E03C60CCF8009088465A
:10F38000B8F10108FCD1C3F800908846B8F1010833
:10F39000FCD14008521EEAD1009A521E24D0C00768
:10F3A00001D02C6000E03C604F46CCF8009008464D
:10F3B000401EFDD11F600846401EFDD1521E09D0DF
:10F3C000CCF800700846401EFDD11F600846401E64
:10F3D000FDD1F3E71E60CCF800700846401EFDD159
:10F3E0001F60491EFDD10EE01E60C00701D02C60D9
:10F3F00000E03C604A46CCF800900846401EFDD133
:10F400001A60491EFDD14F46D446CAF800901349F0
:10F410004A681046401EFDD11F601046401EFDD1B7
:10F42000CCF80060CCF800701046401EFDD11F6083
:10F430001046401EFDD12C600C7A08E0CCF800701C
:10F440001046401EFDD11F601146491EFDD1641EAD
:10F45000F4D20198BDE8FC8F100C0140E8050020B3
:10F46000140801402DE9F04F5B4E4FF480443460A6
:10F470006510371D3D60594A51680B465B1EFDD132
:10F4800035600B465B1EFDD1A1463C603D600B46DE
:10F490005B1EFDD135600B465B1EFDD13D600B460A
:10F4A0005B1EFDD135600B465B1EFDD1D47DB4F1F2
:10F4B000000A09D03D600B465B1EFDD135600B464E
:10F4C0005B1EFDD1641EF5D1DFF814C18024CCF899
:10F4D00000403D600B465B1EFDD135600B465B1E58
:10F4E000FDD13D600B465B1EFDD135600B465B1EBA
:10F4F000FDD13D600B465B1EFDD135600B465B1EAA
:10F50000FDD1DFF8DC801F23A8F104089346C20771
:10F5100002D0C8F8004001E0CCF800403D600A4647
:10F52000521EFDD135600A46521EFDD140085B1EB9
:10F53000EDD19BF81630A3EB0A02521E25D0C0076E
:10F5400002D0C8F8004001E0CCF800402B463D60F6
:10F550000846401EFDD133600846401EFDD1521EB4
:10F5600008D03B600846401EFDD133600846401E6F
:10F57000FDD1F4E7C6F800903B600846401EFDD17F
:10F5800033600846401EFDD110E0C6F80090C00769
:10F5900002D0C8F8004001E0CCF800403D600846C9
:10F5A000401EFDD135600846401EFDD13D60084635
:10F5B000401EFDD135600846401EFDD1C7F80090C1
:10F5C0003D600846401EFDD13560491EFDD1C8F89A
:10F5D0000040BDE8F08F0000100C0140E80500205D
:10F5E0001408014000F01F020121914040098000F1
:10F5F00000F1E020C0F800117047000070B5104C19
:10F600000D21204605F06FFB0D4D6014103528606C
:10F610000E21204605F067FB4FF480402860012250
:10F620000C21204605F01DFB206820F00F00206013
:10F63000206840F0070020600120286070BD0000B5
:10F64000000C01402DE9F04117460D46804600268A
:10F65000FEF756FBA80706D000206E220DA103F08E
:10F6600053F900240DE00120F7E757F8242008EBB8
:10F67000840100230220FEF701FB08B1012603E00C
:10F68000641CB4EB950FF0D3FEF7EEFA3046BDE8FC
:10F69000F08100002E2E5C2E2E5C2E2E5C736F757A
:10F6A0007263655C6869635F68616C5C73746D3319
:10F6B000325C73746D33326631303378625C666C01
:10F6C0006173682E63000000034A52780AB100F0AB
:10F6D00005B800F021B90000E80500202DE9F04F41
:10F6E0008B4B8A464FF4804701461F605E141D1DF8
:10F6F0002E601E60C00701D01F6000E02F602E60EA
:10F700001E604808C40701D01F6000E02F602E6013
:10F710001E600A188808C40701D01F6000E02F602F
:10F720002E601E600244C808C40701D01F6000E0BC
:10F730002F602E601E601044C00701D01F6000E0E3
:10F740002F602E601E602F602E601E601F602E6076
:10F750001E60DFF8BC91A9F11009D9F8042022F04D
:10F760007062C9F80420D9F80420C9F804201F6089
:10F77000DFF8A0B19BF81400021E03D02E601E60BB
:10F78000401EFBD12E60DFF88881A8F10808D8F868
:10F7900000001E60C0F300302E60D8F800401E60EC
:10F7A000C4F3003440EA44002E60D8F800401E60E4
:10F7B000C4F3003440EA8400012817D002287CD02A
:10F7C00004287AD0213203D02E601E60521EFBD155
:10F7D000D9F8042022F07062C9F80420D9F8042076
:10F7E00042F04072C9F804202F608EE0890731D5BD
:10F7F0000024224620212E60D8F800C01E60CCF3E1
:10F80000003C6408624444EACC74491EF3D12E6083
:10F81000D8F800101E6082EA1132D10700D008200B
:10F82000BAF1000F01D0CAF800409BF8141019B1CA
:10F830002E601E60491EFBD1D9F8042022F07062B0
:10F84000C9F80420D9F8042042F04072C9F8042015
:10F850002F6029E01AB12E601E60521EFAE7D9F817
:10F86000042022F07062C9F80420D9F8042042F084
:10F870004072C9F804202F600024DAF8001020221A
:10F880005FEAC17C01D01F6000E02F602E601E6027
:10F890000C444908521EF3D1E10702D01F6001E079
:10F8A0000BE02F602E601E609BF8081069B32F607C
:10F8B0002E601E60491EFBD127E09BF815404CB11D
:10F8C0005FEA817C06D54FF0210C2E601E60BCF1F2
:10F8D000010CFAD11AB12E601E60521EFAE7D9F857
:10F8E00004C02CF0706CC9F804C0D9F804C04CF006
:10F8F000407CC9F804C02F603CB1890705D42F6053
:10F9000021212E601E60491EFBD11F60BDE8F08FD3
:10F91000100C0140E80500202DE9F04FF34A0446A1
:10F920004FF480408B4600261060171D4FF4005C9A
:10F93000C7F800C0EE4B59680D466D1EFDD1C2F8E8
:10F9400000C00D466D1EFDD1E50701D0106000E03E
:10F950003860C7F800C00D466D1EFDD1C2F800C06A
:10F960000D466D1EFDD106EB04086608F50701D0B3
:10F97000106000E03860C7F800C00D466D1EFDD174
:10F98000C2F800C00D466D1EFDD14644A5085FEAD1
:10F99000C57801D0106000E03860C7F800C0884624
:10F9A000B8F10108FCD1C2F800C08846B8F10108DE
:10F9B000FCD12E44E5085FEAC57801D0106000E074
:10F9C0003860C7F800C08846B8F10108FCD1C2F819
:10F9D00000C08846B8F10108FCD13544ED0701D0DC
:10F9E000106000E03860C7F800C00D466D1EFDD104
:10F9F000C2F800C00D466D1EFDD13860C7F800C0CA
:10FA00000D466D1EFDD1C2F800C00D466D1EFDD124
:10FA10001060C7F800C00D466D1EFDD1C2F800C0D1
:10FA20000D466D1EFDD1DFF8C4A2AAF1100ADAF866
:10FA3000046026F07066CAF80460DAF80460CAF858
:10FA40000460814610601D7D2E1E0BD0C7F800C0DB
:10FA50000846401EFDD1C2F800C00846401EFDD138
:10FA60006D1EF3D1C7F800C00846401EFDD19F4D62
:10FA7000083D2868C2F800C0C0F300308846B8F1DD
:10FA80000108FCD1C7F800C00B465B1EFDD12B68F6
:10FA9000C2F800C0C3F300338846B8F10108FCD1B6
:10FAA00040EA4300C7F800C00B465B1EFDD12B683F
:10FAB000AE46C3F30033C2F800C00D466D1EFDD143
:10FAC00040EA8300012823D002286FD004286DD09B
:10FAD00021360BD0C7F800C00B465B1EFDD1C2F823
:10FAE00000C00B465B1EFDD1761EF3D1DAF8043060
:10FAF00023F07063CAF80430DAF8043043F040733E
:10FB0000CAF804304946C7F800901160BDE8F08F8C
:10FB1000A3074CD54FF0000845462024C7F800C085
:10FB20000B465B1EFDD1DEF80030C2F800C0C3F307
:10FB300000360B465B1EFDD14FEA5803354443EABD
:10FB4000C678641EEAD16446C7F800C0684E0B460A
:10FB50005B1EFDD1DEF800301460C3F30033491E94
:10FB6000FDD15D40E90700D00820BBF1000F01D0B6
:10FB7000CBF80080337D53B175683C602946491E3F
:10FB8000FDD114602946491EFDD15B1EF5D1DAF87E
:10FB9000043023F07063CAF80430DAF8043043F01C
:10FBA0004073CAF80430C7F8009045E058E05EB1F1
:10FBB000C7F800C00B465B1EFDD1C2F800C00B4663
:10FBC0005B1EFDD1761EF2E7DAF8044024F0706483
:10FBD000CAF80440DAF8044044F04074CAF804401B
:10FBE000C846C7F800900026DBF800302025DC0767
:10FBF00002D0C2F8008001E0C7F80080C7F800C05A
:10FC00000C46641EFDD1C2F800C00C46641EFDD136
:10FC10001E445B086D1EEAD1F30702D0C2F80080D3
:10FC200001E0C7F800806446C7F800C00B465B1EC1
:10FC3000FDD11460491EFDD12D490C7A74B1C7F86D
:10FC400000904D68C7F800C02946491EFDD1C2F892
:10FC500000C02B465B1EFDD1641EF3D1494654E71C
:10FC6000234B93F81580B8F1000F0ED0A3070CD5E5
:10FC70002125C7F800C00B465B1EFDD1C2F800C0AD
:10FC80000B465B1EFDD16D1EF3D15EB1C7F800C0FF
:10FC90000B465B1EFDD1C2F800C00B465B1EFDD1BA
:10FCA000761EF2E7DAF8045025F07065CAF80450C1
:10FCB000DAF8045045F04075CAF804504D46C7F8CC
:10FCC0000090B8F1000F0FD0A3070DD43D602124A0
:10FCD000C7F800C00B465B1EFDD1C2F800C00B4642
:10FCE0005B1EFDD1641EF3D115600FE7100C0140BF
:10FCF000E8050020F0B5144C0023DFF848C04FF4AD
:10FD000080471A46ACF1040E7E10656816E012B901
:10FD100011F8013B0822DC0702D0CEF8007001E0A8
:10FD2000CCF80070CCF800602C46641EFDD1CEF8F3
:10FD300000602C46641EFDD15B08521E401EE6D2B8
:10FD4000F0BD0000140C0140E8050020144A10B575
:10FD50005068144B10F00C01134803D0042901D053
:10FD6000082901D0036012E05168536801F4701152
:10FD70004FF0020413F4803F04EB914102D053682A
:10FD80009B0301D5094B00E0064B594301605168C4
:10FD9000074AC1F30311515C0268CA40026010BDFA
:10FDA0000010024000127A00D402002000093D0039
:10FDB000EC9601080D48016841F0010101604168BD
:10FDC0000B4A1140416001680A4A11400160016814
:10FDD00021F480210160416821F4FE0141604FF46B
:10FDE0001F0181600449C003086070470010024091
:10FDF0000000FFF8FFFFF6FE08ED00E0BFF34F8FB5
:10FE000004480168044A01F4E06111430160BFF352
:10FE10004F8FFEE70CED00E00400FA05F0B5026834
:10FE2000144C154D154E4FF08047A04205D0B842F6
:10FE300003D0A84201D0B04203D122F070034A6837
:10FE40001A43A04205D0B84203D0A84201D0B04224
:10FE500003D122F44073CA681A4302608A68C262FE
:10FE60000A688262A04201D10969016301214161EE
:10FE7000F0BD0000002C01400004004000080040DC
:10FE800010B50123046A8B409C430462036A8A40D4
:10FE90001343036210BD000030B5026A22F0010274
:10FEA0000262036A4268846924F073050C682C437B
:10FEB00023F002058B682B430C4DA84206D123F09A
:10FEC0000805CB6843EA050323F0040307D14D6915
:10FED00022F4407245EA02058A6942EA050242605C
:10FEE000846149684163036230BD0000002C014019
:10FEF00030B5026A22F010020262026A4368846925
:10FF00000D6824F4E64444EA05248D6822F02002BA
:10FF100042EA05120C4DA84206D1CD6822F08002BB
:10FF200042EA051222F0400207D14D6923F44063F2
:10FF300043EA85038D6943EA850343608461496828
:10FF40008163026230BD0000002C014030B5026ABE
:10FF500022F480720262036A4268C46923F4007367
:10FF600024F073050C682C438D6843EA05230C4D7F
:10FF7000A84206D1CD6823F4006343EA052323F4A5
:10FF8000806307D14D6922F4405242EA05128D691F
:10FF900042EA05124260C4614968C163036230BD30
:10FFA000002C014030B5026A22F480520262036ADA
:10FFB0004268C4690D6824F4E64444EA05248D6867
:10FFC00023F4005343EA0533064DA84204D14D699A
:10FFD00022F4804242EA85124260C46149680164A9
:10FFE000036230BD002C01402DE9F0410446006859
:10FFF0000169E26821F4405111430161A16820695F
:020000040801F1
:100000000143606901432068C26841F20C639A436E
:100010000A43C26020684169A26921F4407111431A
:1000200041614C4920686426322788423CD1FEF762
:10003000EDF800EBC00101EB001061688900B0FB36
:10004000F1F5FEF7E3F800EBC00101EB0010616889
:10005000B8468900B0FBF1F0B0FBF6F06FF0180184
:10006000484305EB800107EB0110B0FBF6F000F010
:10007000F005FEF7CBF800EBC00101EB0010616862
:100080008900B0FBF1F0B0FBF6F005EB0015FEF7D0
:10009000BDF800EBC00101EB001061688900B0FB06
:1000A000F1F7FEF7B3F83BE0FEF798F800EBC0017C
:1000B00001EB001061688900B0FBF1F5FEF78EF8E6
:1000C00000EBC00101EB00106168B8468900B0FB8D
:1000D000F1F0B0FBF6F06FF01801484305EB80013A
:1000E00007EB0110B0FBF6F000F0F005FEF776F834
:1000F00000EBC00101EB001061688900B0FBF1F07A
:10010000B0FBF6F005EB0015FEF768F800EBC00158
:1001100001EB001061688900B0FBF1F7FEF75EF8B3
:1001200000EBC00101EB001061688900B0FBF1F049
:10013000B0FBF6F06FF01801484307EB800108EBC5
:100140000110B0FBF6F0216800F00F002844886031
:10015000BDE8F0810038014070B515480468154DC0
:10016000A00612D52868C6B2134802F05BFC13281B
:1001700004D93146104802F0C5FC06E005D14FF025
:1001800013020EA10C4802F012FD200607D51048FC
:1001900002F059FC20B10E4802F076FC286070BDD8
:1001A0000448083001680B4A1140016070BD00002E
:1001B0000044004004440040902000203C44415052
:1001C0004C696E6B3A4F766572666C6F773E0A00CB
:1001D000801E00207FFFFFEF1CB5002001906A46C3
:1001E00001A90848FDF7ECFB40B10748DDE9002113
:1001F000007840F0800002F0BBFA1CBD03490120EA
:1002000008701CBDB02B00202A97010810050020A3
:1002100038B5164D164C28886188421A1548616811
:10022000007801F0CDFE616880B2014461606188B0
:1002300001448AB2628029888A4206D20F4B0E4955
:100240001B7831F8131081420FD96B460C490D48C9
:10025000FDF782FB002528B1207818B10020FFF7B8
:10026000BBFF257065800648606038BD3097010887
:10027000100500202B9701082C9701085B05002032
:10028000EA240020B02B002010B50446400702D518
:100290000020FFF7BDFF200704D5BDE81040002077
:1002A000FFF79ABF10BD0020704700000348D0E957
:1002B0000410081A02490988081A70471805002016
:1002C0002097010870B50B4D0C460346D5E90C018B
:1002D00088420BD9401A844200DD04462246184663
:1002E000FCF7F5F8686B2044686300E000242046C2
:1002F00070BD000018050020002070472DE9F04176
:10030000194F0C460646D7E90401401A17490988D7
:10031000081A002802DC0020BDE8F081844200DDDC
:100320000446D7E90602002590420FD3104B02196C
:1003300019448A420AD30D1A98462A463146FCF7D8
:10034000C6F82E44641B4046C7F8188034B12246D4
:100350003146FCF7BCF8B8692044B86139696019C6
:1003600001443961D8E700001805002020970108F2
:100370006A24002010B5054C6068002805D10120D2
:10038000606000F005F80020606010BD18050020D6
:100390002DE9F047244CA06800283ED0D4E90401A0
:1003A000421AE0684FF0000652EA000137D02146B9
:1003B0001E4FC969DFF87880DFF878901E4D7AB15A
:1003C000A069814205D338888B182844834200D322
:1003D000421A99F8003038F81300904200DA0246C9
:1003E0001648E660007840F0800002F0C1F9E1694B
:1003F0000144E1616269024462613B882B448B42A3
:1004000000D1E561216991420BD199F8002038F8BB
:100410001210814205D10120E060BDE8F087A6609E
:10042000FBE7E660F9E700001805002020970108C7
:10043000249701085B0500206A2400201E9701080C
:1004400010B50B4C206A18B1A06A401CA06210BD08
:1004500001202062606200F00DF8002060622062DE
:10046000D4E90C018842F2D0401AFFF745FF10BDD5
:100470001805002010B5134C1348164B216B0A1AAF
:1004800012481B780088821A114830F81300824203
:100490000EDB1148007801F093FD216B08442063C6
:1004A000A06A00280CD0616A002909D1401E06E02C
:1004B0000120E062606A002802D0A06A401CA062AD
:1004C00010BD000018050020AA2400202297010872
:1004D000249701085B0500201F97010810B504460A
:1004E000400702D52046FFF7ABFF200704D5204682
:1004F000BDE81040FFF73EBF10BD704700207047B9
:100500000020704710B50C4800F042F8002812D0C7
:100510000948FCF72FF90949020A08704A70020CD1
:100520008A70000EC870044802790A7142794A71D3
:1005300080798871012010BD5005002068230020BB
:1005400010B510480024104944608460C460046100
:10055000C0E90541C0E9071444620C498462C0E95E
:100560000B414163048000F138014FF41650FCF751
:100570000CF904480821383004714471817100F08D
:1005800019F810BD180500206A240020AA240020B4
:1005900070B5074D044621462868FCF7F6F828791F
:1005A000A07168796071A8792071012070BD000088
:1005B000E005002010B507F08BF803F067FF01207D
:1005C00010BD10B507F0E4F8012010BD0120704700
:1005D00010B50446FCF7CEF807490860A079087109
:1005E00060794871207988710020C871BDE8104099
:1005F000084607F0DFB80000E005002010B51148FC
:100600000024114944608460C4600461C0E905416C
:10061000C0E9071444620D498462C0E90B4141639B
:100620000480FFF7CEFF07494FF416503831FCF72E
:10063000ACF8044808213830047144718171FFF727
:10064000C7FF10BD180500206A240020AA2400203E
:1006500010B5FFF7D3FF10BD70B51948007800281A
:100660002DD0184C00250126206A50B9D4E90C0180
:10067000884206D11449884203D02163E56225628D
:100680006163A06A70B1206A60B9E06A50B92662FD
:10069000FFF7F0FE2562D4E90C01884202D0401A2F
:1006A000FFF72AFED4E90101084308D1D4E9040187
:1006B000884204D06660A660FFF76AFE656070BD80
:1006C0005905002018050020AA24002070B5054611
:1006D0000D480068C1698847A0B90C4C35B104F0D9
:1006E0002FF82060002006F0EBFD0BE004F028F866
:1006F0002168401AB0F5967F01D3012000E0002068
:1007000003F0CCFE012070BD5C910108DC050020E7
:100710000020704700207047024910B50880FFF79D
:1007200055FF10BD1805002070B50A4C2046E5782D
:10073000FCF720F865F31F600749FCF726F8064828
:100740002179017161794171A1798171FFF740FFD0
:1007500070BD0000682300205005002000B503464E
:10076000FDF75AF943F2300118465DF804EBFDF746
:1007700067B90000F0B58278224D4179047902F022
:100780000F0344EA012116066F682C8802F00F025D
:1007900007EB021204D5491C21F00101146011E09D
:1007A00094603E2909D91F3121F01F014FF0FF3419
:1007B00004EB411444F4004403E0491C21F001011E
:1007C0004C02D4602A880A442A80C07810F00300C2
:1007D00006D0012807D0022808D003280AD107E054
:1007E0004FF4007106E04FF4806103E0002101E066
:1007F0004FF4C061044A194302EB8300C0F8001CA7
:10080000F0BD00008C04002000500040002802D100
:100810000149D020088070478C04002000F0E4BA21
:100820000949CA1350B101200860002008600B1D5F
:1008300018604FF4E0500860044803E003200860AB
:100840000248001F02607047405C0040140C0140E9
:1008500010B50B4C0B48A2880078824200D90246A2
:100860001AB907490020143908718020216801F065
:100870007FFF216801442160A188081AA08010BD73
:100880006C0500200797010810B5064C0020A288CF
:10089000216801F095FB216801442160A188081AB4
:1008A000A08010BD6C05002070470021FDF7C8B87E
:1008B00043F22001FDF7C4B82DE9F0476E4F04461E
:1008C000A7F1080580074FF00009A5F1140622D50D
:1008D00001F018FF3878C009FFF7E6FFF888A88014
:1008E0003878C0F3411121B101295AD002296FD1C2
:1008F00065E07978DFF884810C2969D2DFE801F0BE
:10090000060C6813681827682B31384601F098FCEC
:100910001FE0FFF79DFF67E0002005E001F002FF08
:10092000D8F8000039E0012001F0CAFCC0B3F5E7B7
:1009300010F01F0F4CD1B878012140F080003070CA
:1009400000F07F0001F0D0FE01F0ECFE4CE001F081
:1009500065FB28B3DDE710F01F0F39D146481B387F
:1009600012E001F0FDFCD8B101F0DCFE444813E0D8
:1009700000F01F0001282BD1707888B13879B17848
:10098000884225D23F4908442860C2E701F0AEFD05
:1009900030B101F0C7FE3C48006828B3804723E02F
:1009A00016E010F01F0013D0012811D100F00AF951
:1009B000D0B900F063F9B8B900F0B2F807E010F070
:1009C0001F0F05D100F08EF970B900F0D5F958B9B4
:1009D0003878000603D4F88808B1002000E08020B1
:1009E00001F08CFEA5F80490600721D53878000648
:1009F0001CD4A888E0B1FFF747FFA888C0B93878B1
:100A0000C0F3411161B101290AD110F01F0007D0D4
:100A1000012805D100F066F850B900F037F838B970
:100A2000802001F06BFEA5F8049001E001F080FE4B
:100A3000200712D53878000606D5A88831790843F2
:100A40000BD0FFF705FF08E03078010605D500F070
:100A50007F003070002101F047FE600602D50020C3
:100A6000FFF77CFE200604D5BDE8F0478020FFF7A5
:100A700075BEBDE8F087000074050020909701085E
:100A8000889701087B0400208C97010810B5124953
:100A9000124A08791278904203D0114A1278904293
:100AA00017D1487820B1022805D0202811D10DE0B7
:100AB000FFF72EFE05E0C878897841EA0020FFF7AD
:100AC00029FE30B101F02EFE012010BDFFF72CFEF3
:100AD000F7E7002010BD000074050020E0020020B0
:100AE000E102002010B50B490B4A087912789042B8
:100AF00003D00A4A1278904209D14878092806D1D1
:100B000000F024FB18B101F00DFE012010BD002003
:100B100010BD000074050020E4020020E602002061
:100B200070B52349234A08791278904203D0224AAB
:100B3000127890423AD11E484978204CC278837886
:100B40001F4D43EA022004291FD007DC79B1012997
:100B50000FD002290BD0032928D111E0202906D07B
:100B6000212919D022291AD023291FD11AE02C605B
:100B700010E0FFF7C5FC05E02C60FFF769FE09E017
:100B8000FFF7BCFC0028F7D110E0FFF78CFB0BE06F
:100B900001F0C8FD012070BDFFF7B4FCF2E7FFF7DC
:100BA000BBFD01E0FFF792FD0028F1D1002070BDF0
:100BB00074050020E0020020E102002068230020EC
:100BC0006C0500202DE9F041244E25493079097843
:100BD000884203D02349097888423CD17078224C5E
:100BE000224D234F0C2836D2DFE800F03506212CA9
:100BF000353535353516243100F0C4F958B3F07861
:100C0000012802D0032803D003E01A48206000E046
:100C10002560FFF71DFE12E0F078022802D00328BD
:100C200003D00CE01448206009E0256007E000F0E4
:100C300091F909E000F064FA0BE001F073FD012086
:100C4000BDE8F08100F094F928B12760E1E700F0F9
:100C500073FA0028F1D10020F2E7000074050020AB
:100C6000E4020020E60200206C0500208804002039
:100C700068230020A9230020EA23002010B515488E
:100C8000154A01791278914222D101464278C878FA
:100C90008B788C7943EA0020CB79FE2A44EA032141
:100CA00009D0FF2A14D198B991B901F0CDF878B1E3
:100CB00001F038FD0AE058B9012909D100F09AFD88
:100CC00030B1074905480860FFF7C2FD012010BD9B
:100CD000002010BD74050020E502002068230020DC
:100CE0006C05002070B51E4D1E49002668780978F5
:100CF000884232D16879297941EA002002282CD132
:100D0000194CAA782AB3002003E0217801B10C44E1
:100D1000401C411C8A42F8D82078C8B103F0B2F9CF
:100D20000146E01CFBF7C7FB104A01261460E97975
:100D3000AB79207843EA012181420BD90C4990809C
:100D40000978491E084206D10A490120087002E0CC
:100D5000002602E09180FFF77BFD304670BD000069
:100D600074050020289701083C0400206C05002031
:100D7000079701085C05002010B5154A15490024A5
:100D800050780978884220D15079117941EA0020C1
:100D900007281AD1114B104801241860417A007AB3
:100DA00040EA0121D079927942EA0020884209D9AB
:100DB0000B4899800078401E014204D10949012066
:100DC000087000E09880FFF743FD204610BD00004A
:100DD0007405002029970108EC0200206C05002012
:100DE000079701085C050020074800214170C16099
:100DF00001614161418081808161C161C180018166
:100E000001624181704700007C0500202DE9F04718
:100E1000494EB08871884A4FDFF820817D1C00243C
:100E2000884216D3B069A0B97461B48001233978BF
:100E30007A1C184607F0A0F87080708848B1776176
:100E400098F80000012801D8756102E07088401C04
:100E5000708070884FF00109B0BBF06808B1F46091
:100E600032E0316981B398F8000001280DD83C7058
:100E7000B48002237A1C0021012007F07DF87080E5
:100E8000708800B1756134611EE03D78C846202D40
:100E900000D3002508FA05F0084218D0681CC1B23A
:100EA0003970B48002237A1C012007F065F8708045
:100EB000708818B177617088401C7080306908FABA
:100EC00005F820EA08003061708830B902E06D1C36
:100ED000EDB2DCE7B069002829D07088B188DFF86E
:100EE0006880401A85B2174F98F8000037F8100054
:100EF000A84200D205461548007828B140F080008D
:100F00002A46716901F034FC706911492844706106
:100F1000B088284480B2B0800988884209D298F805
:100F2000000037F81000A84203D1C6F81890BDE8B9
:100F3000F087B461FBE700007C05002012970108F0
:100F4000A82300200E9701085B05002008970108E0
:100F500014970108034804498078085C0349087025
:100F600001207047740500208604002068230020BB
:100F700010B506F0FFFF02490870012010BD000007
:100F8000682300200B4910B5C8780022012804D03E
:100F9000022804D0032806D103E0074A02E000201B
:100FA00010BD064A521C8978002306F0E5FF012097
:100FB00010BD000074050020A82300208704002035
:100FC0002DE9FC5F4548007800287DD0444D04237E
:100FD00000262978B146481C28704248007800EB6A
:100FE000400293405B1E0192994202DB85F800901B
:100FF00001263D4A00241188FF2901D2491C118095
:101000003A4931F81000384900900988884200D1E7
:10101000012439490020DFF8D8804FF0010BDFF8B8
:10102000D4A091F800E045E0002276B11AF8001053
:101030005346FF2901D2491C195418F8001021B158
:101040001AF800308B4200D30122019918F8007081
:1010500002238B4007FA03F1009B994202DA0FB199
:10106000012300E000233CB133B1D5F810C00BFAE6
:1010700000F141EA0C0129612049095C8F420ED040
:101080001AF800708F4208D3D5F810C00BFA00F799
:1010900047EA0C072F6185F8009008F800103AB174
:1010A00023B92A690BFA00F1114329610AF800906B
:1010B000401CC0B27045B7D314B10B49A1F80090E1
:1010C0002869002808D000E006E06888002803D1DD
:1010D000BDE8FC5FFFF79ABEBDE8FC9F5905002004
:1010E0007C0500205B050020820400200A9701088F
:1010F0008504002084040020129701088604002043
:10110000094809498078C97810B1084A815409E032
:10111000084A0020064B127802E01954401CC0B265
:101120009042FAD301207047740500208504002006
:101130008604002012970108034810B5807806F055
:10114000ADFF012010BD00007405002038B50D4929
:101150000022C878012804D0022804D0032806D130
:1011600003E0002038BD084A00E0084A521C002372
:101170000093CB798C79897844EA032306F090FFB9
:10118000012038BD74050020E923002087040020D9
:101190002DE9F041EFF3108010F0010F72B6DFF887
:1011A000E8804FF00002D8F81040C8F8102000D1B5
:1011B00062B6600507D501F033FA07F025F8334829
:1011C000006800B18047200505D501F0BBFA304822
:1011D000006800B18047E00405D501F0BFFA2D4852
:1011E000006800B18047A00503D52B48006800B116
:1011F00080472A4D600403D5296809B10220884739
:10120000274FA0042BD5296849B3012026E0EFF32E
:10121000108010F0010F72B622484FF00B0250F808
:10122000210001F10101B1FBF2F602FB1611C8F831
:10123000081000D162B686B2050C280604D557F80E
:10124000261009B108208847280408D557F8261029
:1012500029B1280501D5022000E004208847200498
:101260000FD5EFF3108000F0010272B6D8E902103A
:10127000814201D1012000E0002002B962B60028BD
:10128000C5D0BDE8F08100008C040020349701082F
:10129000389701083C9701084097010844970108D6
:1012A000489701082C250020064810B5C16941F473
:1012B0000001C1611420FEF795F903494FF4004085
:1012C000086010BD00100240100C014070B500F025
:1012D0001FF900282AD016480224164E04704470C4
:1012E00003203463307014480546FBF743FA0228A4
:1012F00008D9114920461F39FBF747FA29462046ED
:10130000FBF743FA0D4822460949007840F0800077
:1013100001F02EFA2846FBF72DFA316B401A2946C8
:10132000FBF733FA044901200839087370BD000047
:101330002A240020A0050020EF2C00201697010889
:10134000114910B50878022808D0032810D00428C5
:1013500012D0052801D10020087010BD0B48C07BB9
:10136000282801D0A828F8D1BDE8104000F086BA9E
:10137000BDE8104000F0A8BD0548007840F08000AE
:1013800000F0BCFDF4E70000A0050020C82C002000
:1013900016970108204A10B5117869B301290ED0BB
:1013A0001E48052900781BD007292BD000F0A6FD88
:1013B0001B4902200873BDE8104000F085BD1848A5
:1013C0001F38C07B2A2803D02F2805D0AA2822D175
:1013D000BDE8104000F030BBBDE8104000F0BCBAE2
:1013E000012181400F480068014201D0012000E046
:1013F00000204FF4886200E009E0BDE810400AA137
:1014000001F082BA00201070106B1F2803D1BDE8D4
:10141000104000F0E9B810BDA005002017970108A2
:10142000E72C0020640500202E2E5C2E2E5C2E2E34
:101430005C736F757263655C7573625C6D73635C1E
:10144000757362645F6D73632E63000010B5134C97
:101450006068E06008B1012010BD1148FBF78AF90F
:10146000A0B10F480838007B000604D50D4800786D
:1014700040F0800008E00A481F30FBF77BF9216B41
:10148000884203D00848007800F038FD0449012064
:101490001731087300F018FD002010BDA0050020D2
:1014A000D02C00201697010817970108134810B593
:1014B000007900F08F01080605D501F00F004FF408
:1014C0008032824001E001228A400D48007840F0DD
:1014D00080048C4210D10B48006810420CD00A489E
:1014E000FBF748F90949884206D12046BDE810407B
:1014F0000D22054901F03CB910BD00007405002023
:101500001697010864050020E72C0020555342532C
:1015100070B50B48FBF72EF9094C0225173440B182
:10152000A4F11F00007B000608D40648007800F0F4
:10153000E5FC257300F0C8FC002070BD012070BDE3
:10154000D02C00201797010870B51148FBF712F94D
:10155000104C216B884202D82063032000E0042055
:1015600020700D480D49226B007840F0800001F09A
:10157000FFF807481F300546FBF7FCF8216B401ABF
:101580002946FBF702F9024900201731087370BDA4
:10159000D02C0020A0050020169701082A24002046
:1015A000064810B5028807480549007800F008FD94
:1015B00005490863BDE81040FFF7ECBE1C97010821
:1015C0002A24002017970108A005002010B5044622
:1015D000400702D50020FFF7E3FF200703D5BDE851
:1015E0001040FFF7ADBE10BD2DE9F05F7A4E326BB3
:1015F0001F2A01D2134600E01F230020774D7849AF
:1016000002E00C5C2C54401C9842FAD3DFF8D881DD
:101610000127DFF8D0A198F800001F2A40F0800BC6
:1016200069D16E48FBF7A6F87049884263D1281D3E
:10163000FBF7A0F8694C1F34211DFBF7A6F8A4F1B5
:101640001700FBF797F804F10801FBF79EF8687B99
:1016500018B9A87B08B1102801D9277389E0E87B65
:101660004FF002092A283ED022DC1A2850D00FDC85
:101670000428F2D006DCE8B30328EED1BDE8F05F21
:1016800000F0A0BB1228E8D1BDE8F05F00F0BAB8C6
:10169000232845D007DC1B2836D01E28DDD1BDE825
:1016A000F05F00F0DDB825283ED02828D5D147E0EE
:1016B0009E2841D00FDC5528CFD004DC2F2853D0F2
:1016C0003528CAD103E05A2826D09128C5D1BDE8D3
:1016D000F05F00F043BCA1282AD0A3285CD0A82842
:1016E0002ED0AA28B9D100F0A9FA002806D0287B6C
:1016F000000601E004E053E049D43770BDE8F09FF4
:10170000BDE8F05F00F032BCBDE8F05F00F00CBC5B
:10171000BDE8F05F00F062BABDE8F05F00F02ABA01
:10172000BDE8F05F00F010BBBDE8F05F00F0E4BA88
:10173000BDE8F05FFFF7CABDBDE8F05F00F098BB01
:1017400000F07CFA0028D9D0287B000605D586F861
:101750000090BDE8F05F00F091B89AF8000000F04A
:10176000CDFB84F80C9004E0287C800705D4002091
:101770002073BDE8F05F00F0A7BB00F05FFA00281F
:10178000BCD0287B000602D437703762B6E798F8E1
:10179000000040F08000E2E7584600F0AFFB5CE755
:1017A0004446584600F0AAFB2078114C00F00F0187
:1017B0004FF48030884021685546084320609AF8ED
:1017C000000000F09BFB2878874020680743062034
:1017D0002760307092E70000A0050020C82C002090
:1017E0002A240020179701081697010855534243F1
:1017F00068050020024900200870012070470000A1
:101800006823002010B5FFF783FE002820D0114B7D
:10181000002080211870597002219970D9702024FD
:101820001C7158719871D8710B48016808200A78AA
:1018300012B11A54491C00E01C54401CC0B22428A8
:10184000F5D3064924200863BDE81040FFF77CBEAD
:1018500010BD00002A24002038040020A00500202C
:101860000548C07CC107044800F11F0000D00121D9
:10187000017300F029BB0000C82C00202DE9F041C5
:10188000304D314FDFF8C480A969686A002688426C
:101890000AD33878002440F0800000F02FFB88F84D
:1018A0000C6000F011FB08E02A492948097830F85B
:1018B0001140E86A844200D30446FFF7C7FD00B92F
:1018C0000024A86A68B374B1A96AE8692246014491
:1018D000387840F0800000F04BFFA86A2044A862EE
:1018E000E86A001BE862D5E90410AA6A4143914204
:1018F00003D1AE62696A084468621448083007463A
:10190000FAF738FF001B3946FAF73FFF002C06D0E4
:10191000E86A002803D10320287088F80C60BDE82D
:10192000F081002CDFD0E96A28690144491EB1FB2F
:10193000F0F26869824200D90246E969686A06F0F5
:101940001BFCC1E7A005002016970108E72C00202A
:10195000189701085B0500202DE9F041324EDFF8B1
:10196000CC800025B169706A884208D3304835635D
:10197000007800F0C3FA88F80C5000F0A5FAFFF7E1
:1019800065FD20B1306B10B3B06A10B10FE0356364
:101990001DE0F16A30690144491EB1FBF0F2706943
:1019A000824200D90246F169706A06F0E5FB002028
:1019B000204A336BB16A08E0F7690C183C5D175C8C
:1019C000BC4201D0356202E0401C9842F4D3346B33
:1019D000B06A0119B162F06A071BF762D6E9042008
:1019E00042438A4203D1B562716A084470620F486B
:1019F00008300546FAF7BEFE001B2946FAF7C5FE79
:101A0000002C0ED017B1307805280AD1306A30B1D9
:101A1000002088F80C00BDE8F04100F055BA012024
:101A2000F7E7BDE8F0810000A0050020E72C0020CA
:101A3000179701082A2400202DE9F041DFF80081E2
:101A4000404F0026D8F81810D8F82400884208D350
:101A50003D48C8F83060007800F050FA3E7300F05E
:101A600033FAFFF7F3FC08B9C8F83060D8F8301043
:101A7000D8F828000844D8F81010884206D9BDE8E4
:101A8000F041FF2231A1002000F03EBF0020384984
:101A900007E0D8F82830D8F81C400A5C0344401C02
:101AA000E254D8F830209042F3D3D8F8280011003F
:101AB0000844C8F82800D8F82C20A2EB0102C8F886
:101AC0002C2022D0454692B988B129690844401E8D
