:020000040800F2
:10C000001847002001C1000801E1000801E1000813
:10C0100001E1000801E1000801E100080000000062
:10C0200000000000000000000000000001E1000826
:10C0300001E100080000000001E100084D0A0108CC
:10C040001BC100081BC100081BC100081BC1000860
:10C050001BC100081BC100081BC100081BC1000850
:10C060001BC100081BC100081BC1000839D600080D
:10C0700059D6000879D60008A5D60008D1D6000800
:10C08000FDD6000829D700081BC100081BC1000805
:10C09000993C01081BC100081BC100081BC1000816
:10C0A0001BC100081BC100081BC100081BC1000800
:10C0B0001BC100081BC100081BC100081BC10008F0
:10C0C0001BC100081BC100081BC100081BC10008E0
:10C0D0001BC10008ED0E0108FD0F01081BC100087F
:10C0E0001BC100081BC100081BC10008DFF80CD0F1
:10C0F00000F03CF800480047AD3E0108184700201A
:10C100000648804706480047FEE7FEE7FEE7FEE7F1
:10C11000FEE7FEE7FEE7FEE7FEE7FEE7D10B0108DC
:10C12000EDC0000840EA01039B0703D009E008C9FD
:10C13000121F08C0042AFAD203E011F8013B00F8EC
:10C14000013B521EF9D27047D2B201E000F8012B38
:10C15000491EFBD270470022F6E710B513460A4687
:10C1600004461946FFF7F0FF204610BD064C074D68
:10C1700006E0E06840F0010394E8070098471034B7
:10C18000AC42F6D3FFF7B6FF7046010890460108AF
:10C1900010B50A48806940F01C00084988610849C8
:10C1A000084801F029FD0849084801F025FD084923
:10C1B000084801F021FD03F035F810BD00100240E1
:10C1C000544301080008014058430108000C014095
:10C1D0005C4301080010014038B51B49C86A80471C
:10C1E0000090C0F3400068B3184804681649486AD4
:10C1F0008047044416480068241AB4F5806F05DBB4
:10C20000134800682044124908600024002C19DDFE
:10C210000F480068C0F30900C0F58065AC4200DD3E
:10C220002C460B490968C1F309010A4A88182146BE
:10C2300006F09CF90446002C04DD05480068204403
:10C240000349086038BD00004C4401086C00002020
:10C250007000002014330020002005490870487049
:10C2600004490870044908600449086070470000E8
:10C27000280000202A0000202C0000203000002090
:10C2800070B505460E46287808B9012400E02C78E0
:10C29000012C02D0022C0CD105E0012008490870C5
:10C2A00003F07AF907E002200549087003F02AF943
:10C2B00001E0002400BF00BF34704FF0011070BDDA
:10C2C0001401002030B502460B461078547840EA3D
:10C2D00004210B4800680B4CB0FBF4F0801C0324D5
:10C2E000B0FBF4F041430846044600BF00BF651EA2
:10C2F0002C1EFCD100BF00201870034830BD000088
:10C300000C00002040420F000100020010B504465E
:10C3100000200449087003F021F90020207001205A
:10C3200010BD00001401002030B502461546521C15
:10C3300012F8014B0BE012F8013B03F0020020B1B0
:10C3400003F0100010B1121D00E0121D641E002C3D
:10C35000F1D1002008704870501B0004801C30BDD3
:10C3600070B504460D46207810B1012810D107E0C1
:10C37000627802F001000B4A1268116888470BE0EE
:10C38000627802F00100074A12685168884703E0AA
:10C39000FF202870044870BD00BF002028700248AC
:10C3A000F9E70000040000200100020070B5064615
:10C3B0000C460025062E1FD006DC062E3CD2DFE8F8
:10C3C00006F03B101112131AFD2E22D004DCF02EC1
:10C3D00013D0F12E30D11BE0FE2E29D0FF2E2BD111
:10C3E00020E02AE029E028E006252A4614492046D4
:10C3F000FFF798FE21E020E01FE01248006808B136
:10C40000202000E0002040F017002070012514E0FB
:10C4100013E000202070102060700020A070E070F9
:10C4200004250AE04020207000206070022504E00E
:10C4300040202070012500E000BF00BF284670BDED
:10C44000604301080C000020F0B502460E4612F8C9
:10C45000013B124883760025002109E012F8014BC8
:10C460000E481C304454083020F811502544491C13
:10C470009942F3D3002108E008481C30405C2D1A93
:10C480000648343020F81150491C9942F4D300205A
:10C490003070581C0004401CF0BD00001401002046
:10C4A00070B506460C4612480078022800D019E004
:10C4B00031780F48C176C07E0D49897E884200DB05
:10C4C00010E00E2001F060FE02F058F80546002052
:10C4D00020706570280AA070280CE070280E20716A
:10C4E000044870BDFF2020704FF00110F9E70000F4
:10C4F00014010020050001002DE9F04704460E4616
:10C50000002006F8010B4FF001084FF0010914F864
:10C5100001AB14E014F8017B07F03F0505B9402595
:10C52000E81DC50832462146384602F0FBF82C4487
:10C53000681C804407F0800008B12E44A944BAF179
:10C540000000AAF1010AE5D149EA0840BDE8F087F8
:10C550002DE9F04F87B005460C4606950020049063
:10C5600000260594A41CE44908708146039015F840
:10C57000011BE248C176C07EE049897E884200DB2B
:10C58000ABE115F801BB4AE115F8017B07F00100AA
:10C5900008B10B2000E00A20824607F002000028C4
:10C5A00079D00398002846D0D448B0F81080D145FF
:10C5B00014D107F0100088B900BF6946384602F070
:10C5C00001F90646022E24D1B8F10000A8F10108B5
:10C5D0001FD0C94800780028EFD01AE0B9F10A0F3F
:10C5E00004D04FF00A09484601F0CEFD00BF69466D
:10C5F0000E2002F0E7F80646022E08D1B8F100003E
:10C60000A8F1010803D0BC4800780028EFD0002032
:10C610000390012E00D006E1009804F8010B009869
:10C62000000A04F8010B0098000C04F8010B0098B4
:10C63000000E04F8010B07F01000002860D02878E5
:10C64000697840EA0120A97840EA0140E97840EAA7
:10C65000016002902D1DA948408A0190D14503D068
:10C66000D146484601F090FDA448B0F8108000BFC4
:10C670000021384602F0A6F80646022E08D1B8F18D
:10C680000000A8F1010803D09B4800780028EFD0F3
:10C69000012E01D0C7E056E000BF9848B0F81080E6
:10C6A00000BF6946384602F08DF80646022E08D1D2
:10C6B000B8F10000A8F1010803D08F4800780028E5
:10C6C000EFD0012E00D00EE08C4840690099084060
:10C6D0000299884207D00198411E019118B18648FD
:10C6E00000780028D9D000BF8448406900990840EC
:10C6F0000299884201D046F01006012E22D092E025
:10C70000039800281ED1D14503D0D146484601F0F8
:10C710003BFD7A48B0F8108000BF0021384602F097
:10C7200051F80646022E08D1B8F10000A8F1010820
:10C7300003D0714800780028EFD0012E00D072E0BD
:10C740000120039062E0039878B3B9F10A0F04D096
:10C750004FF00A09484601F017FD6848B0F810800C
:10C7600000BF69460E2002F02DF80646022E08D1C1
:10C77000B8F10000A8F1010803D05F480078002854
:10C78000EFD0012E00D04EE0009804F8010B009885
:10C79000000A04F8010B0098000C04F8010B009843
:10C7A000000E04F8010B002003902878697840EA15
:10C7B0000120A97840EA0140E97840EA0160009050
:10C7C0002D1D07F0200020B14C4800994161012641
:10C7D0001CE0D14503D0D146484601F0D5FC47487E
:10C7E000B0F8108000BF6946384601F0EBFF0646FE
:10C7F000022E08D1B8F10000A8F1010803D03E488C
:10C8000000780028EFD0012E00D00CE00498401CE6
:10C8100004903948007800B105E0ABF1010BBBF1A1
:10C82000000F7FF4B1AE00BF0CE015F8017B07F0FC
:10C83000020020B107F0100010B12D1D00E02D1DE9
:10C84000ABF1010BBBF1000FEFD1012E44D1B9F1D7
:10C850000A0F04D04FF00A09484601F095FC0398EE
:10C8600030B32648B0F8108000BF69460E2001F0B2
:10C87000A9FF0646022E08D1B8F10000A8F1010870
:10C8800003D01D4800780028EFD0012E00D024E00E
:10C89000009804F8010B0098000A04F8010B0098B6
:10C8A000000C04F8010B0098000E04F8010B13E0D3
:10C8B0001248B0F8108000BF00210E2001F082FF66
:10C8C0000646022E08D1B8F10000A8F1010803D0F5
:10C8D000094800780028EFD000BF0498C1B205983D
:10C8E0000170059846700598211A0698281A41EAA1
:10C8F000004007B0BDE8F08F2000002014010020A8
:10C900002DE9FC5F04460D464FF0000B0026A846BB
:10C91000ED1C00206049087014F8011B5F48C176C7
:10C92000C07E5E49897E884200DBA9E0207861787C
:10C9300040EA0127A41C07B9A2E014F801AB0AF0F1
:10C94000010008B10B2000E00A200090009801F0DF
:10C950001BFC0AF0020000284DD05048B0F810909F
:10C9600000BF0021504601F02DFF0646022E08D1DF
:10C97000B9F10000A9F1010903D047480078002867
:10C98000EFD0012E00D07BE030E03FB900980A28BC
:10C9900002D00A2001F0F8FB4FF00E0A3F48B0F831
:10C9A000109000BF01A9504601F00CFF0646022E70
:10C9B00008D1B9F10000A9F1010903D03648007887
:10C9C0000028EFD0012E00D05AE0019805F8010BA5
:10C9D0000198000A05F8010B0198000C05F8010BFD
:10C9E0000198000E05F8010B0BF1010B381EA7F1A1
:10C9F0000107CAD143E024E02078617840EA0120B1
:10CA0000A17840EA0140E17840EA01600190241DEC
:10CA10002248B0F8109000BF01A9504601F0D2FEA4
:10CA20000646022E08D1B9F10000A9F1010903D090
:10CA3000194800780028EFD0012E00D020E00BF13B
:10CA4000010B381EA7F10107D6D100980A2802D0A1
:10CA50000A2001F099FB1148B0F8109000BF0021A6
:10CA60000E2001F0AFFE0646022E08D1B9F10000FB
:10CA7000A9F1010903D0084800780028EFD000BFD1
:10CA800088F800B04FEA1B2088F8010088F802609F
:10CA9000A5EB0800BDE8FC9F200000201401002049
:10CAA00070B504460D4621780F48C176C07E0E4908
:10CAB000897E884203DBFF202870012070BD08209A
:10CAC00001F062FB6078A17840EA0120E17840EA59
:10CAD0000140217940EA0166304602F039FA00202F
:10CAE00028700120EAE700001401002070B5054617
:10CAF0000E462878802807D328789F2804D8314606
:10CB0000284600F0BBF870BD287806F8010B15F830
:10CB1000010B1F2872D2DFE800F010191F25656B8A
:10CB200072A7782A30A7A7A7A7A7353B4147535933
:10CB30005F7E848A9096A14D9B002878711CFFF738
:10CB400035FC0446347004F10210DCE73146284617
:10CB5000FFF706FC04468DE031462846FFF790FBC0
:10CB6000044687E03046FFF7D1FB044682E03146B9
:10CB70002846FFF7A7FB04467CE0304600F084F827
:10CB8000044677E03146284600F0C6FB044671E0D3
:10CB90003146284600F084FB04466BE031462846C7
:10CBA00000F080FC044665E03146284600F074F849
:10CBB00004465FE03146284600F082F8044659E01A
:10CBC00031462846FFF798FC044653E03146284694
:10CBD000FFF73AFC04464DE031462846FFF760FC7B
:10CBE000044647E03146284600F0ECFC044641E0AC
:10CBF0003146284600F092FC04463BE034E03146E2
:10CC0000284600F0ADFC044634E03146284600F0EA
:10CC1000F1FC04462EE03146284603F057FE044658
:10CC200028E03146284603F007FE044622E031465C
:10CC3000284603F033FD04461CE03146284603F045
:10CC40005BFD044616E0304603F02AFE044611E080
:10CC50003146284603F0CAFD04460BE0314628461B
:10CC600003F07AFD044605E0FF2006F8010C4FF0C2
:10CC7000011048E700BF04F1011044E70246FF201D
:10CC800008704FF001107047014600BF0120487046
:10CC9000002008700220704710B50246137803F098
:10CCA0000300401C054C2076C3F3800403484476FF
:10CCB000002008704FF0011010BD0000140100208A
:10CCC0002DE9F04704460E46002006F8010B4FF010
:10CCD00001084FF0010914F801AB33E014F8017BAF
:10CCE00007F03F0505B94025E81DC50807F080009D
:10CCF00088B100BF00BF00BF1748006820F0706017
:10CD000040F00060144908604FF4804012490C3133
:10CD1000086000BF01E002F09BFB32462146384626
:10CD200002F07AFEBAF1000F01D102F091FB07F098
:10CD3000800020B108F101082E44A94402E02C44EF
:10CD4000681C8044BAF10000AAF1010AC6D149EA80
:10CD50000840BDE8F0870000040C01402DE9F04FC9
:10CD600087B005460C460695002005900026A24691
:10CD7000A41CE0490870834604906D1C15F8019BC3
:10CD800050E115F8017B07F0020000287ED0BBF1CE
:10CD9000000F3DD0D848B0F8108007F011000128EE
:10CDA00011D100BF01A9384602F098FE0646022EB6
:10CDB0001CD1B8F10000A8F1010817D0CD480078C7
:10CDC0000028EFD012E000BF01A90E2002F086FE7D
:10CDD0000646022E08D1B8F10000A8F1010803D0E0
:10CDE000C44800780028EFD04FF0000B012E00D08F
:10CDF0001CE1019804F8010B0198000A04F8010BEA
:10CE00000198000C04F8010B0198000E04F8010BC6
:10CE100007F0100000285ED02878697840EA0120E9
:10CE2000A97840EA0140E97840EA016003902D1DAD
:10CE3000B148408A029007F00100B0B1AE48B0F8A6
:10CE4000108000BF0021384602F048FE0646022E40
:10CE500008D1B8F10000A8F1010803D0A548007876
:10CE60000028EFD0012E00D0E0E000BFA248B0F8CB
:10CE7000108000BF01A9384602F030FE0646022E9F
:10CE80000AD1B8F10000A8F1010800E069E003D080
:10CE9000984800780028EDD0012E00D00EE096488A
:10CEA0004069019908400399884207D00298411EC1
:10CEB000029118B18F4800780028D7D000BF8E4863
:10CEC0004069019908400399884201D046F0100654
:10CED000012E43D0AAE08848B0F8108007F0010086
:10CEE000C8B1BBF1000F39D100BF0021384602F0B4
:10CEF000F5FD0646022E08D1B8F10000A8F10108A0
:10CF000003D07C4800780028EFD0012E00D08DE0BF
:10CF10004FF0010B22E000BF01A9384602F0DEFD10
:10CF20000646022E08D1B8F10000A8F1010803D08E
:10CF3000704800780028EFD0012E00D076E00198EC
:10CF400004F8010B0198000A04F8010B0198000C89
:10CF500004F8010B0198000E04F8010B0020049066
:10CF600057E0BBF1000F27D06348B0F8108000BF36
:10CF700001A90E2002F0B2FD0646022E08D1B8F13A
:10CF80000000A8F1010803D05A4800780028EFD02B
:10CF9000012E00D04AE0019804F8010B0198000A24
:10CFA00004F8010B0198000C04F8010B0198000E25
:10CFB00004F8010B4FF0000B2878697840EA012053
:10CFC000A97840EA0140E97840EA016001902D1D0E
:10CFD00007F0200020B1484801994161012618E07E
:10CFE0004548B0F8108000BF01A9384602F076FD30
:10CFF0000646022E08D1B8F10000A8F1010803D0BE
:10D000003C4800780028EFD0012E00D00EE001202F
:10D0100004900598401C05903648007800B105E062
:10D02000A9F10109B9F1000F7FF4ABAE00BF0CE02C
:10D0300015F8017B07F0020020B107F0100010B1D5
:10D040002D1D00E02D1DA9F10109B9F1000FEFD14F
:10D05000012E3FD1BBF1000F26D02748B0F8108039
:10D0600000BF01A90E2002F039FD0646022E08D1AC
:10D07000B8F10000A8F1010803D01E48007800288C
:10D08000EFD0012E00D026E0019804F8010B0198A2
:10D09000000A04F8010B0198000C04F8010B019838
:10D0A000000E04F8010B15E0049898B11248B0F88E
:10D0B000108000BF00210E2002F010FD0646022E57
:10D0C00008D1B8F10000A8F1010803D009480078A0
:10D0D0000028EFD000BF05988AF800008AF80160A8
:10D0E000A4EB0A010698281A41EA004007B0BDE8FF
:10D0F000F08F000020000020140100202DE9F84FDF
:10D1000004460D464FF0000B0026A846ED1C0020FB
:10D1100056490870641C2078617840EA012AA41CF2
:10D12000BAF1000F00D195E014F8017B07F002007E
:10D1300000284FD007F00100B0B14D48B0F8109072
:10D1400000BF0021384602F0C9FC0646022E08D175
:10D15000B9F10000A9F1010903D044480078002882
:10D16000EFD0012E00D075E02EE0BAF1000F03D110
:10D1700007F0010000B10E273D48B0F8109000BF45
:10D180006946384602F0AAFC0646022E08D1B9F1DB
:10D190000000A9F1010903D0344800780028EFD03D
:10D1A000012E00D056E0009805F8010B0098000A07
:10D1B00005F8010B0098000C05F8010B0098000E13
:10D1C00005F8010B0BF1010BBAF10000AAF1010AFD
:10D1D000CBD13EE024E02078617840EA0120A178BC
:10D1E00040EA0140E17840EA01600090241D2048B7
:10D1F000B0F8109000BF6946384602F06FFC064652
:10D20000022E08D1B9F10000A9F1010903D0174895
:10D2100000780028EFD0012E00D01BE00BF1010BAD
:10D22000BAF10000AAF1010AD5D11148B0F8109066
:10D2300000BF00210E2002F051FC0646022E08D14C
:10D24000B9F10000A9F1010903D0084800780028CD
:10D25000EFD000BF88F800B04FEA1B2088F801002B
:10D2600088F80260A5EB0800BDE8F88F20000020D8
:10D270001401002038B504460D466078A17840EAD4
:10D280000120E17840EA0140217940EA0160009004
:10D290006946002002F022FC00202870012038BDE1
:10D2A00030B502460C461078557840EA052095784E
:10D2B00040EA0540D57840EA05631BB9FF2020709D
:10D2C000124830BD12480068B3EB900F04D3012020
:10D2D000104D6870686014E000200E4D6870581E94
:10D2E0000B4D2D6800EB5500B0FBF3F1022905D979
:10D2F000891E881C0325B0FBF5F100E001210548DB
:10D300004160002020700148DBE7000001000400BC
:10D310000C000020140100202DE9F0470646884645
:10D3200034787578B078F17840EA0120317940EAB4
:10D330000140717940EA016905F0010088B104F00B
:10D34000010030B100BF4FF400505249086000BFE7
:10D3500007E000BF4FF400504E49091D086000BFB0
:10D3600000BF05F0020088B104F0020030B100BF38
:10D370004FF480404749086000BF07E000BF4FF40A
:10D3800080404449091D086000BF00BF05F004004B
:10D3900070B1C4F3870000F0010119B180213E4A49
:10D3A000116003E080213C4A121D116000BF00BFE4
:10D3B00005F0200018B1C4F3471000BF00BF05F00E
:10D3C000800018B1C4F3C71006F052FFB9F1000F86
:10D3D0003ED04FF0010900BF3048476800BF00BF92
:10D3E00005F0010020B101F0B7FF604000B128E076
:10D3F00005F0020028B102F057F880EA540000B1AD
:10D400001FE005F0040028B102F05EF880EA940005
:10D4100000B116E005F0200028B100BF002080EA2E
:10D42000541000B10DE005F0800048B100BF19486C
:10D430000838006800F0010080EAD41000B100E074
:10D4400005E000BF15484068C01B4845C8D300BF71
:10D4500001F082FF824602F027F84AEA400A02F011
:10D4600033F84AEA80010C4808380068C0F34010DD
:10D4700041EAC000002140EA41110648083800682E
:10D4800000F0010041EAC01488F800400448BDE8FB
:10D49000F0870000100C014010080140001000E06F
:10D4A0000100060070B504460E4614F8015B0DB984
:10D4B0004FF480752146284603F0B0F80020307004
:10D4C000E81DC508681C0004401C70BD10B5002094
:10D4D0000F49087048700F48006840080E49B0FBBB
:10D4E000F1F0801E0A494860002008736421084852
:10D4F0000182002141824161012005490876002115
:10D500000348417600200249887602F027F810BDD2
:10D51000140100200C0000208096980070B505468C
:10D520000E460E480078012802D002280CD105E0F2
:10D5300031462846FFF712FC04460BE031462846E8
:10D54000FFF706F8044605E031462846FEF7ECFEF4
:10D55000044600BF00BF204670BD0000140100203B
:10D5600070B505460E4616480078012802D00228FC
:10D570000CD105E031462846FFF7C0FD04460BE01C
:10D5800031462846FFF7BCF9044605E0002030701C
:10D590007070B070032400BF00BFE87800F0020094
:10D5A00010B144F4802408E06878A97840EA0120AA
:10D5B000042101EB800044EA0044204670BD0000D5
:10D5C0001401002002461078084B187350789378A5
:10D5D00040EA032305480382D078137940EA032305
:10D5E000024843820020087001487047140100205F
:10D5F0000100050070B506460D460D48007801286B
:10D6000002D002280CD105E029463046FFF732FE51
:10D61000044609E029463046FFF742FA044603E093
:10D62000FF202870012400BF00BF44F4A02070BD7B
:10D63000140100207047000010B50548006800F094
:10D640000F04034844602046FFF7F4FF10BD0000BC
:10D65000000002407047000010B505480068C0F3A4
:10D6600003142001024948602046FFF7F3FF10BD74
:10D67000000002407047000010B505480068C0F384
:10D6800003242002024948602046FFF7F3FF10BD43
:10D690000000024010B50446014804F096FE10BD9B
:10D6A0008443010810B505480068C0F30334200323
:10D6B000024948602046FFF7EDFF10BD0000024020
:10D6C00010B50446014804F0E5FC10BD8443010890
:10D6D00010B505480068C0F30344200402494860BF
:10D6E0002046FFF7EDFF10BD0000024010B50446D4
:10D6F000014804F0CFFC10BDDC43010810B505481B
:10D700000068C0F303542005024948602046FFF733
:10D71000EDFF10BD0000024010B50446014804F0C2
:10D7200054FE10BDDC43010810B505480068C0F385
:10D7300003642006024948602046FFF7EDFF10BD54
:10D740000000024070B505460C46012D71D13A48E3
:10D75000406940F0010038494861082C60D2DFE898
:10D7600004F05F04101C29364350002033498860C0
:10D770000F2048600B2006F051FB0B2006F07AFBCF
:10D780004EE000202D49C861F02048600C2006F0D2
:10D7900045FB0C2006F06EFB42E0002027490863A1
:10D7A0004FF4706048600D2006F038FB0D2006F045
:10D7B00061FB35E00020214948644FF47040486027
:10D7C0000E2006F02BFB0E2006F054FB28E0002074
:10D7D0001A4988654FF4702048600F2006F01EFB40
:10D7E0000F2006F047FB1BE000201449C8664FF4E9
:10D7F00070004860102006F011FB102006F03AFB84
:10D800000EE000200D49803108604FF070600B4938
:10D810004860112006F002FB112006F02BFB00BF30
:10D8200000BF0120A0400649097808430449087058
:10D8300000BF00BF70BD00000010024000000240A9
:10D840003C00002070B505460C46012D4ED12948FC
:10D85000007800B970BD082C37D2DFE804F0360438
:10D860000B121920272E0B2006F0E6FA0020224981
:10D8700088602AE00C2006F0DFFA00201E49C8610B
:10D8800023E00D2006F0D8FA00201B4908631CE0B5
:10D890000E2006F0D1FA00201749486415E00F2049
:10D8A00006F0CAFA0020144988650EE0102006F040
:10D8B000C3FA00201049C86607E0112006F0BCFA40
:10D8C00000200D498031086000BF00BF0120A0404A
:10D8D00008490978814307480170007828B907484A
:10D8E000406920F001000549486100BF00BF00BF4A
:10D8F000B0E700003C0000200000024000100240A1
:10D900000749096842F22832B1FBF2F14843014667
:10D910000A4600BF00BF531E1A1EFCD100BF70474D
:10D920000C00002030B500F00F010D4C04EB81031A
:10D93000D3F8002C00F0800343B148F6CF731340B6
:10D94000254605EB8104C4F8003C07E04CF68F73D4
:10D950001340034D05EB8104C4F8003C30BD0000CA
:10D960000050004070B500F00F02104D05EB82042E
:10D97000D4F8003C00F080045CB101F030045C405D
:10D9800048F6BF752C40094E06EB8205C5F8004CE1
:10D990000AE001F440545C404BF68F752C40034E76
:10D9A00006EB8205C5F8004C70BD00000050004039
:10D9B00030B5044604254FF4302000F06FF80546DA
:10D9C000042D17D10C48006940F002000A49086193
:10D9D00008464461006940F0400008614FF430207F
:10D9E00000F05CF805460448006941F6FD71084006
:10D9F00001490861284630BD0020024004200B493F
:10DA0000C96801F0010109B101200EE00749C968A8
:10DA100001F0040109B1022007E00449C96801F0DE
:10DA2000100109B1032000E00420704700200240EB
:10DA30000348006940F08000014908617047000018
:10DA40000020024070B504460D460426F00200F0A6
:10DA500025F80646042E11D10948006940F001005E
:10DA6000074908612580F00200F018F806460448CE
:10DA7000006941F6FE71084001490861304670BDF9
:10DA8000002002400248034948600348486070474C
:10DA90002301674500200240AB89EFCD00B5024667
:10DAA0000423FFF7ABFF034603E0FFF7A7FF03469E
:10DAB000521E012B01D1002AF7D102B905231846C5
:10DAC00000BD000018B5002844D0C0F34211C0F3D7
:10DAD0000322214B9B6903F001032BB91E4B9B6969
:10DAE00043F001031C4CA36100F48053A3B11B4B12
:10DAF000DB69009300F01F0301FA03F3009C9C43D1
:10DB0000009400F01F0302FA03F3009C23430093E8
:10DB1000124C009BE3611DE0104B5B68009300F02A
:10DB20001F0301FA03F3009C9C43009400F01F03C1
:10DB300002FA03F3009C2343009307210022009B79
:10DB400023EA01630093009B43EA02630093034CC2
:10DB5000009B636018BD00000010024000000140FF
:10DB600001461D48814204D11C488069C0F38000F1
:10DB700070471B48814204D118488069C0F3C00037
:10DB8000F6E71848814204D114488069C0F30010B8
:10DB9000EEE71548814204D110488069C0F3401077
:10DBA000E6E71248814204D10C488069C0F3801036
:10DBB000DEE70F48814204D108488069C0F3C010F5
:10DBC000D6E70C48814204D104488069C0F30020A4
:10DBD000CEE70020CCE70000000801400010024022
:10DBE000000C0140001001400014014000180140E9
:10DBF000001C0140002001402DE9F04102460025B3
:10DC00000026002000230024002791F803C00CF018
:10DC10000F0591F803C00CF0100CBCF1000F03D0FD
:10DC200091F802C04CEA050591F800C0BCF1000F64
:10DC300031D0146800202BE04FF0010C0CFA00F3F7
:10DC4000B1F800C00CEA03069E4220D183004FF0D9
:10DC50000F0C0CFA03F7BC4305FA03FC4CEA04046E
:10DC600091F803C0BCF1280F06D14FF0010C0CFA5B
:10DC700000FCC2F814C00AE091F803C0BCF1480FE0
:10DC800005D14FF0010C0CFA00FCC2F810C0401C8A
:10DC90000828D1D31460B1F800C0BCF1FF0F34DD07
:10DCA000546800202EE000F1080C4FF0010808FA3B
:10DCB0000CF3B1F800C00CEA03069E4221D18300A8
:10DCC0004FF00F0C0CFA03F7BC4305FA03FC4CEAC7
:10DCD000040491F803C0BCF1280F05D100F1080C31
:10DCE00008FA0CF8C2F8148091F803C0BCF1480F90
:10DCF00007D100F1080C4FF0010808FA0CF8C2F83F
:10DD00001080401C0828CED35460BDE8F0812DE976
:10DD1000F04105460C46174698460F2C02D90020C4
:10DD2000BDE8F0812846FFF71BFF18B901212846FE
:10DD300000F02AF8B8F1000F10D1022F05D1E868E1
:10DD40000121A1408843E86008E0032F06D127F0B5
:10DD50000107E8680121A1400843E860082C01D2CE
:10DD60002E4601E0083C2E1D3068A2000F21914094
:10DD70008843306048EA8700A10088403168084342
:10DD800030600120CCE70000002945D0454A904290
:10DD900006D1454A926942F00402434B9A6180E001
:10DDA000424A904206D1404A926942F008023E4BF4
:10DDB0009A6176E03E4A904206D13B4A926942F02F
:10DDC0001002394B9A616CE03A4A904206D1364AC9
:10DDD000926942F02002344B9A6162E0364A9042E6
:10DDE00006D1314A926942F040022F4B9A6158E0C5
:10DDF000324A904206D12C4A926942F080022A4B64
:10DE00009A614EE02E4A90424BD1274A926942F4E1
:10DE10008072254B9A6144E0224A904206D1224A00
:10DE2000926922F00402204B9A613AE01F4A904224
:10DE300006D11D4A926922F008021B4B9A6130E01C
:10DE40001B4A904206D1184A926922F01002164BE2
:10DE50009A6126E0174A904206D1134A926922F04D
:10DE60002002114B9A611CE0134A904206D10E4ADF
:10DE7000926922F040020C4B9A6112E00F4A9042E4
:10DE800006D1094A926922F08002074B9A6108E0A4
:10DE90000B4A904205D1044A926922F48072024BE7
:10DEA0009A6170470008014000100240000C0140D8
:10DEB000001001400014014000180140001C014006
:10DEC0000020014010B511480078012817D100BF8B
:10DED00000200F4908700F4800680F490968441A6C
:10DEE0000E480078012803D102F088FF044400E0C6
:10DEF00000BF00BF064800780028E9D104E00548CB
:10DF0000006805490968441A204610BD2700002012
:10DF1000340000202C0000203000002026000020CB
:10DF2000084A1178127882F00102064B1A70064AEC
:10DF3000525C064B1B7842EA03000022024B5A5403
:10DF4000704700002A000020280000202700002041
:10DF50002DE9F04704460D464FF0FF0A2078D028FF
:10DF600072DB2078D7286FDC207805F8010B14F8D5
:10DF7000010BD038082868D2DFE800F00412151829
:10DF8000213356725648076805F8017B380A05F8B0
:10DF9000010B380C05F8010B380E05F8010B81E078
:10DFA000FFF770FD7EE0FFF743FD7BE02768384612
:10DFB000FFF7FEFC042801D04FF0FF0A72E0D4F80E
:10DFC0000080A68806E018F8011BFF2902D04FF058
:10DFD000FF0A04E0301EA6F101018EB2F3D100BFAA
:10DFE00060E02768A688382E02DD4FF0FF0A1AE0AD
:10DFF000A41D12E014F8019B2EB114F8011B49EA8C
:10E000000129701E86B249463846FFF71BFD0428D9
:10E0100002D04FF0FF0A05E0BF1C301EA6F101013F
:10E020008EB2E7D100BF3DE0D4F80080A6883E2E36
:10E0300002DD4FF0FF0A12E0002005F8010B09E0B5
:10E0400026B998F800A005E030E027E018F8010BA9
:10E0500005F8010B301EA6F101018EB2F0D121E0CE
:10E0600000BF00BF00BF00BF00BFBFF34F8F00BFA6
:10E0700000BF00BF1B48006800F4E0601A49084375
:10E08000001D1849086000BF00BF00BFBFF34F8FDD
:10E0900000BF00BF00BF00BF00BFFDE76D1E4FF017
:10E0A000FF0A00BF00BF85F800A017E00F48006816
:10E0B00090B10F4BDFF83CC0DCF800C003EB8C11D3
:10E0C0000D4BDFF838C0DCF800C003EB8C10074BB9
:10E0D0001B685A68904701E0FF202870BDE8F08770
:10E0E000002004E00CED00E00000FA05080000202C
:10E0F0001423002064000020141300205C00002082
:10E1000072B61E49086880F3088800BF01F08AF8DB
:10E11000002412E001F0DAF86420FFF7F1FB01F0CF
:10E12000CDF801F0AFF86420FFF7EAFB01F0A4F8A6
:10E130004FF47A70FFF7E4FB641C052CEADB00BFA8
:10E1400000BF00BF00BF00BFBFF34F8F00BF00BFC5
:10E1500000BF0B48006800F4E0600A490843001D56
:10E160000749086000BF00BF00BFBFF34F8F00BF6B
:10E1700000BF00BF00BF00BFFDE7000000C00008F7
:10E180000CED00E00000FA0510B5044605484078A3
:10E1900018B1204600F008F802E0204600F0A6F88A
:10E1A00010BD00001401002070B5054601F084F98F
:10E1B00001F0C2F800BF00BF01F0DEF800BF00BFF1
:10E1C00001F0BAF800BF00BF01F0D6F800BF00BFF1
:10E1D00001F062F901F0B0F800BF00BF01F0CCF827
:10E1E00000BF00BF01F0A8F800BF00BF01F0C4F8F5
:10E1F00000BF00BF012001F06FF93B48C17E243011
:10E2000030F8114008E001F097F800BF00BF01F0BE
:10E21000B3F800BF00BF641E002CF4D13248C17EA9
:10E220001C30405C441E0CE0E8B201F055F901F0EE
:10E2300083F800BF00BF01F09FF800BF00BF6D086A
:10E24000641E002CF0D12848C17E343030F81140D3
:10E250002CB3E8B201F040F901F06EF800BF00BF46
:10E2600001F08AF800BF00BF012001F035F9641EFB
:10E2700008E001F061F800BF00BF01F07DF800BFC9
:10E2800000BF641E002CF4D101F016F901F054F81F
:10E2900000BF00BF01F070F800BF00BF0DE001F04B
:10E2A0000BF9E8B201F018F901F046F800BF00BF21
:10E2B00001F062F800BF00BF00BF01F03DF800BFF1
:10E2C00000BF01F059F800BF00BF01F0E5F801F010
:10E2D00033F800BF00BF01F04FF800BF00BF0120BE
:10E2E00001F0FAF870BD00001401002070B5054679
:10E2F00001F0E2F801F020F89F494868014600BFAC
:10E3000000BF4A1E111EFCD100BF01F035F89A492A
:10E310004868014600BF00BF4A1E111EFCD100BF65
:10E3200001F00AF894494868014600BF00BF4A1E40
:10E33000111EFCD100BF01F01FF88F49486801464B
:10E3400000BF00BF4A1E111EFCD100BF01F0A4F89F
:10E3500000F0F2FF88494868014600BF00BF4A1E2E
:10E36000111EFCD100BF01F007F88349486801463F
:10E3700000BF00BF4A1E111EFCD100BF00F0DCFF31
:10E380007D494868014600BF00BF4A1E111EFCD1EE
:10E3900000BF00F0F1FF78494868014600BF00BFA8
:10E3A0004A1E111EFCD100BF012001F095F87248F1
:10E3B000C17E243030F8114016E000F0BDFF6E49F8
:10E3C0004868014600BF00BF4A1E111EFCD100BFB5
:10E3D00000F0D2FF68494868014600BF00BF4A1EEE
:10E3E000111EFCD100BF641E002CE6D16248C17E24
:10E3F0001C30405C441E1AE0E8B201F06DF800F0F9
:10E400009BFF5D494868014600BF00BF4A1E111EC0
:10E41000FCD100BF00F0B0FF57494868014600BF7B
:10E4200000BF4A1E111EFCD100BF6D08641E002CE7
:10E43000E2D15148C17E343030F81140002C4ED02A
:10E44000E8B201F049F800F077FF4B49486801460F
:10E4500000BF00BF4A1E111EFCD100BF00F08CFFA0
:10E4600045494868014600BF00BF4A1E111EFCD145
:10E4700000BF012001F030F8641E16E000F05CFFE0
:10E480003D494868014600BF00BF4A1E111EFCD12D
:10E4900000BF00F071FF38494868014600BF00BF67
:10E4A0004A1E111EFCD100BF641E002CE6D101F0F3
:10E4B00003F800F041FF30494868014600BF00BF43
:10E4C0004A1E111EFCD100BF00F056FF2A494868C1
:10E4D000014600BF00BF4A1E111EFCD11AE000F029
:10E4E000EBFFE8B200F0F8FF00F026FF2249486891
:10E4F000014600BF00BF4A1E111EFCD100BF00F044
:10E500003BFF1D494868014600BF00BF4A1E111E5F
:10E51000FCD100BF00F010FF17494868014600BF5A
:10E5200000BF4A1E111EFCD100BF00F025FF12499A
:10E530004868014600BF00BF4A1E111EFCD100BF43
:10E5400000F0AAFF00F0F8FE0B494868014600BF42
:10E5500000BF4A1E111EFCD100BF00F00DFF06498E
:10E560004868014600BF00BF4A1E111EFCD100BF13
:10E57000012000F0B1FF70BD1401002070B500F063
:10E580009BFF00F0D9FE66494868014600BF00BF06
:10E590004A1E111EFCD100BF00F0EEFE6049486823
:10E5A000014600BF00BF4A1E111EFCD100BF00F093
:10E5B00073FF00F0C1FE5A494868014600BF00BF22
:10E5C0004A1E111EFCD100BF00F0D6FE5449486817
:10E5D000014600BF00BF4A1E111EFCD100BF00F063
:10E5E000ABFE4F494868014600BF00BF4A1E111EDE
:10E5F000FCD100BF00F0C0FE49494868014600BF99
:10E6000000BF4A1E111EFCD100BF4548C57E16E062
:10E6100000F092FE42494868014600BF00BF4A1E12
:10E62000111EFCD100BF00F0A7FE3D49486801461D
:10E6300000BF00BF4A1E111EFCD100BF6D1E002D81
:10E64000E6D100241F251CE000F076FE344948681E
:10E65000014600BF00BF4A1E111EFCD100BF00F0E2
:10E6600049FF064600F088FE2D494868014600BF74
:10E6700000BF4A1E111EFCD100BF44EAC6746408E4
:10E680006D1E002DE0D100F017FF00F055FE24496B
:10E690004868014600BF00BF4A1E111EFCD100BFE2
:10E6A00000F028FF064600F067FE1D494868014655
:10E6B00000BF00BF4A1E111EFCD100BF44EAC67451
:10E6C00000F03AFE16494868014600BF00BF4A1EE6
:10E6D000111EFCD100BF00F04FFE114948680146F1
:10E6E00000BF00BF4A1E111EFCD100BF00F0D4FEC7
:10E6F00000F022FE0A494868014600BF00BF4A1EDA
:10E70000111EFCD100BF00F037FE054948680146E4
:10E7100000BF00BF4A1E111EFCD100BF204670BDC5
:10E72000140100202DE9F05F04460F46904604F0E6
:10E730003F0606B9402604F0400010B100F0BCFED0
:10E7400001E000F0A9FE36E017F801AB00254FF01C
:10E75000080924E00AF0FF0000F0BEFE00F0ECFD26
:10E7600017494868014600BF00BF4A1E111EFCD170
:10E7700000BF00F0BFFE834600F0FEFD1049486870
:10E78000014600BF00BF4A1E111EFCD100BF4FEA68
:10E790005A0A6D0845EACB15A9F10109761EB9F1AF
:10E7A000000F01D0002ED5D125FA09F504F0800024
:10E7B00008B108F8015B002EC6D1BDE8F09F00004B
:10E7C0001401002070B504460D460648407820B17B
:10E7D0002946204600F008F870BD2946204600F082
:10E7E00049F9F9E7140100202DE9F047064688466B
:10E7F00000F062FE00F0A0FD00BF00BF00F0BCFD15
:10E8000000BF00BF00F048FE00F096FD00BF00BF53
:10E8100000F0B2FD00BF00BF00F08EFD00BF00BFE2
:10E8200000F0AAFD00BF00BF9048C47E08E000F0E1
:10E8300083FD00BF00BF00F09FFD00BF00BF641E4E
:10E84000002CF4D1C6F3470000F046FE00F074FD42
:10E8500000BF00BF00F04EFE074600F08DFD00BF78
:10E8600000BF4FEA4709C6F3870000F035FE00F00D
:10E8700063FD00BF00BF00F03DFE074600F07CFDD9
:10E8800000BF00BF49EA0709C6F3C70000F024FE35
:10E8900000F052FD00BF00BF00F02CFE074600F064
:10E8A0006BFD00BF00BF49EA8709B9F1010F0AD02B
:10E8B00000F002FE00F040FD00BF00BF00F05CFD74
:10E8C00000BF00BFA1E006F00200002852D00025E2
:10E8D0001F240EE000F030FD00BF00BF00F00AFE74
:10E8E000074600F049FD00BF00BF45EAC7756D0847
:10E8F000641E002CEED15D48817EC07E081A441E45
:10E9000014B300F019FD00BF00BF00F0F3FD07468F
:10E9100000F032FD00BF00BF641E08E000F00CFDF7
:10E9200000BF00BF00F028FD00BF00BF641E002C28
:10E93000F4D100F0C1FD00F0FFFC00BF00BF00F00B
:10E940001BFD00BF00BF0DE000F0B6FD00F0F4FCC1
:10E9500000BF00BF00F0CEFD074600F00DFD00BF78
:10E9600000BF00BF45EAC775B8F1000F4CD0C8F82A
:10E97000005049E0D8F800501F240CE0E8B200F045
:10E98000ABFD00F0D9FC00BF00BF00F0F5FC00BFFC
:10E9900000BF6D08641E002CF0D13448817EC07E1B
:10E9A000081A441E14B3E8B200F096FD00F0C4FC4F
:10E9B00000BF00BF00F0E0FC00BF00BF641E08E025
:10E9C00000F0BAFC00BF00BF00F0D6FC00BF00BFE3
:10E9D000641E002CF4D100F06FFD00F0ADFC00BF10
:10E9E00000BF00F0C9FC00BF00BF0DE000F064FDF7
:10E9F000E8B200F071FD00F09FFC00BF00BF00F026
:10EA0000BBFC00BF00BF00BF00BF00F095FC00BF13
:10EA100000BF00F0B1FC00BF00BF00F03DFD00F002
:10EA20008BFC00BF00BF00F0A7FC00BF00BF0120AF
:10EA300000F052FD06F0800020B100BF0C48406895
:10EA40000A4988600948047B08E000F075FC00BFB3
:10EA500000BF00F091FC00BF00BF00BF201EA4F16A
:10EA60000104F2D109F0FF00BDE8F0871401002095
:10EA7000001000E02DE9F0470646894600F01CFD35
:10EA800000F05AFCFE494868014600BF00BF4A1E1C
:10EA9000111EFCD100BF00F06FFCF9494868014627
:10EAA00000BF00BF4A1E111EFCD100BF00F0F4FCE5
:10EAB00000F042FCF2494868014600BF00BF4A1E10
:10EAC000111EFCD100BF00F057FCED49486801461B
:10EAD00000BF00BF4A1E111EFCD100BF00F02CFC7D
:10EAE000E7494868014600BF00BF4A1E111EFCD11D
:10EAF00000BF00F041FCE2494868014600BF00BF8A
:10EB00004A1E111EFCD100BFDD48C47E16E000F095
:10EB100013FCDB494868014600BF00BF4A1E111EB6
:10EB2000FCD100BF00F028FCD5494868014600BF71
:10EB300000BF4A1E111EFCD100BF641E002CE6D18E
:10EB4000C6F3470000F0C8FC00F0F6FBCC4948686B
:10EB5000014600BF00BF4A1E111EFCD100BF00F0DD
:10EB6000C9FC074600F008FCC5494868014600BFDB
:10EB700000BF4A1E111EFCD100BF4FEA4708C6F372
:10EB8000870000F0A9FC00F0D7FBBD4948680146AA
:10EB900000BF00BF4A1E111EFCD100BF00F0AAFC3E
:10EBA000074600F0E9FBB6494868014600BF00BFD0
:10EBB0004A1E111EFCD100BF48EA0708C6F3C70071
:10EBC00000F08AFC00F0B8FBAD494868014600BF80
:10EBD00000BF4A1E111EFCD100BF00F08BFC07468F
:10EBE00000F0CAFBA6494868014600BF00BF4A1EA4
:10EBF000111EFCD100BF48EA8708B8F1010F18D0F8
:10EC000000F05AFC00F098FB9D494868014600BF9F
:10EC100000BF4A1E111EFCD100BF00F0ADFB984999
:10EC20004868014600BF00BF4A1E111EFCD100BF4C
:10EC30002FE106F00200002874D000251F241CE0FC
:10EC400000F07AFB8E494868014600BF00BF4A1EAB
:10EC5000111EFCD100BF00F04DFC074600F08CFBFC
:10EC600087494868014600BF00BF4A1E111EFCD1FB
:10EC700000BF45EAC7756D08641E002CE0D18048CE
:10EC8000817EC07E081A441E002C4CD000F054FB3C
:10EC90007B494868014600BF00BF4A1E111EFCD1D7
:10ECA00000BF00F027FC074600F066FB7449486887
:10ECB000014600BF00BF4A1E111EFCD100BF641EEA
:10ECC00016E000F039FB6E494868014600BF00BFFE
:10ECD0004A1E111EFCD100BF00F04EFB6849486877
:10ECE000014600BF00BF4A1E111EFCD100BF641EBA
:10ECF000002CE6D100F0E0FB00F01EFB6049486804
:10ED0000014600BF00BF4A1E111EFCD100BF00F02B
:10ED100033FB5B494868014600BF00BF4A1E111E15
:10ED2000FCD11BE022E000F0C7FB00F005FB5449DA
:10ED30004868014600BF00BF4A1E111EFCD100BF3B
:10ED400000F0D8FB074600F017FB4D494868014624
:10ED500000BF00BF4A1E111EFCD100BF45EAC775A7
:10ED6000B9F1000F01D0C9F8005091E0D9F8005076
:10ED70001F241AE0E8B200F0AFFB00F0DDFA4049D2
:10ED80004868014600BF00BF4A1E111EFCD100BFEB
:10ED900000F0F2FA3A494868014600BF00BF4A1E37
:10EDA000111EFCD100BF6D08641E002CE2D1344856
:10EDB000817EC07E081A441E002C4BD0E8B200F0C1
:10EDC0008BFB00F0B9FA2E494868014600BF00BF2E
:10EDD0004A1E111EFCD100BF00F0CEFA2849486837
:10EDE000014600BF00BF4A1E111EFCD100BF641EB9
:10EDF00016E000F0A1FA22494868014600BF00BFB2
:10EE00004A1E111EFCD100BF00F0B6FA1C4948682A
:10EE1000014600BF00BF4A1E111EFCD100BF641E88
:10EE2000002CE6D100F048FB00F086FA144948684F
:10EE3000014600BF00BF4A1E111EFCD100BF00F0FA
:10EE40009BFA0F494868014600BF00BF4A1E111EC9
:10EE5000FCD11DE000F030FBE8B200F03DFB00F01B
:10EE60006BFA07494868014600BF00BF4A1E111EE1
:10EE7000FCD100BF00F080FA01494868014601E07A
:10EE80001401002000BF00BF4A1E111EFCD100BFAC
:10EE900000BF00F051FA2C494868014600BF00BF8E
:10EEA0004A1E111EFCD100BF00F066FA26494868D0
:10EEB000014600BF00BF4A1E111EFCD100BF00F07A
:10EEC000EBFA00F039FA20494868014600BF00BF5C
:10EED0004A1E111EFCD100BF00F04EFA1A494868C4
:10EEE000014600BF00BF4A1E111EFCD100BF012019
:10EEF00000F0F2FA06F0800020B100BF134840682D
:10EF0000114988601048047B15E000F015FA0E499D
:10EF10004868014600BF00BF4A1E111EFCD100BF59
:10EF200000F02AFA08494868014600BF00BF4A1E9F
:10EF3000111EFCD100BF201EA4F10104E5D108F090
:10EF4000FF00BDE8F087000014010020001000E081
:10EF500070B5054600F0B0FA00F0EEF9B049486827
:10EF6000014600BF00BF4A1E111EFCD100BF00F0C9
:10EF700003FAAB494868014600BF00BF4A1E111E94
:10EF8000FCD100BF00F088FA00F0D6F9A449486827
:10EF9000014600BF00BF4A1E111EFCD100BF00F099
:10EFA000EBF99F494868014600BF00BF4A1E111E89
:10EFB000FCD100BF00F0C0F999494868014600BF84
:10EFC00000BF4A1E111EFCD100BF00F0D5F99449C4
:10EFD0004868014600BF00BF4A1E111EFCD100BF99
:10EFE0008F48C47E16E000F0A7F98D4948680146B5
:10EFF00000BF00BF4A1E111EFCD100BF00F0BCF9CB
:10F0000087494868014600BF00BF4A1E111EFCD157
:10F0100000BF641E002CE6D1002000F05DFA00F075
:10F020008BF97F494868014600BF00BF4A1E111E88
:10F03000FCD100BF00F0A0F979494868014600BF43
:10F0400000BF4A1E111EFCD100BF00F075F97449C3
:10F050004868014600BF00BF4A1E111EFCD100BF18
:10F0600000F08AF96E494868014600BF00BF4A1E99
:10F07000111EFCD100BF00F05FF9694948680146E4
:10F0800000BF00BF4A1E111EFCD100BF00F074F982
:10F0900063494868014600BF00BF4A1E111EFCD1EB
:10F0A00000BF1F241AE0E8B200F016FA00F044F99D
:10F0B0005B494868014600BF00BF4A1E111EFCD1D3
:10F0C00000BF00F059F956494868014600BF00BF2B
:10F0D0004A1E111EFCD100BF6D08641E002CE2D137
:10F0E0004F48817EC07E081A441E002C4BD0E8B2E7
:10F0F00000F0F2F900F020F949494868014600BFE4
:10F1000000BF4A1E111EFCD100BF00F035F9444972
:10F110004868014600BF00BF4A1E111EFCD100BF57
:10F12000641E16E000F008F93D494868014600BF3A
:10F1300000BF4A1E111EFCD100BF00F01DF9384966
:10F140004868014600BF00BF4A1E111EFCD100BF27
:10F15000641E002CE6D100F0AFF900F0EDF8304964
:10F160004868014600BF00BF4A1E111EFCD100BF07
:10F1700000F002F92A494868014600BF00BF4A1E54
:10F18000111EFCD11AE000F097F9E8B200F0A4F9E2
:10F1900000F0D2F822494868014600BF00BF4A1E6D
:10F1A000111EFCD100BF00F0E7F81D494868014678
:10F1B00000BF00BF4A1E111EFCD100BF00F0BCF80A
:10F1C00017494868014600BF00BF4A1E111EFCD106
:10F1D00000BF00F0D1F812494868014600BF00BFE7
:10F1E0004A1E111EFCD100BF00F056F900F0A4F831
:10F1F0000B494868014600BF00BF4A1E111EFCD1E2
:10F2000000BF00F0B9F806494868014600BF00BFDA
:10F210004A1E111EFCD100BF012000F05DF970BD37
:10F220001401002010B50F48806940F008000D4916
:10F23000886140200C4908600C490B481438FEF7DF
:10F24000DBFC0848806940F00400064988614815E5
:10F2500007490860074906481438FEF7CDFC00F05E
:10F260002DF810BD00100240140C01400C430108A1
:10F27000140801401043010840200149086070470C
:10F28000140C01404020014908607047100C0140F7
:10F2900000B5024600F012F80748007820F001009F
:10F2A000054908704FF0E020006940F001004FF080
:10F2B000E021086100BD0000010000204FF4007053
:10F2C0000149086070470000140801404FF40070C5
:10F2D00001490860704700001008014000B502466F
:10F2E000FFF7D0FF0F48007840F001000D4908708B
:10F2F00002F0010050B14FF0E020006920F0010061
:10F300004FF0E0210861FFF7E1FF09E04FF0E02056
:10F31000006940F001004FF0E0210861FFF7CEFFE7
:10F3200000BD0000010000204FF4005001490860BA
:10F3300070470000140C01404FF400500149086070
:10F3400070470000140C01404FF400500149086060
:10F3500070470000140C014002480068C0F34030C0
:10F36000704700000C0C01404FF400500149086048
:10F3700070470000100C01404FF400500149086034
:10F3800070470000100C01404FF400500149086024
:10F3900070470000100C01400448006800F48040F1
:10F3A00008B1012070470020FCE70000080C014074
:10F3B0000448006800F4804008B101207047002034
:10F3C000FCE70000080C014000F0010121B14FF4FE
:10F3D0008041044A116004E04FF48041014A121D4B
:10F3E00011607047100C014000F0010121B14FF491
:10F3F0008041044A116004E04FF48041014A121D2B
:10F4000011607047100C014000BF0748006820F0F1
:10F41000706040F00060044908604FF48040024989
:10F420000C31086000BF7047040C014000BF074862
:10F43000006820F0706040F04070044908604FF4AC
:10F44000804002491031086000BF7047040C014041
:10F4500000BF0748006820F0706040F04070044929
:10F4600008604FF4804002491031086000BF7047C7
:10F47000040C014000BF0748006820F0706040F0B5
:10F480004070044908604FF4804002491031086020
:10F4900000BF7047040C01404FF4804001490860F0
:10F4A00070470000140C014002480068C0F380302F
:10F4B00070470000080C01404FF48040014908608B
:10F4C00070470000100C014002480068C0F3C010F3
:10F4D000704700000C08014000F0010119B18021C3
:10F4E000034A116003E08021014A121D1160704738
:10F4F0001008014002480068C0F340107047000047
:10F500000808014010B54FF4C0400F490860802042
:10F510000E4908600E490D481038FEF76DFB0D4985
:10F520000A481038FEF768FB0B4907481038FEF709
:10F5300063FB002004F09CFE6420FEF7E1F901204B
:10F5400004F096FE10BD0000100C014010080140B0
:10F5500038430108404301083C43010810B50849FD
:10F560000848FEF749FB08490848FEF745FB0849EB
:10F570000648FEF741FB07490248FEF73DFB10BD78
:10F5800048430108000C01404443010800080140C1
:10F590004C4301085043010808B54FF4C0401449DA
:10F5A000086014491448FEF727FB14491248FEF777
:10F5B00023FB13490E481038FEF71EFB4FF4805012
:10F5C000ADF8000004208DF8030003208DF8020040
:10F5D000694607481038FEF70FFB002004F048FE8C
:10F5E0006420FEF78DF9012004F042FE08BD000002
:10F5F000100C01402C430108000801403043010871
:10F600003443010810B50E48806940F001000C49F0
:10F6100088610C48406840F000700A49486008481A
:10F62000806940F00400064988614FF400400649B3
:10F630000860064904481038FEF7DEFA10BD0000E5
:10F64000001002400000014010080140284301085A
:10F650002DE9F04707468A4600250120FFF7B4FE52
:10F66000FFF762FED6494868014600BF00BF4A1E48
:10F67000111EFCD100BFFFF777FED1494868014653
:10F6800000BF00BF4A1E111EFCD100BF3C46E0B2C5
:10F69000FFF79AFEFFF748FEC9494868014600BFD8
:10F6A00000BF4A1E111EFCD100BFFFF75DFEC4491A
:10F6B0004868014600BF00BF4A1E111EFCD100BFB2
:10F6C00025447C08E0B2FFF77FFEFFF72DFEBC4922
:10F6D0004868014600BF00BF4A1E111EFCD100BF92
:10F6E000FFF742FEB6494868014600BF00BF4A1E08
:10F6F000111EFCD100BF2544BC08E0B2FFF764FE38
:10F70000FFF712FEAE494868014600BF00BF4A1E1F
:10F71000111EFCD100BFFFF727FEA949486801462A
:10F7200000BF00BF4A1E111EFCD100BF2544FC08CB
:10F73000E0B2FFF749FEFFF7F7FDA149486801462F
:10F7400000BF00BF4A1E111EFCD100BFFFF70CFE18
:10F750009B494868014600BF00BF4A1E111EFCD1EC
:10F7600000BF2544E8B2FFF72FFEFFF7DDFD944907
:10F770004868014600BF00BF4A1E111EFCD100BFF1
:10F78000FFF7F2FD8E494868014600BF00BF4A1EE0
:10F79000111EFCD100BF0020FFF716FEFFF7C4FDCD
:10F7A00087494868014600BF00BF4A1E111EFCD1B0
:10F7B00000BFFFF7D9FD82494868014600BF00BF7E
:10F7C0004A1E111EFCD100BF0120FFF7FDFDFFF70F
:10F7D000ABFD7B494868014600BF00BF4A1E111EB1
:10F7E000FCD100BFFFF7C0FD75494868014600BF66
:10F7F00000BF4A1E111EFCD100BF00BF00BF00BFEA
:10F800007048006820F0706040F000606D4908604A
:10F810004FF480406B490C31086000BF00BF68485E
:10F82000067E16E0FFF780FD65494868014600BF87
:10F8300000BF4A1E111EFCD100BFFFF795FD6049B5
:10F840004868014600BF00BF4A1E111EFCD100BF20
:10F85000761E002EE6D1FFF767FD5949486801463C
:10F8600000BF00BF4A1E111EFCD100BFFFF794FD70
:10F870000446FFF779FD52494868014600BF00BFC2
:10F880004A1E111EFCD100BFA046FFF74DFD4C499A
:10F890004868014600BF00BF4A1E111EFCD100BFD0
:10F8A000FFF77AFD0446FFF75FFD454948680146CA
:10F8B00000BF00BF4A1E111EFCD100BF48EA440829
:10F8C000FFF732FD3E494868014600BF00BF4A1EAF
:10F8D000111EFCD100BFFFF75FFD0446FFF744FD9A
:10F8E00037494868014600BF00BF4A1E111EFCD1BF
:10F8F00000BF48EA84083248067E16E0FFF714FD90
:10F900002F494868014600BF00BF4A1E111EFCD1A6
:10F9100000BFFFF729FD2A494868014600BF00BF24
:10F920004A1E111EFCD100BF761E002EE6D1FFF745
:10F930007DFDD146002520261DE009F0FF00FFF7E0
:10F9400043FDFFF7F1FC1E494868014600BF00BFB8
:10F950004A1E111EFCD100BFFFF706FD184948687A
:10F96000014600BF00BF4A1E111EFCD100BF4D441E
:10F970004FEA5909761E002EDFD1E8B2FFF724FDC9
:10F98000FFF7D2FC0E494868014600BF00BF4A1E7F
:10F99000111EFCD100BFFFF7E7FC0949486801468A
:10F9A00000BF00BF4A1E111EFCD100BFFFF73EFD85
:10F9B0000120FFF709FD08F0FF00BDE8F087000017
:10F9C00014010020040C014070B50E480078032893
:10F9D00017D10D4804680D480568601BB0F5805FBD
:10F9E0000FD2C4F30B040A480078012807D1054957
:10F9F000087008490819012101F0AEF900E000BFC4
:10FA000000BF70BD270000202C0000203000002027
:10FA100026000020580100202DE9F04707468846BF
:10FA2000914607F03F0404B9402407F08000002805
:10FA30002AD026E0002508261DE0FFF785FC264990
:10FA40004868014600BF00BF4A1E111EFCD100BF1E
:10FA5000FFF7AEFC8246FFF797FC1F494868014656
:10FA600000BF00BF4A1E111EFCD100BF6D0845EA51
:10FA7000CA15761E641E0EB1002CDED1F54009F8C1
:10FA8000015B002CD6D125E022E018F8015B0826A6
:10FA90001BE0E8B2FFF7A8FCFFF756FC0E494868E8
:10FAA000014600BF00BF4A1E111EFCD100BFFFF778
:10FAB0006BFC09494868014600BF00BF4A1E111E81
:10FAC000FCD100BF6D08761E641E0EB1002CE0D183
:10FAD000002CDAD1BDE8F0871401002070B504468F
:10FAE0000D460648407820B12946204600F008F827
:10FAF00070BD2946204600F09BF9F9E7140100206B
:10FB00002DE9F04706468A4600270120FFF76CFCE6
:10FB1000FFF71AFC00BF00BFFFF736FC00BF00BFB5
:10FB20003546E8B2FFF760FCFFF70EFC00BF00BFF0
:10FB3000FFF72AFC00BF00BF2F447508E8B2FFF7AB
:10FB400053FCFFF701FC00BF00BFFFF71DFC00BF27
:10FB500000BF2F44B508E8B2FFF746FCFFF7F4FBFF
:10FB600000BF00BFFFF710FC00BF00BF2F44F50827
:10FB7000E8B2FFF739FCFFF7E7FB00BF00BFFFF774
:10FB800003FC00BF00BF2F44F8B2FFF72DFCFFF7C6
:10FB9000DBFB00BF00BFFFF7F7FB00BF00BF00208B
:10FBA000FFF722FCFFF7D0FB00BF00BFFFF7ECFB25
:10FBB00000BF00BF0120FFF717FCFFF7C5FB00BF28
:10FBC00000BFFFF7E1FB00BF00BFFFF71DFC964839
:10FBD000047E08E0FFF7B8FB00BF00BFFFF7D4FBCF
:10FBE00000BF00BF641E002CF4D1FFF7ADFB00BFC7
:10FBF00000BFFFF7DDFB0546FFF7C6FB00BF00BFF8
:10FC0000A846FFF7A1FB00BF00BFFFF7D1FB0546E9
:10FC1000FFF7BAFB00BF00BF48EA4508FFF794FBB7
:10FC200000BF00BFFFF7C4FB0546FFF7ADFB00BFF9
:10FC300000BF48EA8508B8F1010F7DD106F0020047
:10FC400000283ED0A1460027202410E0FFF77CFBCF
:10FC500000BF00BFFFF7ACFB0546FFF795FB00BFF9
:10FC600000BF2F444FEA590949EAC579641E002CA8
:10FC7000ECD1FFF769FB00BF00BFFFF799FB05461A
:10FC8000FFF782FB00BF00BF87EA050000F001001C
:10FC900008B14FF00808BAF1000F01D0CAF800907F
:10FCA0006148047E08E0FFF74FFB00BF00BFFFF78D
:10FCB0006BFB00BF00BF641E002CF4D1FFF7DAFB22
:10FCC00032E05948047E08E0FFF73EFB00BF00BF6A
:10FCD000FFF75AFB00BF00BF641E002CF4D1FFF7F2
:10FCE000C9FBDAF80090002720240FE009F0FF009C
:10FCF000FFF77AFBFFF728FB00BF00BFFFF744FBCD
:10FD000000BF00BF4F444FEA5909641E002CEDD1DB
:10FD1000F8B2FFF769FBFFF717FB00BF00BFFFF763
:10FD200033FB00BF00BF00BF06F0800030B100BF52
:10FD30003E4840683C4900E019E088603A48047B4E
:10FD400074B10020FFF750FB08E0FFF7FDFA00BF99
:10FD500000BFFFF719FB00BF00BF641E002CF4D1E9
:10FD60000120FFF741FB08F0FF00BDE8F087B8F184
:10FD7000020F02D0B8F1040F3ED12B48407E78B17B
:10FD800006F0020060B1212408E0FFF7DDFA00BFB1
:10FD900000BFFFF7F9FA00BF00BF641E002CF4D1CA
:10FDA0002148047E08E0FFF7CFFA00BF00BFFFF74D
:10FDB000EBFA00BF00BF641E002CF4D1FFF75AFB22
:10FDC0001948407E90B106F0020078B90020FFF794
:10FDD0000BFB212408E0FFF7B7FA00BF00BFFFF7D5
:10FDE000D3FA00BF00BF641E002CF4D10120FFF73E
:10FDF000FBFA08F0FF00B8E70B48007E00F1210491
:10FE000008E0FFF7A1FA00BF00BFFFF7BDFA00BF8F
:10FE100000BF641E002CF4D1FFF72CFB0120FFF77C
:10FE2000E3FA08F0FF00A0E714010020001000E052
:10FE300003B587B0002003900120FFF7D5FAFFF744
:10FE400083FAFE48406801900198009000BF00BF0F
:10FE50000098401E00900028FAD100BFFFF794FAE6
:10FE6000F648406801900198009000BF00BF0098DC
:10FE7000401E00900028FAD100BF07980590059811
:10FE8000C0B20190FFF7B0FAFFF75EFAEB484068A6
:10FE900001900198009000BF00BF0098401E0090A4
:10FEA0000028FAD100BFFFF76FFAE44840680190DC
:10FEB0000198009000BF00BF0098401E00900028ED
:10FEC000FAD100BF059903980844039007984008A9
:10FED00005900598C0B20190FFF786FAFFF734FA53
:10FEE000D648406801900198009000BF00BF00987C
:10FEF000401E00900028FAD100BFFFF745FACF4816
:10FF0000406801900198009000BF00BF0098401E1B
:10FF100000900028FAD100BF059903980844039087
:10FF20000798800805900598C0B20190FFF75CFA29
:10FF3000FFF70AFAC148406801900198009000BF9D
:10FF400000BF0098401E00900028FAD100BFFFF7C4
:10FF50001BFABA48406801900198009000BF00BFAA
:10FF60000098401E00900028FAD100BF0599039820
:10FF7000084403900798C00805900598C0B2019006
:10FF8000FFF732FAFFF7E0F9AC48406801900198BA
:10FF9000009000BF00BF0098401E00900028FAD1DA
:10FFA00000BFFFF7F1F9A548406801900198009063
:10FFB00000BF00BF0098401E00900028FAD100BF8B
:10FFC00005990398084403900398C0B20190FFF785
:10FFD0000BFAFFF7B9F99948406801900198009031
:10FFE00000BF00BF0098401E00900028FAD100BF5B
:10FFF000FFF7CAF99148406801900198009000BF4E
:020000040801F1
:1000000000BF0098401E00900028FAD100BFFFF703
:10001000EBF9FFF799F98948406801900198009041
:1000200000BF00BF0098401E00900028FAD100BF1A
:10003000FFF7AAF98148406801900198009000BF3D
:1000400000BF0098401E00900028FAD100BF012098
:10005000FFF7CAF9FFF778F97848406801900198EE
:10006000009000BF00BF0098401E00900028FAD109
:1000700000BFFFF789F9714840680190019800902E
:1000800000BF00BF0098401E00900028FAD100BFBA
:10009000FFF7BAF96948007E029020E0FFF754F9B3
:1000A0006648406801900198009000BF00BF00982A
:1000B000401E00900028FAD100BFFFF765F95F48A5
:1000C000406801900198009000BF00BF0098401E5A
:1000D00000900028FAD100BF0298401E02900298BA
:1000E0000028DBD1FFF730F95448406801900198AF
:1000F000009000BF00BF0098401E00900028FAD179
:1001000000BFFFF755F90590FFF73EF94B484068EF
:1001100001900198009000BF00BF0098401E009021
:100120000028FAD100BF05980690FFF70DF9434863
:10013000406801900198009000BF00BF0098401EE9
:1001400000900028FAD100BFFFF732F90590FFF7C1
:100150001BF93A48406801900198009000BF00BF29
:100160000098401E00900028FAD100BFDDE905107C
:1001700040EA41000690FFF7E7F8304840680190F8
:100180000198009000BF00BF0098401E009000281A
:10019000FAD100BFFFF70CF90590FFF7F5F82748F3
:1001A000406801900198009000BF00BF0098401E79
:1001B00000900028FAD100BFDDE9051040EA810077
:1001C00006900698012872D1079800F002000028D6
:1001D0006ED00020049003902020029032E0FFF7C0
:1001E000B3F81648406801900198009000BF00BF26
:1001F0000098401E00900028FAD100BFFFF7D8F801
:100200000590FFF7C1F80D484068019001980090F3
:1002100000BF00BF0098401E00900028FAD100BF28
:100220000599039808440390049840080490DDE978
:10023000040140EAC1700490029801E0140100201A
:10024000401E029002980028C9D1FFF77DF8F148BE
:10025000406801900198009000BF00BF0098401EC8
:1002600000900028FAD100BFFFF7A2F80590FFF731
:100270008BF8E848406801900198009000BF00BFEB
:100280000098401E00900028FAD100BF05990398FD
:10029000484000F0010008B108200690089810B10D
:1002A000089904980860DB48007E029022E0E9E0AB
:1002B00026E0FFF749F8D748406801900198009080
:1002C00000BF00BF0098401E00900028FAD100BF78
:1002D000FFF75AF8CF48406801900198009000BF9E
:1002E00000BF0098401E00900028FAD100BF02987D
:1002F000401E029002980028DBD1FFF7BBF884E093
:10030000C448007E029020E0FFF71EF8C148406814
:1003100001900198009000BF00BF0098401E00901F
:100320000028FAD100BFFFF72FF8BA4840680190C3
:100330000198009000BF00BF0098401E0090002868
:10034000FAD100BF0298401E029002980028DBD12B
:10035000FFF790F808980068049000200390202090
:1003600002902CE00498C0B20190FFF73DF8FEF730
:10037000EBFFA848406801900198009000BF00BFC3
:100380000098401E00900028FAD100BFFEF7FCFF45
:10039000A048406801900198009000BF00BF0098FD
:1003A000401E00900028FAD100BFDDE90301084497
:1003B00003900498400804900298401E029002980E
:1003C0000028CFD10398C0B20190FFF70DF8FEF7D7
:1003D000BBFF9048406801900198009000BF00BFAB
:1003E0000098401E00900028FAD100BFFEF7CCFF15
:1003F0008848406801900198009000BF00BF0098B5
:10040000401E00900028FAD100BF079800F080003D
:1004100020B100BF804840687E4988607D48007BED
:100420000290029838B30020FEF7DEFF20E0FEF7CE
:100430008BFF7848406801900198009000BF00BF92
:100440000098401E00900028FAD100BFFEF79CFFE4
:100450007048406801900198009000BF00BF00986C
:10046000401E00900028FAD100BF0298401E029062
:1004700002980028DBD10120FEF7B6FF0698C0B233
:1004800009B000BD0698022802D0069804287DD144
:100490006048407E50B3079800F0020030B321203E
:1004A000029020E0FEF750FF5A4840680190019802
:1004B000009000BF00BF0098401E00900028FAD1B5
:1004C00000BFFEF761FF534840680190019800901B
:1004D00000BF00BF0098401E00900028FAD100BF66
:1004E0000298401E029002980028DBD14948007E05
:1004F000029020E0FEF728FF4648406801900198EE
:10050000009000BF00BF0098401E00900028FAD164
:1005100000BFFEF739FF3F48406801900198009006
:1005200000BF00BF0098401E00900028FAD100BF15
:100530000298401E029002980028DBD1FEF79AFF35
:100540003448407E78B3079800F0020058BB002082
:10055000FEF74AFF2120029022E0FEF7F5FE2D482B
:10056000406801900198009000BF00BF0098401EB5
:1005700000900028FAD100BFFEF706FF254840682A
:1005800001900198009000BF00BF00E011E00098CA
:10059000401E00900028F8D100BF0298401E029033
:1005A00002980028D9D10120FEF71EFF0698C0B29C
:1005B00066E71848007E2130029020E0FEF7C4FE76
:1005C0001448406801900198009000BF00BF009857
:1005D000401E00900028FAD100BFFEF7D5FE0D485E
:1005E000406801900198009000BF00BF0098401E35
:1005F00000900028FAD100BF0298401E0290029895
:100600000028DBD1FEF736FF0120FEF7EDFE06984D
:10061000C0B235E714010020001000E02DE9F041E0
:1006200005460C46002600272DE017B914F8016B8B
:10063000082706F0010030B100BF4FF48040154993
:10064000086000BF07E000BF4FF480401149091D5A
:10065000086000BF00BFFEF777FE0F4948680146FB
:1006600000BF00BF4A1E111EFCD100BFFEF78CFE6A
:1006700009494868014600BF00BF4A1E111EFCD14F
:1006800000BF76087F1E281EA5F10105CDD1BDE86B
:10069000F0810000100C01401401002070B50646E6
:1006A0000C463078717840EA0120B17840EA014088
:1006B000F17840EA01650E480078012804D1284607
:1006C00000F0E8FA054601E0002500BF00BF15B9BB
:1006D00000200849087004F8015B280A04F8010B9F
:1006E000280C04F8010B280E20704FF0041070BD88
:1006F00026000020270000202DE9F04107460E4685
:10070000387800F001051248007800F00100A84296
:1007100012D00DB1FBF7A0FD0E480078012804D1DE
:10072000284600F029FB044601E0002400BF00BF7A
:100730001CB10748057000E0012414B1002030709E
:1007400001E0FF2030704FF00110BDE8F0810000A3
:1007500027000020260000202DE9F04780460C46A7
:10076000FDF7DEFB8246FDF7ADFB05461C48007831
:1007700001280CD198F8000098F8011040EA0126F1
:100780003C2E00D93C26B54202D9354600E0002572
:1007900004F801AB04F8015B280A04F8010B1048C7
:1007A0000078012816D10F48D0F800904F462E4609
:1007B00008E0C7F30B0738467F1C0B49085C04F8B8
:1007C000010B761E002EF4D109EB050005490860E7
:1007D000FFF7FAF8E81C40F40030BDE8F0870000AD
:1007E0002500002030000020580100202DE9F047AE
:1007F00080460C46002798F8009009F0010028B1C7
:10080000FDF78EFB064604F8016B7F1C09F0020021
:1008100070B1FDF757FB054604F8015B280A04F8A0
:10082000010B280C04F8010B280E04F8010B3F1DE6
:1008300047F48030BDE8F0872DE9F04106460D46CB
:10084000377815480078012803D1002000F0E8FA35
:1008500000E000BF00BF17B1012F07D101E0012464
:1008600006E0012000F0DCFA044601E0002400BFAD
:1008700000BF14B10848077002E000200649087064
:100880000020064908700CB1287001E0FF20287094
:100890004FF00110BDE8F081260000202700002065
:1008A00070B50446FDF73CFB0646FDF70BFB05461D
:1008B00004F8016B04F8015B280A04F8010B280C0A
:1008C00004F8010B280E2070052070BD10B50446F9
:1008D0000A460E48007800F0010060B9237813B191
:1008E000012B05D100E000BF09480370012101E0A0
:1008F000002100BF00E0002111B10020107001E0D4
:10090000FF2010704FF0011010BD000027000020E4
:100910002500002010B500F001F810BD08B500203A
:1009200000903748006840F480303549086000BFC7
:100930003348006800F4003018B90098B0F5A06F93
:10094000F6D12F48006800F4003040B92C48006808
:1009500020F480302A4908600120009001E0002046
:1009600000902848006840F01000264908600846BA
:10097000006820F0030008600846006840F00200AC
:1009800008601F4840681E49486008464068486043
:100990000846406840F4806048600846406820F49B
:1009A0007C104860009828B10846406840F4D000A8
:1009B000486005E01248406840F4E810104948607B
:1009C0000F48006840F080700D49086000BF0C4877
:1009D000006800F000700028F9D00948406820F055
:1009E0000300074948600846406840F0020048603C
:1009F00000BF0348406800F00C000828F9D108BD8A
:100A000000100240002002400449054A1278895C27
:100A10000143024A024B1B78D15470472800002042
:100A20002A000020042808D14FF0E021096941F094
:100A300004014FF0E022116107E04FF0E021096965
:100A400021F004014FF0E0221161704700B51A480F
:100A50000078401E184908701848007800F002001D
:100A600080B11648007820F002001449087012483E
:100A7000007800F0010010B1FEF704FC0CE0FEF776
:100A8000FBFB09E00C48007800F0070010B9FEF706
:100A9000F9FB01E0FEF7F0FB0848007800F00100E8
:100AA00048B10548007800F0030010B9FEF70EFCCD
:100AB00001E0FEF703FC00BD000000200100002063
:100AC00070B51749481EB0F1807F00D31BE0481E67
:100AD0004FF0E022506150170F22002804DB13076B
:100AE0001C0E104B1C5406E013071D0E0E4B00F09D
:100AF0000F04241F1D5500BF00204FF0E02290611D
:100B00000720106100BF6FF00400FFF78BFF4FF06C
:100B1000E020006920F001004FF0E021086170BD85
:100B200040771B0000E400E018ED00E010B5002164
:100B300000200022214B5B6803F00C0121B1042945
:100B400006D0082928D107E01D4B1E4C236027E062
:100B50001B4B1C4C236023E0184B5B6803F47010A4
:100B6000164B5B6803F48032022303EB904022B9FA
:100B7000154B4343134C23600DE0104B5B6803F4AB
:100B8000003323B1104B43430E4C236003E00C4B66
:100B900043430C4C236003E0094B0A4C236000BF25
:100BA00000BF064B5B68C3F30313084CE15C054BC5
:100BB0001B68CB40034C236010BD000000100240B6
:100BC00000127A000C00002000093D0010000020F7
:100BD00010B51248006840F001001049086008464E
:100BE00040680F4908400D494860084600680D49B3
:100BF00008400A4908600846006820F48020086020
:100C00000846406820F4FE0048604FF41F008860EA
:100C1000FFF780FE04480549086010BD001002403F
:100C20000000FFF8FFFFF6FE00C0000808ED00E03E
:100C300070B505461248007840F00200104908706F
:100C400005F0020058B10F48006800F580600D49BA
:100C500008600D484FF4806182690C48904705F0A8
:100C6000010060B14FF48061094801F049FC04467D
:100C7000002C04DD0448214642690548904770BDB8
:100C8000010000206C0000204C44010814330020B7
:100C900014370020F8B504462848844200D9044699
:100CA0002748007800F00100C0B126480021826A80
:100CB000162090472349C86A80470090C0F340003F
:100CC00060B12049486A80471F49096808441E49A5
:100CD00008601C480021826A192090471948214663
:100CE000826A0120904705461DB901201749087006
:100CF00003E0002015490870F8BD1148007800F0A5
:100D00000100C8B10E48007800F0020078B90E4822
:100D10000068C0F30B0606F03F00C0F140070C4826
:100D200007600C49881907498A6939469047054880
:100D30000121826A162090472046DDE740420F00DD
:100D400027000020144401082C000020240000206B
:100D5000380000205801002070B505460C460448B4
:100D600004600448214682692846904770BD00000F
:100D7000380000201444010838B50546CDB11A48A2
:100D8000007808B9002038BD0120184908601848CB
:100D9000012182691748904704460CB10020F2E710
:100DA00013480121826A162090470446D4B10020DE
:100DB000E9E70F480021826A162090470C49C86A6B
:100DC00080470090C0F3400060B10949486A8047FD
:100DD0000949096808440849086005480021826AF1
:100DE000192090470120CEE7240000203800002081
:100DF00014440108580100202C00002038B5074990
:100E0000C86A80470090C0F3400020B10349486A97
:100E10008047044600E00024204638BD1444010801
:100E200070B5054600201449087095B113488168D3
:100E30001348884704460CB1002070BD0F48016973
:100E4000022088470446ACB10C49C868804700209E
:100E5000F3E70A480021826A1620904707480021DC
:100E6000826A192090470548016900208847034994
:100E7000C86880470120E0E72400002014440108EE
:100E8000A510010870B504460D46034A29462046C0
:100E900000F04EF970BD00008443010808B5024817
:100EA00000F057FD009008BD8443010808B50248D2
:100EB00000F052FD009008BD8443010810B50248BF
:100EC00000F092FD10BD00008443010808B50248FF
:100ED00000F097FD009008BD8443010810B502485A
:100EE00000F0F9FD10BD00008443010810B5024870
:100EF00000F0FEFD10BD00008443010810B504465B
:100F00000249204600F02CFF10BD00008443010878
:100F100010B504460249204600F0B8FF10BD00009D
:100F20008443010870B504460D46034A294620460D
:100F300001F0F1F870BD00008443010870B504466B
:100F40000D46034A2946204601F076F970BD00009F
:100F50008443010810B504460249204601F0E7F930
:100F600010BD00008443010870B504460D461646C6
:100F7000034B32462946204601F04CFA70BD000072
:100F80008443010810B5024801F079FA10BD000051
:100F90008443010870B504460D46034A294620469D
:100FA00000F0C6F870BD0000DC43010808B5024837
:100FB00000F0CFFC009008BDDC43010808B50248F2
:100FC00000F0CAFC009008BDDC43010810B50248DF
:100FD00000F00AFD10BD0000DC43010808B502481E
:100FE00000F00FFD009008BDDC43010810B5024879
:100FF00000F071FD10BD0000DC43010810B502488F
:1010000000F076FD10BD0000DC43010810B5044679
:101010000249204600F0A4FE10BD0000DC43010898
:1010200010B504460249204600F030FF10BD000014
:10103000DC43010870B504460D46034A29462046A4
:1010400001F069F870BD0000DC43010870B504468A
:101050000D46034A2946204601F0EEF870BD000017
:10106000DC43010810B504460249204601F05FF94F
:1010700010BD0000DC43010870B504460D4616465D
:10108000034B32462946204601F0C4F970BD0000EA
:10109000DC43010810B5024801F0F1F910BD000071
:1010A000DC4301082DE9F041054605F0020018B3C4
:1010B0001848076818480468184800680444164827
:1010C000046004F03F00C0F14006A4EB0708C6F539
:1010D000805040450AD3C4F30B0410480660104901
:1010E000081910498A693146904702E003200E49E9
:1010F000087001200D49087005F0200010B1802013
:10110000FFF782FC05F4607010B14020FFF77CFC13
:10111000BDE8F081300000202C00002038000020C5
:10112000580100201444010827000020340000204A
:101130002DE9FE4F07460D461446206BC07A00F09D
:10114000020018B94FF0FF30BDE8FE8F002000907C
:1011500080468346F8B2153806287CD2DFE800F0D6
:10116000A3DC032C4E6CA5B1606B90F8210010B18C
:101170006FF00100E8E70120616B81F82100616BED
:1011800081F820006068808940F081006168888172
:1011900010E0606B90F8200060B16068808920F0FA
:1011A0008000616888810020616B81F82000616B9C
:1011B00081F821000020C7E76068808920F0C00026
:1011C00061688881A06A88B1606B90F8210068B17D
:1011D0006068808A20F0800061688882A16A08685F
:1011E000016821F00101016000BF00BF0020616BB8
:1011F00081F82000616B81F82100A5E76068808993
:1012000020F0200061688881E06A80B1206B40791D
:1012100068B16068808A20F0400061688882E16A75
:101220000868016821F00101016000BF00BF0021D2
:10123000206B4171002087E76068808920F0E00022
:1012400061688881A06A98B1606B90F8210078B1DC
:101250006068808A00E0C2E020F0800061688882D7
:10126000A16A0868016821F00101016000BF00BFA8
:10127000E06A80B1206B407968B16068808A20F0B4
:10128000400061688882E16A0868016821F0010114
:10129000016000BF00BF0021206B41710020616B25
:1012A00081F8210050E7E06810B94FF0FF304BE7BC
:1012B000BDB1206BC068062806D0E2689188032380
:1012C00010680222FCF723FD206BC07A40F0080072
:1012D000216BC8726068808940F00800616888816D
:1012E00018E06068808920F0080061688881206BC0
:1012F000C07A20F00800216BC872206BC0680628F5
:1013000008D0E06830B1E2689188002310681A467E
:10131000FCF7FDFC002017E7206910B94FF0FF3003
:1013200012E7E5B3206BC06806280AD0206BC068BE
:10133000042806D022699188002310680122FCF756
:10134000E6FC206BC07A40F01000216BC872606828
:10135000808A40F00100616888826068008A40F0FD
:101360004000616808826068808940F01000616810
:101370008881206B407918B1E06A08B1012000E053
:10138000002028B96068808940F020006168888169
:101390006068808940F00400616888811DE0FFE793
:1013A0006068808920F0040061688881206BC07AC1
:1013B00020F01000216BC872206BC06806280CD08A
:1013C000206BC068042808D0206930B12269918858
:1013D000002310681A46FCF79AFC0020B4E600BF10
:1013E00000BF206B407918B9606B90F8210010B1F4
:1013F0006FF00100A8E66068808900F0080038B14D
:101400006068008800F0400010B96FF001009BE6B2
:10141000F8B2152872D2DFE800F0C90B0E1D2025A6
:101420002AC9C9C9C9C9C9C9C9C9373B697EB80070
:1014300001200290BDE02078C0F3400020B148F4C4
:10144000006848F4807802E06FF006007CE6022035
:101450000290AEE06FF0060076E64BF0080B042039
:101460000290A6E04BF0020B05200290A1E020784C
:10147000C0F3401010B14BF0200B02E06FF00600FB
:1014800062E60620029094E0616B4D8300205BE6EB
:10149000206BC068052824D015B36068808A40F0AE
:1014A000040061688882D4F808A0FE48B0FBFAFA0C
:1014B000012605E00AFB06F0A84200D902E0761CEE
:1014C000FF2EF7D900BFB6F5807F02D14FF0FF3075
:1014D0003AE66068008B20F0FF00304361680883C3
:1014E00002E04FF0FF302FE600202DE6206BC068B1
:1014F00006280BD1FF2D02D9C01F25E656E06068F3
:10150000008BC0B228436168088302E04FF0FF30CF
:101510001AE6002018E6206BC068062830D1D4F8FF
:1015200008A0E048B0FBFAFA012619E00AFB06F031
:1015300040006421484305EB051101EB4101B0EB8C
:10154000410F0CD20AFB06F040006421484305EB32
:10155000051101EB4511B0EB410F00D902E0761CFB
:10156000402EE3D300BF402E02D14FF0FF30EBE519
:101570006068008B20F0FF0030436168088302E060
:101580004FF0FF30E0E50020DEE5206BC068062864
:1015900007D14DB16068808A40F010006168888290
:1015A00002E04FF0FF30CFE50020CDE56FF0030003
:1015B000CAE500BF07F4E06060B1B0F5807F13D0EA
:1015C000B0F5E06F1DD107F4405010B96FF008007E
:1015D000BAE519E007F4405028B148F02008009817
:1015E00040F4805000900FE007F4405010B16FF0CD
:1015F0000800A9E548F02008009840F480500090C9
:1016000002E06FF008009FE500BF07F4405030B1E2
:10161000B0F5805F04D0B0F5005F0BD105E00CE0C1
:10162000009840F48060009007E0009840F4C060AB
:10163000009002E06FF0090086E500BF07F440402B
:1016400048B1B0F5804F07D0B0F5004F07D0B0F5E6
:10165000404F0AD106E00BE048F4005808E048F497
:10166000405805E048F4805802E06FF00A006BE54E
:1016700000BF07F4403048B1B0F5803F09D0B0F565
:10168000003F13D0B0F5403F2ED11CE04FF00009D1
:101690002DE02078C0F3C01020B14FF480394BF416
:1016A000807B02E06FF00B004EE520E02088C0F365
:1016B000002020B14FF400394BF4C06B02E06FF012
:1016C0000B0041E513E02078C0F3C01040B1208842
:1016D000C0F3002020B14FF440394BF4E06B02E03E
:1016E0006FF00B0030E502E06FF00B002CE500BF5F
:1016F000029802281DD107F4802018B1B0F5802F80
:1017000004D100E005E048F4806802E06FF00C00CE
:101710001AE500BF07F4002018B1B0F5002F04D17E
:1017200000E005E048F4007802E06FF00D000BE502
:1017300000BFA06800EBC00101EB0010A900B0FBE6
:10174000F1F06421B0FBF1F1A06800EBC00202EB04
:101750000010AA00B0FBF2F0A26802EBC20303EB98
:101760000212AB00B2FBF3F26423B2FBF3F202EB22
:10177000C20303EB0212A0EB8200322202EB001044
:101780006422B0FBF2FA61F31F1AA06800011FFA8D
:101790008AF1B0FBF1F000090190642101984843FF
:1017A00005EB051101EB4101B0EB410F09D26421BA
:1017B0000198484305EB051101EB4511B0EB410FD2
:1017C00002D86FF00700BFE46068808920F4005001
:1017D000616888816168A1F808A00298216BC860DF
:1017E000206BC0F81090206BC068062809D1E06813
:1017F00030B1E2689188032310680222FCF787FA6F
:1018000018E0206BC07A00F0080048B1E06880B1B1
:10181000E2689188032310680222FCF778FA08E056
:10182000E06830B1E2689188002310681A46FCF73E
:101830006EFA00BF00BF206BC068042802D00628E3
:101840000BD100E000BF206930B1226991880023EC
:1018500010681A46FCF75BFA18E0206BC07A00F0BB
:10186000100048B1206980B1226991880023106876
:101870000122FCF74CFA08E0206930B12269918816
:10188000002310681A46FCF742FA00BF00BF6069E7
:10189000D0B1206BC068022802D006280BD100BF4F
:1018A000626901E000CA9A3B918803231068022212
:1018B000FCF72DFA07E062699188002310681A4648
:1018C000FCF725FA00BF00BFA069A0B1B9F5803FC1
:1018D00002D0B9F5403F07D1A2699188032310686F
:1018E0000222FCF714FA06E0A2699188002310682E
:1018F0001A46FCF70CFAE069A0B1B9F5003F02D036
:10190000B9F5403F07D1E2699188002310680122B0
:10191000FCF7FDF906E0E2699188002310680122D6
:10192000FCF7F5F90098616888816168A1F810807A
:101930006168A1F814B06068808940F40050616863
:101940008881206BC07A40F00400216BC8720020AF
:1019500010E40146086870470CB50146019820F074
:1019600001000190086B006920B1086B0069B0F5B7
:10197000803F0ED1C86960B1CB6998881A689368B6
:10198000C34003F0010323B9019820F00100401C7B
:101990000190019820F002000190019820F00800C9
:1019A0000190019820F0040001900198009A60F3E2
:1019B0000002009201984208009862F341000090F2
:1019C00001988208009862F3820000900198C20892
:1019D000009862F3C300009001980209009862F336
:1019E0001F10009000980CBD0146C86A30B1CA6A49
:1019F00010684268486B0068801A7047486B00693D
:101A0000FBE70CB50146486B90F8210028B101981E
:101A100020F00100401C019008E048680088012285
:101A200022EA9012019862F300000190086B42795B
:101A3000019862F341000190086B8279019862F38A
:101A400082000190086BC279019862F3C300019093
:101A5000086B027A019862F304100190086B427AD5
:101A6000019862F345100190086B827A019862F345
:101A7000861001900198009A60F30002009201988C
:101A80004208009862F34100009001988208009893
:101A900062F3820000900198C208009862F3C300CC
:101AA000009001980209009862F3041000900198D8
:101AB0004209009862F3451000900198820900984D
:101AC00062F3861000900198C209009862F3DF105B
