:020000040800F2
:100000000008002065270008452200084722000854
:10001000492200084B2200084D2200080000000081
:100020000000000000000000000000005122000855
:100030004F2200080000000053220008552200084B
:1000400057220008592200085B2200085D220008A0
:100050005F22000861220008632200086522000870
:1000600067220008692200086B2200086D22000840
:100070006F22000871220008732200087522000810
:1000800077220008792200087B2200087D220008E0
:1000900081220008852200088722000889220008A2
:1000A0008B2200088D2200088F2200089122000870
:1000B000D1220008D3220008D5220008D722000848
:1000C000D9220008DB220008DD220008DF22000818
:1000D000E1220008E3220008E5220008E7220008E8
:1000E000E9220008EB220008ED22000810B5DFF835
:1000F0009C47002800D12FE0DFF8940700680068D3
:10010000804720680A3010BD80B5DFF8800700689E
:10011000C178DFF8802752788A420DD38278002A8E
:100120000AD18288002A07D18172DFF8640700684B
:1001300040688047002002BD022002BD10B5DFF8F4
:100140004C47002800D107E0DFF8440700688068CA
:10015000804720680C3010BD2068012101820020FA
:1001600010BD10B5DFF824472068C1784079DFF86A
:10017000282712689269904721688A7A002A07D056
:10018000002805D10879002802D18878002801D0FC
:10019000022010BDDFF8F8060068C06880472068BC
:1001A0004179C1722068C1780173002010BD10B57B
:1001B000DFF8D8160968002803D102200882002041
:1001C00010BDDFF8D8460020208008787F2210423A
:1001D00016D1487A810603D5002141F00201217031
:1001E0004006207809D540F001002070DFF8A00615
:1001F000006800698047204610BD00F0FE00F4E76B
:1002000000F07F02012AF6D000F07F000228D6D14C
:10021000487900F00F01DFF88826000652F8210027
:1002200005D500F030001028E0D10020DBE700F415
:100230004050B0F5805FD9D10020D4E770B5DFF829
:100240004C060068017811F07F0102BF417A01F08D
:10025000DF01417254D0022905D14188002902D121
:100260000179002901D0022070BD417921F080057B
:10027000DFF82C460A0654F825204CBF02F0300265
:1002800002F44052DFF80C361B789D42EBD2002A74
:10029000E9D0807A0028E6D0080654F825000BD56E
:1002A00000F03000102826D1284601F021FA302134
:1002B000284601F0D0F91EE000F44050B0F5805F10
:1002C00019D14BF68F7665B9DFF8D80590F82C1068
:1002D000002001F03AFA2068304080F4405020605D
:1002E00009E0284601F0F4F954F82500304080F484
:1002F000405044F82500DFF89805006840698047C1
:10030000002070BD38B5DFF884050268537923F00A
:100310008000DFF88C151C0651F820404CBF04F01B
:10032000300404F44054DFF86C552D78A84207D20D
:100330005588002D04D1002C02D0927A002A01D1D8
:10034000022032BD1A0651F8202042BF48F6BF7382
:100350001A4082F0100204D44BF68F731A4082F4D4
:10036000805241F82020DFF8280500688069804726
:10037000002032BD80B5DFF814050068417A41F0F5
:1003800020014172DFF808050068C069804700203D
:1003900002BDDFF8F8241268538A20B98888C01A91
:1003A000108200207047086818187047F8B5DFF809
:1003B000DC54286800F110042688A168080015D0D4
:1003C000A6B1A088864288BF0646304688470746C1
:1003D0002088801B2080608830186080002001F019
:1003E000A6F932460146384602F0AAF8208860B1E4
:1003F000DFF8B4044FF4405101800021002001F0E7
:100400009DF9DFF8A8043021018028682188A2889E
:10041000914202D303210172F1BD002901D00521CF
:10042000F9E706210172DFF88804006880B2DFF87E
:100430008414002241F81020DFF87004302101807C
:10044000F1BD38B5DFF844442068457801787F2253
:1004500011422CD1092D02D1FFF756FE38E0052DAF
:100460000BD1C178802906D2817821B9818811B950
:10047000807A002839D0082045E0032D0AD1C178C0
:10048000012926D1818821BB407A800621D5FFF73A
:1004900071FF1DE0012D1CD1C178012919D181887E
:1004A000B9B9407A800614D5FFF7C8FE10E001F014
:1004B0007F00012804D10B2D0BD1FFF752FE07E07E
:1004C000022806D1012DEFD0032D02D1FFF71AFF2C
:1004D00058B12846DFF8C0130968496988470328DE
:1004E00008BF09200FD00028C5D10620DFF8C013AF
:1004F000096889B2DFF8BC23002342F81130DFF825
:10050000AC1330220A802168087231BD2DE9F04118
:10051000DFF8784320684178062919D101787F22D5
:10052000114236D18078012802BFDFF86C030068E1
:10053000C16979D0022802BFDFF85C030068016A54
:1005400072D0032825D1DFF850030068416A6BE0C0
:10055000002945D14188E1B9C188022919D1017921
:10056000B9B901787F22114204D1828812B9DFF82B
:10057000481359E001F07F02012A16D10021407989
:10058000C54A12689269904718B92068807A002895
:10059000EDD120684078C049096809698847032877
:1005A0004BD12068092101729BE001F07F010229F3
:1005B000EFD1407900F00F0100F07002B84B000657
:1005C00053F821004CBF00F0300000F44050B14B14
:1005D0001B789942DDD2002ADBD10028C7D1D8E7A9
:1005E000082905D100787F210842D2D1B3491BE008
:1005F0000A29CED1017801F07F010129C9D1817A80
:100600000029C6D041880029C3D101790029C0D171
:10061000C1880129BDD1002140799F4A12689269A1
:1006200090470028B5D1A6490800B2D02068002222
:100630004282816100208847002021680A8A4FF6A3
:10064000FF739A4202D1092008724AE0022800D0C2
:100650000AB90820F8E7087800063CD5C888904217
:1006600038BF08828C48006890F82C00888201F11D
:100670001005288828B9097A042904BF0726102004
:1006800024D0AF88874205D30426B84288BF3846B5
:10069000074600E00226B8B2A968884780460020D5
:1006A00001F044F80146BAB2404601F035FFB9B254
:1006B000002001F043F82888C01B2880688838187B
:1006C0006880302078494FF440520A80774908808A
:1006D0002068067205E00320087273484FF4405109
:1006E0000180BDE8F08138B576487149096889B262
:1006F000754A32F8111000EB4100644C21680A7A07
:10070000092A14D010F8012B0A70216810F8012B67
:100710004A70851C35F8040B01F060F821684880A8
:10072000288801F05BF821688880A888C880206844
:10073000012101722068C08810B9FFF782FE01E034
:10074000FFF7E4FEBDE831406FE02DE9F0414F4C8A
:100750002068017A022901D0042934D100F1100562
:10076000288820B9042904BF0726102024D0AF8888
:10077000874205D30426B84288BF3846074600E0C2
:100780000226B8B2A96888478046002000F0CEFF54
:10079000BAB20146404601F0BFFEB9B2002000F0F7
:1007A000CDFF2888C01B28806888381868803020D2
:1007B0003D494FF440520A803C4908802068067247
:1007C0002068007A14E0062911D1417805290AD160
:1007D00001787F22114206D1C07800F040F82C4801
:1007E0000068006A80472C480068806880470820BD
:1007F00021680872BDE8F04117E010B5234C20686D
:10080000007A032801D0052804D1FFF7CFFD206826
:10081000007A06E0072803D11F480068C0688047B7
:10082000082021680872BDE8104080B51D4890F886
:100830002C10002000F089FF14480068017A082974
:1008400006D119494FF480520A80184910220A80B3
:10085000007A092801D1012002BD002002BDF0B4B8
:100860000C49097800220E4B59B11C4648F68F7589
:1008700026682E40D7B23E4344F8046B521C8A428D
:10088000F6D340F08000D864F0BC70474C1C0020C8
:10089000541C0020100B0020501C0020941C002031
:1008A000005C0040000A00209C1C00209E1C0020D0
:1008B000505C004004600040AF010008ED000008FB
:1008C0003D010008006000400860004070470000E3
:1008D000F0B5046842688368C0680C604A608B6049
:1008E000C860DFF8BC550A26DFF8B875C0F3074CBE
:1008F0001CF807C0C0F3072E1EF807E04FEA0E4EA3
:100900004EEA0C6C5FFA80FE1EF807E04CEA0E2CF3
:100910004FEA106E1EF807E04EEA0C0C55F804EB97
:100920008EEA0C0C8CEA040462405340584041F8B3
:10093000104F4A608B60C860761ED7D1F0BDC7E704
:100940002DE9F04F02F2A002036852F8044B84EA4A
:10095000030E436852F8044B84EA0308836852F894
:10096000044B84EA0309C06852F82C3983EA000C6E
:1009700009201B23DFF830454FEA1E652D5DCCF3BF
:100980000746365D360446EA0565C9F30726365D37
:1009900045EA06255FFA88F6365D354316697540E7
:1009A0004FEA1866365DCEF307473F5D3F0447EADE
:1009B0000666CCF307273F5D46EA07265FFA89F70C
:1009C0003F5D3E4357697E404FEA19673F5DC8F37C
:1009D000074A1AF804A04FEA0A4A4AEA0767CEF320
:1009E000072A1AF804A047EA0A275FFA8CFA1AF8CD
:1009F00004A04AEA0707D2F818A08AEA07074FEAD4
:100A00001C6C1CF804C0C9F3074919F804904FEA9C
:100A1000094949EA0C6CC8F3072818F804804CEA25
:100A2000082C5FFA8EFE1EF804E04EEA0C0CD2F899
:100A30001CE08EEA0C0C05F07F3E25F07F384FEA73
:100A4000D81803FB08F888EA4E0E0EF07F382EF017
:100A50007F394FEAD91903FB09F989EA480808F0F8
:100A60007F3928F07F3A4FEADA1A03FB0AFA8AEA5A
:100A7000490989EA050585EA080A85EA0E0B88EA2C
:100A80000E0E89EA0E0E8EEA3B6E8EEA3A4E8EEA22
:100A9000352E06F07F3526F07F384FEAD81803FB55
:100AA00008F888EA450505F07F3825F07F394FEAD8
:100AB000D91903FB09F989EA480808F07F3928F0B9
:100AC0007F3A4FEADA1A03FB0AFA8AEA490989EA05
:100AD000060686EA080A86EA050B88EA050589EA19
:100AE000050585EA3B6585EA3A4585EA362807F03B
:100AF0007F3527F07F36F6095E4386EA450505F027
:100B00007F3625F07F394FEAD91903FB09F989EAC5
:100B1000460606F07F3926F07F3A4FEADA1A03FBE1
:100B20000AFA8AEA490989EA070787EA060A87EA88
:100B3000050B754089EA050585EA3B6585EA3A4576
:100B400085EA37290CF07F352CF07F36F6095E43B5
:100B500086EA450505F07F3625F07F37FF095F43BC
:100B600087EA460606F07F3726F07F3A4FEADA1A20
:100B700003FB0AFA8AEA470787EA0C0C8CEA060AA2
:100B80008CEA050B75407D4085EA3B6585EA3A4570
:100B900085EA3C2C103A401E7FF4EEAE4FEA186016
:100BA000005DCEF307431B5D1B0443EA0060CCF3FA
:100BB00007231B5D40EA03205FFA89F31B5D18439E
:100BC000536958404FEA19631B5DC8F307452D5D13
:100BD0002D0445EA0363CEF307252D5D43EA052383
:100BE0005FFA8CF52D5D2B4395696B404FEA1C65D0
:100BF0002D5DC9F30746365D360446EA0565C8F340
:100C00000726365D45EA06255FFA8EF6365D3543E2
:100C1000D66975404FEA1E66365DCCF307473F5DE7
:100C20003F0447EA0666C9F307273F5D46EA072601
:100C30005FFA88F73C5D3443126962400A6048609D
:100C40008B60CD60BDE8F08F2DE9F0470368146834
:100C50006340446855686C40856896687540C06814
:100C6000D66886EA000802F1100009221B268D4F83
:100C70004FEA136C1CF807C0C4F3074E1EF807E0D8
:100C80004FEA0E4E4EEA0C6CC5F3072E1EF807E035
:100C90004CEA0E2C5FFA88FE1EF807E04EEA0C0CB8
:100CA0004FEA146E1EF807E0C5F3074919F80790DC
:100CB0004FEA094949EA0E6EC8F3072919F8079067
:100CC0004EEA092E5FFA83F919F8079049EA0E0EE9
:100CD0004FEA156919F80790C8F3074A1AF807A0F0
:100CE0004FEA0A4A4AEA0969C3F3072A1AF807A031
:100CF00049EA0A295FFA84FA1AF807A04AEA0909B8
:100D00004FEA186818F80780C3F30743DB5D1B043C
:100D100043EA0863C4F30724E45D43EA0423ECB226
:100D2000E45D44EA03082CF07F33DB0973430CF0E5
:100D30007F348CEA44055D4093EA440383EA3563DB
:100D400083EA3C4383EA3C2350F8044B63402EF093
:100D50007F34E40974430EF07F358EEA450C84EA53
:100D60000C0C94EA450484EA3C6484EA3E4484EA38
:100D70003E2450F8045B6C4029F07F35ED09754343
:100D800009F07F3C89EA4C0E85EA0E0E85EA4C0597
:100D900085EA3E6585EA394585EA392550F804CB70
:100DA0008CEA050528F07F3C4FEADC1C06FB0CFCB6
:100DB00008F07F3E88EA4E098CEA09098CEA4E0C5D
:100DC0008CEA396C8CEA384C8CEA382C50F804EBFD
:100DD0008EEA0C08521E7FF44BAF220ED25DC5F393
:100DE0000746F65D360446EA0262C8F30726F65D5A
:100DF00042EA0622DEB2F65D3243466872402E0EAB
:100E0000F65DC8F3074C1CF807C04FEA0C4C4CEADF
:100E10000666C3F3072C1CF807C046EA0C265FFAE7
:100E200084FC1CF807C04CEA0606D0F808C08CEA1F
:100E300006064FEA186C1CF807C0C3F3074E1EF8ED
:100E400007E04FEA0E4E4EEA0C6CC4F3072E1EF874
:100E500007E04CEA0E2C5FFA85FE1EF807E04EEA2A
:100E60000C0CD0F80CE08EEA0C0C1B0EDB5DC4F30E
:100E70000744E45D240444EA0363C5F30724E45D06
:100E800043EA04235FFA88F4E45D23430068584092
:100E900008604A608E60C1F80CC0BDE8F0870000B1
:100EA000300A0020000800200009002080B500F072
:100EB000B5FCC049087001BD2DE9F04106460C465D
:100EC000B04614F003000BD04FF6FC702040001D1C
:100ED000844205D2FF22011BB748201801F0C4FA52
:100EE000002744B1B44D7959304600F0B5FC361DA9
:100EF0003F1DA742F7D3B1480021418234B1418A56
:100F000018F8012B51184182641EF8D1418A028AD7
:100F100091420CBF00210321C172BDE8F081A748B6
:100F2000022181720021C172A5480170704710B57D
:100F3000A4484168A44C216061600068083801F051
:100F40003FFA6068BDE810400047000030B587B048
:100F50009E484178491E072900F22581DFE811F0FB
:100F6000260023019100E60001010E012200080085
:100F70001422974901A801F04CFA964800788DF8A0
:100F800008001422A02101A801F0C6FA14210120B2
:100F900000F0D4FB3021012000F05DFB8E480321DE
:100FA000017005E185480721017301E1834CA17AB5
:100FB000022901D005295BD182796AB9C17959B971
:100FC000012060620620A072E07A2070002060702C
:100FD000608006202071E9E07F490B78CBB9C378A7
:100FE000857845EA03232362C37942EA0322A2619A
:100FF0004279007940EA02202082A069E061002065
:10100000E081012008704FF44051022000F035FBD0
:10101000CEE0724D206A90B9002100F029FF2878B7
:1010200020732879E978090441EA0060A97840EA48
:1010300001206978084360610320A072CAE7E08953
:101040000019A269412A0BD340222946283001F019
:10105000D3F9E0894030E081A0694038A061D2E74F
:101060002946283001F0C8F90320A07220719DE0C4
:101070000A20A0720F2020700020607060800A207B
:10108000A8E74E4CA07A032818D0042802D00628DE
:1010900045D03EE0607BC00741D50520A07220719D
:1010A000002060706080E07A2070607B00F0FE00BD
:1010B00060730021012000F0DBFE30E0607BC1079F
:1010C0000CD50520A0722071002060706080607BCC
:1010D00000F0FE006073E07A2070EAE70421A1725C
:1010E0002171217B412901D0512901D1502100E0FA
:1010F000002100919DF8001061709DF80110A17011
:101100009DF80210E170E17A217040F002006073F6
:1011100005E02071002060706080E07A2070062277
:10112000A021204601F0F8F9062130E7234CA07AEF
:101130000A2808D10220A07200202060022020711D
:10114000002060710BE00A20A0720E2020700020A9
:10115000607060800A202071002060710E20E072B3
:1011600024E0164CA07A6072E07A20720222A0215C
:1011700004F1080001F0D0F9022108E70F4CA07A31
:10118000801E012804D9C01E012801D9001F0DD1DD
:101190000220A072002020600220207100206071D7
:1011A0002062A061DBE7022000F01CFE00F009FED7
:1011B00007B030BDA61C00203C130020140B0020FB
:1011C000651C002000400008881C0020681C0020CE
:1011D000E0F7FF1F203C0008641C0020F01B0020EB
:1011E00010B49348016842688068D9B1914B9970F6
:1011F000C1F307241C71C1F307449C71090E1972D5
:101200009A72C2F307211973C2F307419973110E41
:1012100019749874C0F307211975C0F307419975C3
:10122000000E187610BC704780B583480068807A3D
:1012300040B1012000F05CFA022000F049FA7F483A
:101240000021017001BD000038B5FFF7C9FF7A4CDD
:1012500020680021817201F0CFF9794800214160B6
:101260004FF40441774A1180016020687649C979BA
:101270004172764D2068807A60B92878012804D1BF
:101280004FF4FA71042000F0F3FD00BF2068807A6B
:101290000028F2D06E480521017031BD10B56D48AF
:1012A00000218172002000F0C7F94FF40071002086
:1012B00000F0C9F92021002000F0CDF92021002004
:1012C00000F02DFA644C94F82C10002000F03DFA48
:1012D0006021002000F022FA002000F0EDF900204B
:1012E00000F0E0F90021012000F0ADF9A02101207B
:1012F00000F014FA2021012000F0ADF900210120B6
:1013000000F0BBF90021022000F09DF9E02102204D
:1013100000F005FA94F82C10022000F016FA4FF4B1
:101320004051022000F0A9F90021022000F093F9B9
:101330000021032000F087F94FF48071032000F0B2
:10134000EDF92021032000F086F90021032000F0B0
:1013500094F994F82C10002000F0F7F9002000F028
:10136000A1F90020FFF77BFA34480021017010BD7D
:101370007047704780B5304909680A7802F07F02EB
:10138000212A0DD1FE280BD14888002808D1888851
:10139000002805D1C888012802D13048020001D1B7
:1013A000022002BD88610020488200F037F800204A
:1013B00002BD80B5204909680A7802F07F02212A1F
:1013C00018D1FF2816D14888002813D18888002812
:1013D00010D1C88800280DD1012000F089F9022021
:1013E00000F076F9032000F083F914480021017021
:1013F000002002BD022002BD01B900B102207047E9
:101400001749FEF7C6BF1749FEF7C3BF0A49096867
:10141000C978154A02EBC101FEF7BBBF002805D110
:101420000548006801210182002070470F4870477D
:10143000E8F7FF1FA40A00204C1C0020641C0020B9
:10144000405C0040A41C002050260008A01C002086
:10145000A81C0020301C0020000A00201D140008D9
:10146000F80A0020000B0020580A0020981C0020D9
:101470002DE9F84F4BF68F78684D48F60F7B40F614
:101480008F77674CDFF89C91DFF89CA123E0300454
:1014900004D5206838402060FFF7AFF9206808EADB
:1014A00000002988CA0448BF80F48050890444BFE2
:1014B00080F4005080B22060206848F6BF71084078
:1014C0006988CA0648BF80F01000890644BF80F0D2
:1014D000200080B22060606CAAF80000000460D593
:1014E00047F6FF706064BAF8000010F00F0089F84A
:1014F000000035D1206800F440502880206800F0BA
:1015000030006880206808EA000080F40050206005
:10151000206848F6BF71084080F020002060BAF8CB
:101520000000C00620680FD40BEA00002060FFF71F
:101530000CF920684FF408410842AFD020683840C9
:101540002060FFF7D0F8A9E786B2300605D52068FD
:101550000BEA00002060FFF7F8F8300597D5EDE7BB
:1015600054F820108EB231040AD554F820103940B6
:1015700044F820102D4901EB800050F8040C8047FE
:101580003006A8D599F8000054F820100BEA0101A4
:1015900044F82010264901EB800050F8040C8047E5
:1015A00099E7BDE8F18F2DE9F84FDFF8809040F61C
:1015B0008F75DFF86CB01B4F47F6FF781A4CDFF8D9
:1015C00074A024E0CAF80080208800F00F00387072
:1015D0005BF820108EB2310409D55BF82010294049
:1015E0004BF8201009EB800050F8040C80473006BF
:1015F0000DD538785BF8201048F60F7211404BF883
:1016000020100B4901EB800050F8040C8047DAF8F9
:10161000000020800004D5D4BDE8F18F9C1C002080
:10162000005C0040A71C0020A21C0020DC0A002057
:10163000C00A0020445C00404FF6F8710840DFF813
:1016400084110860704710B4DFF87C2152F8203014
:1016500048F68F145CE010B4DFF86C2152F82030AB
:1016600048F6BF742340CC0648BF83F010038906B8
:1016700044BF83F020039BB210E010B4DFF8482190
:1016800052F820304BF68F742340CC0448BF83F4CB
:101690008053890444BF83F400539BB242F8203046
:1016A00010BC7047DFF8201151F820204BF68F73E3
:1016B0001A4082F4405208E0DFF80C1151F8202063
:1016C00048F68F6300E000001A4041F82020704780
:1016D000DFF8F41051F82020520408D551F82020EA
:1016E00048F68F731A4042F4804241F82020704738
:1016F000DFF8D41051F82020520608D551F82020E8
:1017000048F68F731A4042F0400241F8202070479B
:101710002340194342F8201010BC704738E0294A92
:10172000126892B202EBC000284A37E03BE025493C
:10173000096889B201EBC00024493AE0214A1268E5
:1017400092B202EBC000224A2AE01E4A126892B20C
:1017500002EBC0001F4A02EB40003F2909D34A09AF
:101760001F23194204BF521E92B2910241F400415C
:1017700005E04A08C90744BF521C92B291020160B9
:1017800070471049096889B201EBC000114914E0A3
:101790000C4A126892B202EBC0000F4A4908490095
:1017A00042F8101070470749096889B201EBC00080
:1017B000094951F8100080B2704751F810008005B7
:1017C000800D7047505C0040005C004008600040A5
:1017D000046000400C600040006000400106090CFD
:1017E00041EA102070470000DFF854110A6802F047
:1017F0003802FFE70A600A68104308607047DFF8A4
:1018000040110A6822F01002F4E7DFF83801DFF82F
:1018100038110160DFF834110160704770B505467A
:1018200040F6FF76304600F09BF8042813D1484C70
:10183000206840F0020020606560206840F04000B1
:101840002060304600F08CF8012804D0216841F671
:10185000FD721140216070BD70B505460E4616F14F
:10186000010F01D1042070BD0F2000F079F8042889
:1018700016D1374C206840F0010020602E800F20E8
:1018800000F06EF8042804D1300C68800F2000F0BE
:1018900067F8012804D0216841F6FE7211402160EA
:1018A00070BD70B5044640F6FF75284600F058F844
:1018B000042830D1274E2448306024483060B06876
:1018C00040F02000B060B06840F04000B0602846B2
:1018D00000F046F8042817D1B06841F6DF710840DF
:1018E000B060B06840F01000B0601B48002C14BF1E
:1018F0000021A5210180284600F032F801280AD0F5
:10190000B16841F6EF7204E0012804D0B16841F6F5
:10191000DF721140B16070BD10480168C90701D580
:10192000012070470168490701D50220704700680F
:10193000C00601D503207047042070470000000056
:10194000002002400420024023016745AB89EFCD0F
:10195000102002400820024000F8FF1F0C20024027
:1019600038B50546FFF7D8FFFF2408E00098401E71
:10197000009000980028F9D1FFF7CEFF6D1E0128D6
:1019800004D125B1002000900094F2E705B90520AC
:1019900032BD000058480021C1600161142141613D
:1019A00000218161C161016841F00101016041686C
:1019B000524A114041600168514A1140016001687A
:1019C00021F480210160416821F4FE014160002181
:1019D0008160704748490A6822F480320A600A68C8
:1019E00022F480220A60B0F5803F03D0B0F5802F4A
:1019F00004D07047086840F4803002E0086840F482
:101A0000A0200860704710B53E4C312000F05DF812
:101A100020706068401C6060207810B96068FF2802
:101A2000F3D1312000F051F8401E8041C043C00F77
:101A300010BD354A136823F47C1318430843106023
:101A400070473249086070472F490A68920850EA87
:101A50008200086070472C48006800F00C00704756
:101A600029490A6822F0F00203E027490A6822F4B3
:101A7000E06210430860704723490A6822F460520C
:101A800042EAC00008607047214908607047214A57
:101A90000029116814BF084321EA00001060704754
:101AA0001D4A0029116814BF084321EA0000106094
:101AB00070471A4A0029116814BF084321EA000040
:101AC0001060704716490870704741090A4A012999
:101AD00008BF116803D002290CBF116A516A0122A4
:101AE00000F01F0002FA00F00840401EFFE78041AE
:101AF000C043C00F70470000001002400000FFF814
:101B0000FFFFF6FE801C00200410024060004242ED
:101B1000D8004242181002401C1002400C10024033
:101B20000710024080B50620FFF7CCFF4FF480700D
:101B3000ADF8000018208DF8030003208DF8020096
:101B400000A94948A6E080B5FFF724FF4FF4803094
:101B5000FFF740FFFFF757FF012828D11020FFF7BC
:101B60004EFE0220FFF740FE0020FFF779FF4FF402
:101B70008060FFF781FF4FF48060FFF776FF002061
:101B8000FFF782FF4FF4E0114FF48030FFF751FF71
:101B90000120FFF756FF3920FFF797FF0028FAD002
:101BA0000220FFF751FFFFF756FF0828FBD1FFF790
:101BB0002CFE01212020FFF76AFF01214FF40000D5
:101BC000FFF76EFF01214FF40170FFF760FFBDE8E2
:101BD0000140A7E780B500F04DF8BDE8014000F0F6
:101BE00019B980B500214FF0006000F0C1FA1F481C
:101BF000002101604FF4A06000F076FA14208DF807
:101C0000000001208DF8010000208DF80200012065
:101C10008DF8030000A800F06CFA13208DF8000086
:101C200000208DF801008DF8020001208DF80300DE
:101C300000A800F05EFA1B208DF8000000208DF84F
:101C400001008DF8020001208DF8030000A800F0CB
:101C500050FA01BD064A00284FF48071104601D0A9
:101C600000F0DEB900F0DAB900080140445C004041
:101C70000014014080B54FF48070ADF800001420CE
:101C80008DF8030003208DF8020000A9004801E050
:101C90000014014000F062F901BD000000B583B0FE
:101CA0004C4801788DF8001040788DF801004A48C2
:101CB000017A8DF80210417A8DF80310817A8DF83F
:101CC0000410C07A8DF80500062100A800F067F81E
:101CD00003B000BD10B582B0404C607800F2001037
:101CE000ADF800000222A02100A800F015FC03209E
:101CF000207002210120FFF721FD30210120FFF794
:101D0000AAFC13BD80B535480178022906D0032905
:101D100001D0042907D1BDE8014052E00079F32841
:101D200008BFFFF713F901BD10B50220FFF729FD29
:101D300004462246E0212A4800F002FC27480178A8
:101D400011B1012904D007E02046BDE8104007E0AA
:101D50000079F32803D11EE0022000F043F810BD03
:101D600010B51E4C20B102461D49201D00F044FB59
:101D70002079F12804D0F32805D0F52804D006E016
:101D8000BDE810408AE706E0BDE81040A2E7022067
:101D9000BDE8104026E0BDE81040FFF7D7B810B509
:101DA0000C462246A02100F0B7FB21460120FFF798
:101DB000C5FC30210120FFF74EFC084803210170CB
:101DC00010BD0648002101704FF440510220FFF77A
:101DD00054BC0000FE3F00081C270008641C0020C3
:101DE000F01B002080B518B1022807D00AD301BD2E
:101DF00010210120BDE80440FFF72DBC1021012077
:101E0000FFF729FC4FF480510220BDE80440FFF7A2
:101E100034BC000000B585B001214FF40060FFF72D
:101E200036FE01210420FFF732FE00F0FBF84648A1
:101E300002210186018801F09F0101800188018053
:101E40006020ADF800000220ADF808000120ADF8D8
:101E5000020000A800F0F3F8012000F02AF90120A8
:101E600000F024F9012000F00EF905B000BD0000DB
:101E700070B582B004460D46344E3078844207D0A7
:101E80000021042000F003F9002000F0F8F802E03F
:101E90007068A84257D0062C3DD8DFE804F0040E45
:101EA000122314212B002A48016821F0F00100912F
:101EB000009941F0400101602DE0502000F0F1F860
:101EC00029E04020FAE7502000F0EBF82148858215
:101ED00048F6A04101820121042000F0D8F81AE060
:101EE0004020F1E71B4864218182818A49080184EE
:101EF000642106E017488582C5F34F0101844FF63F
:101F0000FF7101820188C9B20091009941F4D0416A
:101F1000009100990180104801210160307818B1CA
:101F2000042801D0052809D144B10948016821F0ED
:101F3000F0010091009941F0B001016034707560CA
:101F4000012000F09CF873BD002C0140781C00209B
:101F500004080140182C0140808225422DE9F041FF
:101F6000CB7803F00F02DB0644BF8B781A430B8853
:101F7000DCB22CB3D0F800C0002401250F2605FAEE
:101F800004F707EA0308B84515D14FEA840E06FAAC
:101F90000EF82CEA080C02FA0EFE4EEA0C0C91F830
:101FA00003E0BEF1280F08BF476191F803E0BEF1DE
:101FB000480F08BF0761641C082CE0D3C0F800C0BC
:101FC0004FF48074A34227D3D0F804C00024012525
:101FD0000F2604F1080705FA07F707EA0308B845D2
:101FE00015D14FEA840E06FA0EF82CEA080C02FA14
:101FF0000EFE4EEA0C0C91F803E0BEF1280F08BF6C
:10200000476191F803E0BEF1480F08BF0761641C07
:10201000082CDED3C0F804C0BDE8F0810161704730
:102020004161704780B501214FF40060FFF741FD29
:1020300000214FF40060BDE80440FFF73ABD10B442
:10204000DFF884100A88DFF8843000241C60D2B2E4
:10205000048842EA04220A8042881A6082889A60D0
:1020600002895A604289DA60DFF86420FFE78389D9
:102070001360C3895360C088088410BC7047DFF8C0
:10208000541008607047DFF8501008607047DFF8A0
:102090004C20012911880CBF084321EA0000108060
:1020A000704709490A8840F67F7308E00C490860C8
:1020B00070470C49086070470A884FF2FF331A4096
:1020C00042EA002008807047182C01401084254205
:1020D000A880254200802542BC8825420C2C014066
:1020E0001C8025422C832542264908432649086046
:1020F00070472DE9F04105780121C2787AB3224A70
:10210000126802F4E062C2F5E062120AAB10DFF876
:10211000708058F8237005F00305ED00FF26AE40EF
:10212000B7434478C2F1040E04FA0EFC90F802E0C2
:102130000F2424FA02F202EA0E0242EA0C02120111
:10214000AA4032403A4348F82320007842110F4B0E
:1021500000F01F0001FA00F043F8220006E06811C9
:10216000064A05F01F03994042F82010BDE8F081AF
:10217000074A1140084307490860704780E100E0C2
:1021800000E400E00000FA050CED00E000E100E0F2
:1021900080FFFF1F08ED00E070B5FFF7D4FCFFF7EC
:1021A00019FDFFF71EFD4FF4FA610420FFF760FEF2
:1021B0000120FFF776FB00F0D3F900210120FFF7A3
:1021C00057FEFEF7ACFE1848184C194D194E017811
:1021D0000529FCD12878800720D52078212809D02E
:1021E000412802D0512808D012E013480068FEF7B9
:1021F0005DFE0DE0512020700AE0326892B20F4976
:102200000F4800F075F831680B480068FEF754FE7F
:10221000287800F0FD0040F00100287020780728A1
:10222000D8D1FEF784FED5E7A81C0020200B0020A3
:10223000210B0020300B0020280B00203C13002035
:102240003C0B00207047FEE7FEE7FEE7FEE7704725
:1022500070477047704770477047704770477047C6
:1022600070477047704770477047704770477047B6
:10227000704770477047704770477047FFF793B9D2
:1022800000F026B970477047704770477047704735
:1022900081B00C48018821F0040101800A480168DE
:1022A000491C01600948026822F0F0020092C90747
:1022B00000994CBF41F0400141F0B001016001B014
:1022C00070470000102C0140901C002004080140C1
:1022D0007047704770477047704770477047704746
:1022E00070477047704770477047704770470000ED
:1022F000F0B585B005460E4617460F20074200D1BF
:102300000FB901202FE0194C2078F8B900A9184A1C
:10231000135C01F8013B401C0428F9DB042001A9EF
:10232000144A135C01F8013B401C1028F9DB211D05
:102330001148FEF7CDFA221D00A900A8FEF784FC83
:10234000211D00A8FEF7FBFA0120207057B1221DC5
:1023500031462846FEF7F4FA10351036103FBFB26A
:10236000002FF4D1002005B0F0BD00003C1B002080
:10237000E0F7FF1FE4F7FF1F4427000830BF704756
:1023800020BF704740BF7047BFF36F8F7047BFF3E8
:102390004F8F7047BFF35F8F704701DF7047EFF3D8
:1023A0001480704780F31488BFF36F8F7047EFF38A
:1023B0000980704780F309887047EFF30880704701
:1023C00080F30888704762B6704772B67047EFF3C3
:1023D0001080704761B6704771B67047EFF3138095
:1023E000704780F311887047EFF31280704740BA4E
:1023F000704700BA704700004AB38B0707D011F846
:10240000013B00F8013B521E21D08B07F7D1830717
:102410001ED1103A07D330B4B1E83810103AA0E812
:102420003810F9D230BC530724BFB1E80810A0E837
:10243000081044BF51F8043B40F8043BD20724BFC6
:1024400031F8022B20F8022B44BF0B780370704741
:10245000083A07D3B1E80810083A40F8043B40F8BE
:1024600004CBF7D25307E4E762F30F2262F31F4273
:10247000401810F0030308D0C91A1FD3DB0748BF68
:1024800000F8012D28BF20F8022D130030B41446A7
:102490001546103928BF20E93C00FAD8490728BF63
:1024A00020E90C0048BF40F8042D890028BF20F81F
:1024B000022D48BF00F8012D30BC7047C91818BF65
:1024C00000F8012DCB0728BF00F8012D7047000050
:1024D00038B50D4C0D48016861800D4D61882A8822
:1024E0001140490505D54FF6FF31016009484068A4
:1024F0008047608829880840000403D5FEF7B8FFAC
:102500000120207031BD00BFA01C0020445C0040B1
:10251000A41C0020000A002010B4104B03EB410162
:10252000521C52100AD010F8013B10F8014B43EA3C
:10253000042321F8023B891C521EF4D110BC7047C1
:10254000064B03EB4101521C521005D051F8043BDD
:1025500020F8023B521EF9D1704700000060004095
:1025600010B50A4CE4610220207209482062094932
:102570006162006880474FF40070E0624FF48010A1
:10258000A0624FF40060206310BD00BF301C00202B
:10259000000A0020800A002080B500F0EFF8020059
:1025A0000023DB431068984204D011000220ABBE28
:1025B000002010605068984204D0111D0220ABBE6C
:1025C0000020506001BD000010B40FE00168091840
:1025D000001D50F8042BD40744BFA9F10104A21830
:1025E00051F8044B42F8044B1B1FF9D150F8043B3F
:1025F000002BEBD110BC704780B50120FFF72AFB00
:102600000648012101600021016041604FF404414E
:10261000034A11800160002002BD0000405C0040C0
:10262000A41C002010B5084979441C31074C7C4497
:102630001A34A14206D0081D0A685118884701467D
:10264000A142F8D110BD00BF7C0000009C0000003A
:102650000902270001010080320904000003FFFF86
:10266000FF04070581024000000705020240000048
:1026700007058302400000002603530054004D006C
:102680006900630072006F0065006C006500630004
:10269000740072006F006E00690063007300000038
:1026A0000BE050F8041BCB0744BFA9F101035918F4
:1026B000002341F8043B121FFAD150F8042B002AE2
:1026C000EFD17047DDFFFFFF98110000140B0020D1
:1026D00000000000F5FEFFFF14030000C000000032
:1026E00000080020000000001A03530054004D00B1
:1026F000330032002000530054004C0069006E008B
:102700006B00000000F048F8002801D0FFF78AFFB6
:102710000020FFF741FD00F039F80000120100022F
:10272000000000408304483700010102030100005B
:1027300080B5FFF731FF024A11001820ABBEFBE75E
:10274000260002004920616D206B65792C2077619D
:102750007761776110035300540020004C0069003A
:102760006E006B00C046C046C046C046FFF7CAFFB9
:1027700007463846FFF7DCFFFBE7000000487047DC
:10278000080B0020FFF7BEBAFFF7CEBA80B5FFF7FF
:10279000EFBF00000403090401207047637C777BCE
:1027A000F26B6FC53001672BFED7AB76CA82C97D4D
:1027B000FA5947F0ADD4A2AF9CA472C0B7FD9326DE
:1027C000363FF7CC34A5E5F171D8311504C723C3E2
:1027D0001896059A071280E2EB27B27509832C1A26
:1027E0001B6E5AA0523BD6B329E32F8453D100ED80
:1027F00020FCB15B6ACBBE394A4C58CFD0EFAAFB64
:10280000434D338545F9027F503C9FA851A3408F2B
:10281000929D38F5BCB6DA2110FFF3D2CD0C13EC43
:102820005F974417C4A77E3D645D197360814FDCD8
:10283000222A908846EEB814DE5E0BDBE0323A0ABC
:102840004906245CC2D3AC629195E479E7C8376D40
:102850008DD54EA96C56F4EA657AAE08BA78252E65
:102860001CA6B4C6E8DD741F4BBD8B8A703EB566EE
:102870004803F60E613557B986C11D9EE1F89811DF
:1028800069D98E949B1E87E9CE5528DF8CA1890DCE
:10289000BFE6426841992D0FB054BB1652096AD564
:1028A0003036A538BF40A39E81F3D7FB7CE3398245
:1028B0009B2FFF87348E4344C4DEE9CB547B943294
:1028C000A6C2233DEE4C950B42FAC34E082EA166DC
:1028D00028D924B2765BA2496D8BD12572F8F664B3
:1028E00086689816D4A45CCC5D65B6926C7048502E
:1028F000FDEDB9DA5E154657A78D9D8490D8AB00E3
:102900008CBCD30AF7E45805B8B34506D02C1E8F0B
:10291000CA3F0F02C1AFBD0301138A6B3A91114147
:102920004F67DCEA97F2CFCEF0B4E67396AC742230
:10293000E7AD3585E2F937E81C75DF6E47F11A71AE
:102940001D29C5896FB7620EAA18BE1BFC563E4BE7
:10295000C6D279209ADBC0FE78CD5AF41FDDA833A9
:102960008807C731B11210592780EC5F60517FA9E9
:1029700019B54A0D2DE57A9F93C99CEFA0E03B4D18
:10298000AE2AF5B0C8EBBB3C83539961172B047E8C
:10299000BA77D626E169146355210C7D49120008E7
:1029A0009D120008711300087313000875130008C6
:1029B000B3130008F91300080114000807140008F5
:1029C0000D1400080000000040000000000000019D
:1029D00000000002000000040000000800000010D9
:1029E0000000002000000040000000800000001BEC
:1029F0000000003694270008040000007826000834
:102A000026000000E82600081A000000A40A0020A2
:102A10001A0000005427000810000000CD0800082C
:102A200029120008CD080008CD080008CD080008CC
:102A3000CD080008CD080008CD080008CD08000822
:102A40001A03300030003000300030003000300019
:102A500030003000300030003100000085270008D1
:102A6000CD080008CD080008CD080008CD080008F2
:102A7000CD080008CD080008CD0800088927000807
:102A8000CD080008CD080008CD080008CD080008D2
:102A9000CD0800081C27000812000000502600087E
:102AA00027000000FFFFFFFFFFFFFFFF0401000002
:102AB00000010020412B0008652B0008652B000851
:102AC000652B0008652B0008652B0008000000003E
:102AD000000000000000000000000000652B00085E
:102AE000652B000800000000652B0008652B00081E
:102AF00010B5084979441C31074C7C441A34A14272
:102B000006D0081D0A68511888470146A142F8D12D
:102B100010BD00BF080000000400000000F020F815
:102B2000002801D0FFF7E4FF002000F017F800F0C4
:102B300012F8000001491820ABBEFBE72600020096
:102B4000C046C046C046C046FFF7E8FF07463846C5
:102B5000FFF7F0FFFBE780B5FFF7F8BF00207047F5
:102B600001207047FEE7FFFFFFFFFFFFFFFFFFFFB2
:102B7000FFFFFFFFFFFFFFFFFFFFFFFFFFFFFFFF65
:102B8000FFFFFFFFFFFFFFFFFFFFFFFFFFFFFFFF55
:102B9000FFFFFFFFFFFFFFFFFFFFFFFFFFFFFFFF45
:102BA000FFFFFFFFFFFFFFFFFFFFFFFFFFFFFFFF35
:103C000026F1DDF3D15E7CAF665B84BE7BB5E92433
:103C10009F00000034EF180068EE1800000000005C
:103C20004DEE1800F95AA676481C01B2F408FC01C2
:103C30000000000000000000000000000000000084
:103C4000940AFC01D80AFC0108000000800BFC016A
:103C500000000000280CFC0100000000980CFC0192
:103C60000000000000000000D007FC01C0EE1800BA
:103C70005869A676D007FC010000000030F018005B
:103C80000B8CA5760100000000000000E983A576FA
:103C9000481C01B23400000000200000F00BFC01C1
:103CA0000000000001000000000000000000000013
:103CB000B00CFD0100000000000000001C0000002E
:103CC000980AFC01900AFC0100000000D80AFC01DF
:103CD000EB05A676D007FC01000000000000000004
:103CE00008000000000000004CEF18008C2BA676A6
:103CF00000000000D007FC010000000000000000F0
:103D000050EF1800AD6AA67601000000481C01B211
:103D10006CEF18004674A576D007FC010000000087
:103D200001000000481C01B2100BFC01B4EF1800A8
:103D30002842A676481C01B2F408FC01EC08FC01FC
:103D4000F408FC0100000000D007FC0101000000A5
:103D5000E80AFC01100BFC01ACEF18005869A676CC
:103D600000000000D007FC01CCEF18000B8CA576FA
:103D70000100000000000000537AA576481C01B243
:103D800000200000000000000100000018F01800F2
:103D900065541375481C01B21008FC0108000000AE
:103DA00000000000FFFFFFFFD007FC010000000043
:103DB00014F0180040F0180000000000000000009F
:103DC000000000006CF01800501959007E15005FCB
:103DD000CCEF18000900800164F01800E24C137564
:103DE000481C01B2C06DA200080000004CF0180091
:103DF000506AA6761CC0AA7601000000EF7AA5766C
:103E0000481C01B2340000000020000064F01800DB
:103E1000104D13756CF01800481C01B2481C01B21B
:103E200000000000704F347601000000D0F0180050
:103E30005CFD0575040000001C000000000000008F
:103E4000D0F0180073FD057500030A75000000002E
:103E5000655A0475481C01B2B8F01800560C047578
:103E600003000000BCF0180000000000000000008B
:103E70000000000000000000FFFFFFFF0200000044
:103E800024F118000000000001000000481C01B2ED
:103E900084F1180063680775481C01B285001001A1
:103EA000705E0775C06DA200080000001C000000D5
:103EB00004000000340000001000000002020000B6
:103EC00000000000A8BF5900000200002D52347607
:103ED00001000000A8BF5900000000000F0001B25F
:103EE0002100F00003000000030000006900000052
:103EF0001400000073001001030000000300000024
:103F000066000000110000007300100100000000B6
:103F100088F11800340000000D000000806CA20041
:103F200000000000030000000800000085001001F0
:103F3000C06DA20034000000020200000E0000006C
:103F400000000001C8F118002A6D0775000000008C
:103F500015020000A5AB057503000000000000007D
:103F6000A8BF5900806CA200010000000100000001
:103F7000C8F1180000000000EB0300004CFF4700F0
:103F8000F01C590068FF47004CFF47000CF2180076
:103F90005228410011BD0000FCF11800F9784000E2
:103FA0000000000011BD000000000000FF7840008C
:103FB0000000000000000000B8070D0024F2180007
:103FC000FDFA4000000000000000000000000000BA
:103FD0000000000085FC180085FC180000000000AF
:103FE0006A17005FB8F21800C4DA4000110100003F
:103FF000EB030000B8070D00000000002C1E240495
:104000000008002029C1000819B300081BB30008EC
:104010001DB300081FB3000821B300080000000012
:1040200000000000000000000000000025B30008B0
:1040300023B300080000000027B3000829B30008DC
:104040002DB300082FB3000831B3000833B30008C4
:1040500035B3000837B3000839B300083DB3000892
:104060003FB3000841B3000843B3000845B300085C
:1040700049B300084FB3000857B3000861B3000804
:1040800071B3000879B300087DB300087FB300085E
:1040900083B3000887B3000889B300088BB3000816
:1040A0008DB300088FB30008BFB30008C1B3000888
:1040B00015B4000817B4000819B400081DB40008AE
:1040C0001FB4000821B4000823B4000825B4000878
:1040D00027B4000829B400082BB400082DB4000848
:1040E0002FB4000831B4000833B4000801210028BF
:1040F00001D1802070474FF6F8720240082A06D09E
:10410000302A06D0382A06D0402A06D007E00921F6
:1041100033E00B2131E006212FE00A212DE000F0F1
:104120000700102A01D0182A0DD1012804D0022836
:1041300004D0042804D005E0142104E0152102E095
:10414000172100E01621202A01D0282A15D1401E6F
:10415000062811D8DFE800F0040610080A0C0E004B
:1041600010210AE0112108E0132106E0182104E0E3
:10417000192102E01A2100E012210846704710B50B
:10418000040001D0022C07D100220121DFF8F80C35
:1041900007F005F806F003FA022C07D14FF6FF707E
:1041A0000146411889B20029FBD101E0012C01D15F
:1041B00006F0FBF9802010BD80B506F085FCDFF825
:1041C000340B90F82000012801D100200CE003F00E
:1041D00088FE802804D103487844083003F001FFAA
:1041E00002BD00BF647F000004F032FBBDE8024066
:1041F0007CE7000080B506F067FCDFF8F80A90F86D
:104200002000012801D10220EEE703F06AFE802899
:1042100004D103487844083003F0E3FE02BD00BF38
:10422000207F000080B503F05AFE802806D10848A0
:1042300078441C3000F2101003F0D3FE802806D121
:10424000034878440A3000F2081003F0CAFE02BDA9
:10425000306A0000F8B506460C46FFF7CBFFDFF8E2
:10426000945A95F82010012909D180284DD100A930
:10427000304604F01DFBFFF739FF009944E0234F5F
:104280007F448837F1B2C95D6970C6F30721C95D03
:10429000A970C6F30741C95DE970310EC95D297186
:1042A000802808BF03F01DFE802804BF284603F0C5
:1042B00098FE802804BF07F2001003F092FE8028C9
:1042C00008BF03F00CFE802804BF07F2201003F0A3
:1042D00088FEDFF8006D802804BF304603F003FE3F
:1042E0003178C95D6962696A7278D25D41EA0221FA
:1042F0006962696AB278D25D41EA02416962696ABB
:10430000F278D25D41EA026169629FE1746900005E
:104310002DE9F04105460E46FFF76CFF0446DFF835
:10432000D47997F82000012809D1802C68D129463A
:10433000304604F0F0FAFFF7D9FE044660E0DFF8FB
:10434000C880F84408F1C208E8B210F80800787292
:10435000C5F3072010F80800B872C5F3074010F83D
:104360000800F872280E10F808003873F0B210F840
:1043700008007870C6F3072010F80800B870C6F37C
:10438000074010F80800F870300E10F80800387177
:10439000802C02D103F0A5FD0446802C03D13846C1
:1043A00003F01FFE0446802C04D107F1080003F03F
:1043B00018FE0446802C04D108F2641003F011FEAC
:1043C0000446802C02D103F08AFD0446802C04D1DF
:1043D00008F2181003F005FE0446802C04D108F200
:1043E000201003F0FEFD0446802C04D108F21010CA
:1043F00003F0F7FD0446052107F1090007F0ACFEC4
:104400002046BDE8F08100BF786800002DE9F0414A
:1044100082B004460D46FFF7EDFEDFF8D86896F847
:104420002010012912D1802840F08880002070627D
:104430002146284604F0ECFA28B900A9284604F0E1
:10444000AAFA00997162FFF751FE77E0DFF8888BD6
:10445000424F7F4407F58377E1B2C95D88F80110C8
:10446000C4F30721C95D88F80210C4F30741C95D90
:1044700088F80310210EC95D88F80410802808BF51
:1044800003F02FFD802804BF07F2501003F0A9FDB0
:10449000802808BF03F023FD802804BF07F5AB7018
:1044A00003F09FFD802808BF03F01BFD802804BF98
:1044B000404603F096FD802806D1E85D88F80900A3
:1044C00008F1080003F08DFD802805D1E85D7076C5
:1044D00006F1180003F085FD802804BF07F25C1088
:1044E00003F07FFD802808BF03F0F9FC802804BF9B
:1044F00007F2201003F075FDDFF8D88A802804D178
:10450000414607F2081003F079FD98F80010C95DE4
:104510007162716A98F80120D25D41EA02217162EC
:10452000716A98F80220D25D41EA02417162716AB3
:1045300098F80320D25D41EA0261716280280BD1B4
:104540000F2D716A05D1490849006208B1EB420F8D
:1045500000E0A14218BF0D20BDE8F68124670000ED
:10456000F8B506460C46FFF745FEDFF8885795F884
:104570002010012909D1802868D100A9304604F013
:104580000AFAFFF7B3FD00995FE0802808BF03F047
:10459000A8FC802806D11E487844743000F23C10F4
:1045A00003F01FFD802808BF03F099FC802806D186
:1045B000174878445A3000F5A17003F012FD8028A6
:1045C00008BF03F08EFC802808D1114878444030A1
:1045D000305C687605F1180003F003FD802806D1F1
:1045E0000B4878442A3000F2481003F0FAFC802887
:1045F00008BF03F074FC064E7E441436802804BFC6
:1046000006F2201003F0EDFCDFF8C87902E000BFED
:1046100070660000802804D1394606F2081003F0C5
:10462000EDFC3978895D6962696A7A78925D41EA60
:1046300002216962696ABA78925D41EA024169625F
:10464000696AFA78925D41EA02616962696A216089
:10465000F2BD00002DE9F04105460C468020DFF850
:10466000946696F82010012905D1DFF870190968C1
:104670002960002145E0DFF85C790121384603F02C
:104680003CFBDFF88480F84408F17E08797811F863
:1046900008107162716ABA7812F8082041EA0221A2
:1046A0007162716AFA7812F8082041EA0241716277
:1046B000716A3A7912F8082041EA02617162716AFE
:1046C000296080281ED10021384603F016FB797836
:1046D00011F808107162716ABA7812F8082041EA7C
:1046E00002217162716AFA7812F8082041EA0241E7
:1046F0007162716A3A7912F8082041EA02617162C6
:10470000716A2160BDE8F081786500002DE9F84FFD
:104710000546DFF8C0484FF00008FFF76BFD012D9C
:1047200007BF21254FF040091525C146DFF8C465B4
:1047300096F8201001291ED1802840F0998000278A
:10474000012D14DBDFF8984804E0B8F1000F0AD11E
:10475000202F03D0214607EB090001E0214621204C
:1047600004F019F980467F1C241DAF42EDDB404662
:10477000FFF7BCFC7CE0802808BF03F0B2FB802878
:1047800007D13C48784400F1EC0000F2281003F017
:1047900028FC802808BF03F0A2FB802806D13548FA
:1047A0007844D03000F5977003F01BFC802808BFD8
:1047B00003F097FB0027012D4DDBDFF8B880F844AC
:1047C00008F1B208C144DFF818A808F2341B8028A9
:1047D00009D1202F0CBF842099F80000707606F1D3
:1047E000180003F0FEFB802804BF584603F0F9FBD5
:1047F000802808BF03F073FB802804BF08F2201054
:1048000003F0EFFB802804BF204603F070FB14F890
:10481000011B11F80810CAF8001014F8012B12F847
:10482000082041EA0221CAF8001014F8012B12F8FE
:10483000082041EA0241CAF8001014F8012B12F8CE
:10484000082041EA02614AF8041B641C7F1C09F13C
:104850000109AF42BBDB802808BF03F040FB802882
:1048600006D1044878440C3000F2081003F0B9FB7C
:10487000BDE8F28F0C64000038B5044600202070BB
:10488000FFF7B8FC80280ED1DFF8685405F1240149
:10489000DFF85007FFF7DEFC802804D1696A89033E
:1048A00044BF0121217032BD2DE9F84380460846FE
:1048B00016469946089D099C104F7F443E3757F88D
:1048C0002810FFF725FD802805D107EB8800016936
:1048D0002846FFF71DFD80280DD107EB8900006CED
:1048E00007EB8801096A802C03D107EB8602126B63
:1048F0001043FFF70DFDBDE8F28300BFA474000074
:1049000038B50C46DFF8E016084012B9DFF8DC16BF
:1049100005E0012A0CBFDFF8D816DFF8D81641EA07
:104920000005FFF767FC802807D1084878441C3051
:1049300050F824102846FFF7EBFC802804D1DFF85C
:10494000B8160320FFF7E4FC32BD00BFDC760000A0
:10495000F8B5044600202070FFF74CFC802808BF03
:1049600000F07BF8802804D1DFF890160120FFF7D3
:10497000CFFC802805D1DFF88816DFF88806FFF71E
:10498000C7FC0027DFF85C66DA4D802804D105F10A
:1049900024013046FFF75EFC696A01F00071491E90
:1049A0008941C943C90F7F1C802808BF002903D152
:1049B0004FF47A729742E8DB802802D1002900D1B7
:1049C000F2BD002705F124013046FFF743FC7F1CB0
:1049D000696A890105D5802803D14FF47A718F4225
:1049E000F0DB696A89030BD5802804D13146DFF8F2
:1049F0001806FFF78DFC8028E2D101212170F2BD5D
:104A00000021FBE770B5044600202070FFF7F2FBA1
:104A1000802805D1DFF8CC15DFF8F005FFF778FC2A
:104A200080280CD1B34DDFF8BC6505F12401304678
:104A3000FFF710FC696ADFF8D825114205D170BD77
:104A400005F124013046FFF705FC802802D1696A90
:104A5000C901F5D40121217070BD70B50024FFF7A4
:104A6000C9FB8028A34E18D1DFF878552946DFF816
:104A70009805FFF74DFC802804D106F12401284653
:104A8000FFF7E8FB641C716A890302D5716A0903A8
:104A900003D5C82C01DA8028E6D0802805D1DFF8BC
:104AA0007415DFF84005FFF7D5FB70BD2DE9F84F11
:104AB00004460D4690461E460027FFF79BFB06B1B5
:104AC0003460DFF8309299F82010012941D1802814
:104AD00040F0B48004F00C00C0F11000800800F039
:104AE0000309C84538BFC146BA46B9F1000F15D011
:104AF000A3464FEA9B0080002FB905EB8A0103F023
:104B0000D7FE074604E01EB13168A14208BF3060FD
:104B10000AF1010A0BF1040BCA45EAD304EB890040
:104B200080084FEA800AC1450FD277B9A8EB090285
:104B300005EB8901504603F097FF070005D026B129
:104B40003068A04208BFC6F800A03846FFF7CEFA8A
:104B500074E03B4E7E44E836E1B2895D89F801108D
:104B6000C4F30721895D89F80210C4F30741895D08
:104B700089F80310210E895D89F80410802808BF88
:104B800003F0AFF9802804BF484603F02AFA8028D2
:104B900004BF06F2001003F024FA802832D106F296
:104BA000001003F01EFA2DE0A1F10108802829D1A0
:104BB00009F1100106F2001003F020FA99F8101024
:104BC000895DC9F82410D9F8241099F81120925D54
:104BD00041EA0221C9F82410D9F8241099F81220CA
:104BE000925D41EA0241C9F82410D9F8241099F8DD
:104BF0001320925D41EA0261C9F82410D9F824100B
:104C000045F8041B1FFA88F10029CDD1802808BF80
:104C100003F065F9802804BF06F2181003F0E1F9EB
:104C2000802804BF06F2201003F0DBF9802805D1AC
:104C300009F1100106F2101003F0E0F9BDE8F28F5F
:104C4000406000002DE9F04182B006460C4606F0B7
:104C50000305FFF7B1FA274F97F8201001290BD170
:104C6000802805D100A9304603F022FEFFF73EFA66
:104C70000099EA00D14037E0DFF87480F84408F189
:104C80007008F1B211F808107970C6F3072111F815
:104C90000810B970C6F3074111F80810F970310E09
:104CA00011F808103971802808BF03F01AF980281C
:104CB00004BF384603F095F9802804BF08F20010BD
:104CC00003F08FF9802804BF08F2001003F089F97F
:104CD000802805D107F1100108F2001003F08EF9C9
:104CE000E919097C11F808102170BDE8F68100BFB0
:104CF000905F0000181B00202DE9F04707460C4686
:104D000015460026FFF776FADFF8588D98F8201040
:104D1000012933D180282FD107F00C00C0F11000F9
:104D2000800800F00308454538BFA846B146B8F1F1
:104D3000000F10D0BA4600E03EB954F829104FEAEF
:104D40009A00800003F0E7FD064609F101090AF127
:104D5000040AC145F0D307EB880080088000A8450D
:104D600007D236B9A5EB080204EB880103F0EBFE8D
:104D700006463046FFF7BAF9BDE8F087414E7E445B
:104D800006F58176F9B2895D88F80110C7F307212D
:104D9000895D88F80210C7F30741895D88F8031020
:104DA000390E895D88F804102178895D88F809102A
:104DB0002168C1F30721895D88F80A102168C1F3D1
:104DC0000741895D88F80B102168090E895D88F814
:104DD0000C10802808BF03F084F8802823D14046B7
:104DE00003F0FFF81FE06D1E802804BF08F10800E3
:104DF00003F0F7F8802816D154F8041FC9B2895D72
:104E000088F809102168C1F30721895D88F80A1024
:104E10002168C1F30741895D88F80B102168090EEC
:104E2000895D88F80C10ADB2002DDCD1802804BF5C
:104E300008F1280003F0D5F8802808BF03F04FF8E8
:104E4000802804BF06F2181003F0CBF8802804BFB6
:104E500006F2201003F0C5F8802805D108F11001F2
:104E600006F2101003F0CAF8802885D198F81010C7
:104E7000C9077FF581AF06F26C1003F0B2F80C2081
:104E80007AE700BFFC5D0000000C01402DE9F04115
:104E900082B005460C4605F00306FFF78DF9DFF8F2
:104EA000C47B97F82010012917D1802807D1F00082
:104EB00004FA00F1284603F02EFDFFF717F98028C9
:104EC0005DD100A92846FFF7BDFE802857D19DF887
:104ED0000010A14253D00D2051E0DFF8A880F84423
:104EE00008F1A208E9B211F808107970C5F307219A
:104EF00011F80810B970C5F3074111F80810F970DE
:104F0000290E11F808103971F11914F808204A72A5
:104F1000802808BF02F0E5FF802804BF384603F070
:104F200060F8802804BF07F1080003F05AF88028D1
:104F300004BF07F1280003F054F8802808BF02F0EE
:104F4000CEFF802804BF08F2181003F04AF880282A
:104F500004BF08F2201003F044F8802805D107F1BF
:104F6000100108F2101003F049F88028A7D1397C0D
:104F7000C907A4D508F26C1003F033F80C20BDE883
:104F8000F68100BFFC5C000080B5FFF733F9802894
:104F900004D11449DFF8D00AFFF7BAF902BD10B501
:104FA0000C4618B12246A02106F024FF214601201C
:104FB00005F010FE3021012005F099FDDFF8AC0A64
:104FC00003210170DFF8A80A8168091B81600021B4
:104FD000017310BD341C0020E01B0020B81B002012
:104FE00040350020F0ED00E0FCFFFF1F0100004015
:104FF00001000080010000C0002000E0FCED00E0A6
:105000000CED00E00100FA0503005FA005005FA0C1
:10501000010003013C1B0020F0B585B00020049086
:10502000DFF8504A2078012807D0022800F083805A
:10503000032841D004283FD037E0DFF83C5A287CD1
:10504000202805D0302803D03C2800F0C5846CE02F
:105050000020697CA32908BF0120DFF8086A86F8D0
:1050600020000127A42908BF002796F82000012866
:1050700004D103F053FBFFF739F802E0384603F0A0
:10508000ABF8ADF80800BDF80800802804D1002274
:105090000021022005F066FC02202070287C2028D8
:1050A00005D10121002005F018FA05B0F0BD02215C
:1050B00002A8FFF774FFF8E7DFF8BC59297C202924
:1050C00001D0302931D1697CA32904D1DFF894299A
:1050D000012382F820300127A42908BF00270428D3
:1050E00002D101F02AFE01E001F0E2FCDFF87409D0
:1050F00090F82000012804D103F010FBFEF7F6FF22
:1051000002E0384603F068F8ADF80800BDF8080082
:10511000802804D100220021022005F023FC022077
:105120002070287C2028C2D1BBE7022005F0E8F9D6
:1051300000210120B7E7DFF84059287C411E4129B2
:10514000F3D8DFE811F0C500D100D700F3006C01FF
:1051500093019C0272030802360264023503D103F4
:105160008302B7010E0218041B04390442004200F6
:10517000420042004200420042004200420042001F
:105180000A020A027400B3004300420042004200D7
:1051900042004200420042004200420042004200FF
:1051A0004200420074004F00D7006C019301B70128
:1051B000DF010E0264028302F30010044904F300CD
:1051C000140442004D046D047C04AEE704F1200198
:1051D00004F11C00FFF73EFA042104F11C00FFF764
:1051E000DEFE62E704F1200104F11C00FFF732FA51
:1051F000ADF8080080280CBF0120002005F088FBD6
:10520000DFF8785802A80178297041786970042283
:1052100004F11C01281D06F057FD042204F12001B1
:1052200005F1080006F050FD0C212846D7E7697CFF
:10523000A32915D1DFF82C6896F8200058B902F0A0
:1052400005FC03F06BFAFEF751FFADF808000120F2
:1052500086F820001CE003F061FAFEF747FF15E036
:105260000127A42908BF0027DFF8F86796F8200077
:10527000012808D103F092FA384602F0ADFFADF8EC
:1052800008000020E4E7384602F0A6FFADF8080069
:10529000BDF80800802804D100220021022005F07A
:1052A00061FB287C20287FF402AFFAE60120FEF79C
:1052B00066FF02F0CBFBDFF8AC07002180F820107E
:1052C0000022012005F04EFB012020700146E9E696
:1052D00003A8FFF7D1FA9DF80C00002814BF812025
:1052E0008020ADF80800E2E6FFF7B7FB8020ADF8BC
:1052F0000800DCE6DFF86C0790F8200010B902F037
:1053000023FF03E003F00AFAFEF7F0FEADF8080011
:10531000287C03287FF4CBAE03A8FFF719FB9DF888
:105320000C00002814BF80208120DAE70421ADF8AA
:105330000A10042804BF0021ADF80A10DFF82C671A
:10534000317800293FD13D2806D10120FFF7DEF951
:10535000ADF80800882009E00020FFF7D7F9ADF884
:105360000800287C3A280CBF58205420A080287CB4
:1053700004280CD0BDF8080080280CBF01200020B4
:1053800005F0C6FA0222A02102A806F033FDBDF8FE
:105390000A00C0F1400292B200F1A00189B2DFF828
:1053A000E00606F027FD4021012005F013FC302126
:1053B000012005F09CFB02203070A0884038A080BE
:1053C0004020608071E66088BDF80A104942DFF82D
:1053D000B02680180818A288412A12D34022A021A2
:1053E00006F008FD4021012005F0F4FB30210120EA
:1053F00005F07DFB608840306080A0884038A08048
:1054000053E6A02106F0F6FCA188012005F0E2FB9E
:105410003021012005F06BFB0320307045E6DFF8FA
:10542000446606F12401687CFFF79AF8ADF808009D
:1054300080280CBF0120002005F06AFA287C05288E
:1054400004BF042106F124003FF4C9AEDFF82C5656
:1054500002A80178297041786970042206F12401BC
:10546000281D06F031FC08212846B8E6DFF8F4656F
:10547000A87CE97C40EA0120297D40EA0140697D61
:1054800040EA01607062697C706AFEF7BFFFADF8A8
:10549000080080280CBF0120002005F039FABDF873
:1054A000080080283FF403AE287C06287FF4FFAD77
:1054B000812016E7DFF8AC65687CA97C40EA012012
:1054C000E97C40EA0140297D40EA01607062687D24
:1054D000A97D40EA0120E97D40EA0140297E40EAB9
:1054E00001606061716AFEF713FFADF80800802863
:1054F0000CBF0120002005F00BFA287C06287FF461
:10550000D6ADF3E6DFF85C65687CA97C40EA012053
:10551000E97C40EA0140297D40EA0160706204F1C3
:105520001401706AFEF796FEADF8080080280CBFE3
:105530000120002005F0ECF9DFF8405502A80178C1
:10554000297041786970042204F11401281D06F0C5
:10555000BBFB082169E6FFF717FD8020ADF80800C6
:10556000A5E5DFF80065A87CE97C40EA0120297DFB
:1055700040EA0140697D40EA01607062A87E0190C6
:10558000E87D00906B7E2A7E716AA87DFFF78CF91A
:10559000ADF8080080280CBF0120002005F0B8F904
:1055A000287C102804BF8020ADF80800022102A842
:1055B0007FE5DFF8D044DFF8AC6406F12401204633
:1055C000FEF748FE706ADFF8C01408437062214697
:1055D000706AFEF79DFE03A8FFF714FA9DF80C0011
:1055E000002814BF80208120ADF8080006F12401B6
:1055F0002046FEF72FFE706A20F00C00DFF88C14B6
:10560000084370622146706AFEF782FE4FE5DFF8BC
:105610005464A87CE97C40EA0120297D40EA0140ED
:10562000697D40EA01607062AA7D697C706AFFF75B
:1056300067F9ADF8080080280CBF0120002005F0B4
:1056400067F9287C0B287FF432AD4FE6687CDFF8E1
:105650001014794401F20A4151F820100020FEF79D
:1056600057FEADF8080080280CBF0120002005F08F
:105670004FF9287C0E287FF41AAD802031E6DFF840
:10568000EC03007800286FD1687CA97C40EA0120F7
:10569000E97C40EA0140297D40EA0160A061687D23
:1056A000A97D40EA012041F60101884228BF4FF45C
:1056B000C050A08000206080A088ADF80A00802043
:1056C000A06040F60106DFF8B45313E005F020F9BE
:1056D000608800F500606080BDF80A00A0F50060F9
:1056E000ADF80A00A068802804D1A760802F1CBFF5
:1056F0000498E0606188A06908184919BDF80A207B
:10570000B24204AB09D34FF40072FFF7CFF907465A
:10571000802F0CBF01200020D8E79208FFF7C6F9C0
:105720000646802E0CBF0120002005F0F1F8A0688D
:10573000802804D1A660802E1CBF0498E060A08859
:1057400041286ED34022A021CC4806F053FB4021D3
:10575000012005F03FFA3021012005F0C8F9C348C7
:1057600002210170402047E66088C44D4019A2889C
:10577000412A0ED34022A02106F03CFB402101200B
:1057800005F028FA3021012005F0B1F96088403099
:1057900032E6A02106F02EFBA188012005F01AFABE
:1057A0003021012005F0A3F9B048032101707CE409
:1057B000687CA97C40EA0120E97C40EA0140297D1F
:1057C00040EA0160A061687DA97D40EA012041288E
:1057D00028BF4020A0808020A0600027A74DA0887F
:1057E000D0B17919A069FFF72DFA0646802E0CBFBB
:1057F0000120002005F08CF8A068802804D1A66064
:10580000802E1CBFA069E060A069401CA0617F1CC5
:10581000FFB2A0888742E4D1A088012804BF0220FB
:10582000A080A288A0219548B4E7904E3078C8B9EE
:10583000687CA97C40EA0120E97C40EA0140297D9E
:1058400040EA0160A061687DA97D40EA0120A08056
:10585000012030704FF44051022005F05AF98020A9
:10586000A06022E4A069A2888949412A22D310229B
:10587000FFF742FA0646802E0CBF0120002005F0FB
:1058800047F8A068802804D1A660802E1CBFA069BC
:10589000E060A0694030A061A0884038A0807448D2
:1058A0008168403981604FF44051022005F031F9A0
:1058B000FFF7FBBB9208FFF71FFA0646802E0CBFCE
:1058C0000120002005F024F8A068802804D1A660FB
:1058D000802E1CBFA069E06065488168A288891A93
:1058E00081600121FFF7DEBB604E3078B8B901203E
:1058F00030704FF44051022005F00BF9687CA97C10
:1059000040EA0120E97C40EA0140297D40EA01604B
:10591000A061687DA97D40EA0120A0809FE7002565
:105920005B4FA08801281BDB3978A069FFF7AEFA2E
:105930000646802E0CBF0120002004F0E9FFA0687D
:10594000802804D1A660802E1CBFA069E060A069F9
:10595000401CA0616D1CEDB27F1CA0888542E3DB7A
:105960000121FFF79FBB022104F1080037E40C215D
:1059700004F1080033E40121FFF794BB3B4E30787B
:1059800068B9687CA97C40EA0120A08001203070C1
:105990004FF44051022005F0BCF8002011E5A28828
:1059A000412A06D3608840306080A2F14000A08088
:1059B00079E70121FFF776BB2C48007800287FF4B7
:1059C000D3AE697CA87C41EA0020A08000216180E0
:1059D0004128FFF426AFB5E6687CFEF7D0FB80E4F3
:1059E000204E96F82000012818D1687CA97C40EA56
:1059F0000120ADF80A00E87C297D40EA0120697D9C
:105A000040EA0140A97D40EA01607062BDF80A10D9
:105A1000706A04F00EFAFEF769FB68E4202066E481
:105A2000104890F82000012804D104F03CFAFEF759
:105A30005DFB00E02020ADF80800FFF738BB094807
:105A400090F82000012802D104F072FA00E0002052
:105A5000ADF80A0002210DF10A00FFF72ABB00BFD2
:105A6000C8650000181B002001005FA0243700203B
:105A700048370020E036002004370020341C002086
:105A800040350020F0ED00E008005FA000005FA0BE
:105A9000C4350020DFF8A00C02497944891DC16695
:105AA000704700BF450300002DE9F843DFF88C8CF8
:105AB000404605F0BFFCDFF8884C01202060DFF88D
:105AC000785CDFF8000D286405F1080068640020A8
:105AD000A8640A20E86400202865802068654FF4E7
:105AE0008077AF654FF48066EE65002028666866B3
:105AF000A86605F14001404605F0DAFC01220C21C0
:105B0000404605F0F9FCDFF8C08C404605F092FCF9
:105B10004FF480302060DFF8B40C286405F2E00018
:105B200068641020A8640120E86400202865686586
:105B3000AF65EE65202028664FF40059C5F86490E3
:105B40000020A86605F14001404605F0B1FC0122A5
:105B50000821404605F0D0FC0121404605F0C3FC79
:105B6000DFF86C8C404605F065FC4FF080702060DB
:105B7000DFF8740D2864002068641020A8640020F9
:105B8000E864286580206865AF65EE6500202866BA
:105B9000C5F86490A86605F14001404605F088FC10
:105BA000012208214046BDE8F84305F0A5BC0000ED
:105BB0002DE9F04184B00121052005F011FD0121FE
:105BC000012005F004FD0121102005F000FD012158
:105BD000084605F0F3FC8020ADF8080004208DF89D
:105BE0000B0003208DF80A00DFF8784C02A920464C
:105BF00005F069FA4FF40070ADF8080004208DF844
:105C00000B0003208DF80A0002A9204605F05BFA7C
:105C10002020ADF8080004208DF80B0003208DF83B
:105C20000A0002A9204605F04EFA0121DFF8BC0C5B
:105C300005F0BAFADFF8B85C4FF40041284605F0E9
:105C4000AAFA4021204605F0A6FA4FF4C06005F0FC
:105C500077FD0B208DF8000000208DF80100012059
:105C60008DF802008DF8030000A805F06EFD0F20EE
:105C70008DF8000000208DF8010001208DF8020051
:105C80008DF8030000A805F060FD11208DF80000DC
:105C900000208DF8010001208DF802008DF803002E
:105CA00000A805F052FD1E208DF8000000208DF8A0
:105CB000010002208DF8020001208DF8030000A8E9
:105CC00005F043FD06208DF8000001208DF801004D
:105CD0008DF802008DF8030000A805F036FDDFF80E
:105CE000140C4FF480110160FFF7DEFE6FF0010825
:105CF000404606F0C6F841F2941006F0BFF80020C6
:105D000006F0BFF8012006F0CAF84FF0804005F019
:105D100071F8DFF8B47C384605F06CF8DFF8AC6C4D
:105D20004FF6FF7030801120708000207060314687
:105D30004FF0804005F081F80020708031463846F1
:105D400005F07BF84FF0804008210180002101839D
:105D50004FF4A04181834FF48051018400203880AA
:105D600042F2221038834FF40450B8836420388103
:105D7000002038844FF40060ADF804001C208DF83A
:105D8000070003208DF8060001A9204605F09BF9C5
:105D90004020ADF8040014208DF8070003208DF892
:105DA000060001A9204605F08EF94FF40040ADF839
:105DB000040010208DF8070002208DF8060001A9CC
:105DC000284605F080F9404606F05BF8DFF86809E0
:105DD000044979440E31C1660021417104B0BDE827
:105DE000F08100BF050000007047000010B504F00E
:105DF0006BFE0021012003F009FBDFF83C4901F0B4
:105E000052FD08B90920B7E300F0C2FE08B910201E
:105E1000F9E7DFF8780C00F06FFD00202071012019
:105E200060714FF0804000210180172101854FF4FF
:105E3000405181830021018246F66A518186DFF854
:105E4000881B00220A800A840A8282894EF6FF5348
:105E50001A4082818A8922F400728A81DFF87029CF
:105E6000136823F0010313601223536004F28003CC
:105E7000D360136843F001031360828942F49052A7
:105E80008281112282828A8942F010028A810A88E4
:105E900042F001020A80018841F0090101800248B4
:105EA0007844001DE06610BD0500000000F006BC4F
:105EB00010B504F009FEDFF88048218D012003F0C1
:105EC000A5FA41F2941000F017FD00202071012086
:105ED00060710020A08404F1A40000F07BFCA07994
:105EE000005D00F0FBFB02487844001DE06610BD39
:105EF00005000000DFF840080179012911D1018F68
:105F0000828C914203D20749794418316EE0816F47
:105F1000C26F8267C167044979440C31C1660021B0
:105F2000017170478DFFFFFF0500000010B541F2C1
:105F3000941000F0E1FC00F005FCDFF8FC47A079CC
:105F400028B1001910F8010C00F0C8FB22E0E07144
:105F5000DFF8740A018821F001010180818921F4B0
:105F600000718181DFF8D4170A6822F001020A600B
:105F70000E224A6004F10802CA600A6842F0010277
:105F80000A6081894FF4007211438181018841F0D8
:105F90000101018002487844801DE06610BD00BF09
:105FA00005000000DFF890070179012919D1018F60
:105FB000828C914203D20B497944283116E0816FDB
:105FC000C26F8267C167817929B1064A7A44143267
:105FD000491E817102E0044A7A440C32C2660021F3
:105FE0000171704749FFFFFF15000000C1660021E5
:105FF000017105214171062005F0EDBBDFF838077E
:1060000002497944891DC166704700BFC101000083
:106010002DE9F0410146002200230A70DFF81847FD
:1060200022816079658915B90128FBD0CAE0258FE6
:106030006089854238BF0720C0F0C48062816079E2
:10604000A68916B90128FBD0BCE0A089A84238BFB8
:106050008023A2816079E68916B90128FBD0B1E0DE
:10606000E089A84238BF43F04003E2816079268A84
:1060700016B90128FBD0A5E0208AA8423CBF43F016
:106080002003DBB222826079668A16B90128FBD030
:1060900098E0608AA8423CBF43F01003DBB2628202
:1060A0006079A68A16B90128FBD08BE0A08AA842A5
:1060B0003CBF43F00803DBB2A2826079E68A16B9DE
:1060C0000128FBD07EE0E08AA8423CBF43F00403F5
:1060D000DBB2E2826079268B16B90128FBD071E031
:1060E000208BA8423CBF43F00203DBB222836079DD
:1060F000668B16B90128FBD064E0608BA8423CBFD8
:1061000043F00103DBB262830B706079A18B11B99C
:106110000128FBD056E0A08BA84238BF0122002006
:10612000A0834FF080452880DFF8BC6701203080D5
:10613000254878449230185C904207BFA78F4FF0F3
:106140000108678F4FF006080020E071DFF878083B
:10615000018821F001010180818921F40071818190
:10616000DFF8641A0A6822F001020A600E224A600F
:1061700004F10802CA600A6842F001020A608189DB
:106180004FF4007211438181018841F001010180C7
:1061900041F2941000F0B0FB05F016FB0120A8823C
:1061A000288840F00900288000BF00BF378005F034
:1061B0000DFB20890028FCD06079012802D1002045
:1061C00028804046BDE8F0817854000010B5DFF823
:1061D0006845E07901285BD1208D216F4018FFF7D9
:1061E00017FF012804D0062815D007281AD01CE074
:1061F000208D411C218589B2012003F007F9E08C34
:10620000218D814213D14FF08040002101804FF455
:10621000A0418183E8E11F4878447830E066062099
:10622000607103E06071062000E00620A6E188426C
:106230003EBF0D2060710620F8D37F20014203D0BD
:10624000144878444E3022E04FF080400021018015
:106250004FF4A041818341F2941000F04DFBE08C9B
:10626000218D401A80B20321A171E0708128A4BF62
:106270008020E070606F80306067C0F30741A170DC
:10628000C0F3072161702070034878440A30E0664B
:1062900010BD00BF69FDFFFF19FCFFFF10B504F042
:1062A00013FCDFF89444218D012003F0AFF841F294
:1062B000941000F021FB002020710120607104F196
:1062C000B80000F087FAA079005D00F007FA0248F4
:1062D0007844001DE06610BD0500000010B5DFF831
:1062E00058442079012820D1208FA18C884206D2E1
:1062F000002020710D4878443230E0663BE1A06F09
:10630000E16FA167E0670020207141F2941000F076
:10631000F3FA00F017FAA079001910F8010C00F058
:10632000DDF9034878440830E06610BD71FFFFFFD7
:106330003D00000010B541F2941000F0DDFA00F0CD
:1063400001FADFF8F443A07918B1001910F8010C34
:1063500002E0208D216F405C00F0C0F902487844D3
:10636000801DE06610BD00BF0500000010B5DFF81D
:10637000C8432079012831D1208FA18C884203D2D3
:10638000174878445A30F3E0A06FE16FA167E067E7
:1063900041F2941000F0B0FA00F0D4F9A07988B17D
:1063A000104979443E31E166401EA071C0B228B167
:1063B000001910F8010C00F091F90DE0208D216F0B
:1063C000405CF8E7208D216F4018407800F086F996
:1063D000054878441230E0660020207110BD00BFEF
:1063E00055FFFFFF89FFFFFF3100000010B541F2AC
:1063F000941000F081FA00F0A5F9CF4C208D216FA8
:106400004018407800F06AF902487844801DE06640
:1064100010BD00BF0500000010B5C74C2079012851
:106420005DD1208FA18C884207D22D487844B030AE
:10643000E0660020207105209EE0A06FE16FA1675B
:10644000E067208D411C218589B2012002F0DEFF2A
:1064500000202071E08C218D814207D14FF08041D6
:10646000002008804FF4A0408883BDE0884238BFF8
:106470000D20E1D341F294107F2211420DD000F0A3
:106480003BFA00F05FF9208D216F4018407800F052
:1064900025F9144878444C3020E04FF08041002228
:1064A0000A804FF4A0428A8300F026FAE08C218D06
:1064B000401A80B20321A171E0708128A4BF80201E
:1064C000E070606F80306067C0F30741A170C0F377
:1064D000072161702070044878440C30E06610BDDC
:1064E0000DFFFFFF35FFFFFFB5FDFFFF10B504F007
:1064F000EBFA0021012002F089FF41F2941000F034
:10650000FBF98D4C002020710120607104F1CC005A
:1065100000F060F902487844801DE06610BD00BFBD
:106520000500000010B5844C207901281BD1208F74
:10653000A18C884203D20C4878442C3018E04FF0EC
:106540008040002101804FF4A04181836FF0010061
:1065500005F097FC054878441230E0660020607131
:10656000002102F053FF10BD85FFFFFF7DF8FFFF04
:10657000E06600202071052060710620BDE8104013
:1065800005F029B910B56C4CE08F16214143C911B3
:10659000A18513214143C911218600EB4001C91196
:1065A000A18600EB80025200D2116285C0EBC000D0
:1065B000C011E0856186002000F056F94FF0804060
:1065C000002101804FF4A04181836FF0010005F0AC
:1065D00058FC044878440C30E066002060710021CB
:1065E00010E000BF05F8FFFF6FF0010005F049FC67
:1065F00001487844801C01E0F1F7FFFFE0660020CD
:106600006071218DBDE8104002F000BF38B504F084
:106610005BFA0021012002F0F9FE41F2941000F033
:106620006BF9454800210171C17101214171DFF809
:106630009C151E220A80C28F1E324A804FF0804273
:106640000023138013854FF4405393830023138258
:106650004B885B1D9386DC4B00241C801C841C82B1
:1066600094894EF6FF552C4094819C8924F4007443
:106670009C81574C256825F0010525600225656041
:10668000E160216841F001012160918941F490515C
:10669000918111219182998941F010019981198884
:1066A00041F001011980118841F00901118002496E
:1066B0007944091DC16631BD050000001E480179FD
:1066C000012907D1818CC1870021017102497944D8
:1066D000891DC166704700BFADFEFFFFF0B51649CA
:1066E000CA8E1446134D7D444A35465DCD6F012751
:1066F00025F8027B4F8F25F8027B25F8022B4FF0FF
:10670000080C030646BFB1F83CE0A64407EB040EB4
:1067100025F802EB131925F8023B40001419BCF1CF
:10672000010CEED1002E1ABF888F0019381928806D
:10673000F0BD00BF0C4F00001C19002008000240F3
:106740000400024010B44FF08040DFF88414CA8E79
:1067500002EBC2024B8F9A18521D82869A4A00237E
:1067600013801384138283894EF6FF542340838160
:10677000938923F400739381154B1C6824F0010462
:106780001C6014245C60896FD960196841F00101B4
:106790001960818941F490518181DFF838144FF4F8
:1067A00080130B6011218182918941F01001918148
:1067B000118841F001011180018841F00901018037
:1067C00010BC7047340800405800024020080040C8
:1067D0008000024010B44FF0804100220A800A85F8
:1067E0004FF440528A8300220A82DFF8E423D38EDA
:1067F000528F02EB8302521D8A86734A0023138054
:10680000138413828B894EF6FF5423408B81938926
:1068100023F400739381DFF8C0331C6824F0010473
:106820001C600A245C60D860186840F001001860A1
:10683000888940F490508881DFF898034FF48013E2
:106840000360908940F010009081112088821088A8
:1068500040F001001080088840F00900088010BC5A
:1068600070470000000C0140F0B4D949012804D160
:10687000488D4208CB8D4C8E03E0888D42080B8EEC
:106880008C8E8C874B870A87C8860020CA8E4B8FD8
:106890008C8F012804BF182501F2A40607D0022816
:1068A00007BF282501F2B806002501F2CC06012712
:1068B00026F8027B5FEA056C36F802CC4CBFA44494
:1068C0009C44A6F800C0052F3CBF02FB07FCA6F8BD
:1068D00002C0361D6D007F1C062FEBD3401C032821
:1068E000D7DBF0BC704700004000004000021800F9
:1068F0000010014020ED00E010B504466FF00100EB
:1069000005F0BFFA204605F0B9FA002005F0B9FA03
:106910000120BDE8104005F0B4BA000070B5AC4CE1
:106920000020A084AD484FF4801101606579042DEA
:106930000CD0052D28D0062D31D0072D38D0092DAB
:106940003BD00B2D3BD0102D34D038E00426258DC4
:10695000062004F043FF1C48002101804FF08040D6
:1069600001804FF4A04181836FF0010005F089FAA6
:10697000144878444E30E066002060712946304665
:10698000BDE8704002F042BD95480188022904D25A
:10699000491C01800120607170BD0526D7E7904831
:1069A0004188022902D2491C4180F3E70626CEE73E
:1069B0000726CCE710260025CAE70926FBE70A26AA
:1069C000C6E700BF25F4FFFF000800406437002041
:1069D00080B58448016809010ED54FF0006141601F
:1069E0008148002101804FF08040018078480B21D0
:1069F0004171062004F0EFFE01BD80B579480168C1
:106A000009030ED54FF40021416077480021018031
:106A10004FF0804001806E480B214171062004F048
:106A2000DAFE01BD10B56F4C206800070DD50820B7
:106A300060606D48002101804FF080400180644813
:106A40000B214171062004F0C6FE2068400704D5E2
:106A5000042060605E480121C17110BD63485C493B
:106A6000828E8A84028822F01002028001220A713A
:106A70004FF0804100220A80818A21F48051818276
:106A800056484FF4801101607047000020BF02009B
:106A900080B56FF0010005F0F4F9002005F0F1F980
:106AA0004B48042141710620BDE8024004F093BE2A
:106AB0001CB50B208DF8000000208DF80100ADF80A
:106AC000020000A804F041FE0F208DF8000000A88D
:106AD00004F03BFE0B208DF8000000A804F035FE0A
:106AE0001E208DF8000000A804F02FFE06208DF86F
:106AF000000000A804F029FE4020ADF804000420A6
:106B00008DF807003A4C01A9204604F0DCFA4FF456
:106B10000060ADF8040001A9204604F0D4FA4FF457
:106B20000040ADF8040001A9324804F0CCFA4FF05F
